:10000000CBC20000E6C20000E4C20000E2C2000071
:10001000E0C20000DEC20000DCC20000DAC2000064
:10002000D8C20000D6C200000C94201D0C94641CA1
:100030000C94C41FCEC20000CCC20000CAC2000093
:10004000C8C20000C6C20000C4C20000C2C2000094
:10005000C0C200000C94921FBCC20000BAC20000D3
:10006000B8C20000B6C20000B4C20000B2C20000B4
:10007000B0C20000AEC20000ACC20000AAC20000C4
:10008000A8C20000A6C20000A4C20000A2C20000D4
:10009000A0C200009EC200009CC200009AC20000E4
:1000A00098C2000096C2000094C200002105950588
:1000B0002905F304F7042D05FA0430053B05050571
:1000C0008B0509053F050D0543056D051105470520
:1000D000770517054D055705FE043405010537055D
:1000E0001C055205630583058505EF0425059E055E
:1000F000E305E905D705DD05EF05F505FB05DE069A
:10010000DE060E070E078907980898089808A507C5
:1001100019082A082A088F0C920C980C910C940C40
:10012000970C960C701A971A4C1C971A4C1CE21AD2
:10013000041B4C1C051C151C0000000000000000E6
:1001400000000000000000000000000000000000AF
:100150000000000000000000000000007E0F00D43E
:10016000FFFFFFC700000078000000000000000053
:100170002A2B280000000000000000000000000002
:1001800000000029000000002C1E3420212224340D
:100190002627252E362D3738271E1F2021222324DF
:1001A00025263333362E37381F0405060708090A7B
:1001B0000B0C0D0E0F101112131415161718191A17
:1001C0001B1C1D2F3130232D350405060708090A95
:1001D0000B0C0D0E0F101112131415161718191AF7
:1001E0001B1C1D2F3130354C0102E30101140103AA
:1001F000E30039002B002900427EE00000001E00D1
:10020000140004001D00E3004D001F001A0016003A
:100210001B002152404A2000080007000600E200AF
:100220002C00005715000900190038004A00220070
:1002300017000A0005000000B30001570257000034
:1002400003570000417E4C00615200000657000039
:10025000447E23001C000B0011000000B931240073
:1002600018000D0010001E144B0025000C000E009D
:10027000360030022800260012000F003700500020
:100280004C41270013003300520051004E002A0059
:1002900004570557437E4F0000002900010008570E
:1002A000E100E00000003A001E02201422020100DA
:1002B000037C3B001F1421022F02010001003C00BF
:1002C000341425022F1464002C003D003214260241
:1002D0003014640201003E001E142F00211400009F
:1002E00001000757E200000001000000007C4C0004
:1002F0000100000001000000BE003F00520051005C
:1003000023020000BD004000240021001E00010067
:10031000A9004100250022001F00370047004200CD
:100320002600230020002700010043003002300097
:1003300035142702AA002A0044004500E500010008
:10034000000029002B003900E100E00000001E0041
:10035000140004001D00E30001001F001A00160035
:100360001B0001000100200008000700060001003A
:100370002C002100150009001900E20001002200F4
:1003800017000A00050000000100095701000000E5
:100390001000000001004C000A5700000B5700003D
:1003A000010023001C000B001100000001002400CC
:1003B00018000D0010000100010025000C000E00C7
:1003C000360001000100260012000F003700500027
:1003D00001002700130033005200510001002A00E1
:1003E00001000100E5004F00000005010980A101A6
:1003F000850319012AB700150126B700950175106C
:100400008100C0050C0901A101850419012AA0027F
:10041000150126A002950175108100C0050109068D
:10042000A1018506050719E029E7150025019508B2
:10043000750181020507190029EF1500250195F0C6
:1004400075018102050819012905950575019102BB
:10045000950175039101C00660FF0961A101096260
:10046000150026FF009520750881020963150026F6
:10047000FF00952075089102C005010906A101053C
:100480000719E029E71500250195087501810295F6
:1004900001750881010507190029FF150026FF00D5
:1004A0009506750881000508190129051500250123
:1004B000950575019102950175039101C009025BD3
:1004C00000030100A0FA0904000001030101000972
:1004D00021110100012244000705810308000109E0
:1004E0000401000203000000092111010001222281
:1004F000000705820320000107050303200001090E
:100500000402000103000000092111010001226D15
:10051000000705840320000112010002000000080A
:10052000973274490001010203011A03360070007A
:10053000760070006E002F004A0061007A0079009A
:1005400071007A00000016034500720067006F001A
:1005500064006F007800200045005A000000280366
:100560005A005300410020005400650063006800F9
:100570006E006F006C006F006700790020004C0077
:100580006100620073000000040309043800E20007
:100590000000E2003800000011241FBECFEFDAE0B7
:1005A000DEBFCDBF12E0A0E0B1E0E2E5FEE402C0B4
:1005B00005900D92A835B107D9F724E0A8E5B2E07F
:1005C00001C01D92AA31B207E1F70E941A100C94E3
:1005D000272716CDA2E0B0E0E0EFF2E00C94A126D0
:1005E000FC012481222309F4D0C57C0161E072D68C
:1005F0008C01F7018581882309F428C3E091EA037F
:10060000F091EB03309709F460C00E171F0709F44F
:100610005CC0FF27EC30F10540F454E0EE0FFF1F03
:100620005A95E1F7E25FFE4F02C0E0E0F0E085811D
:100630008460858311830083CF010E94D2201092B1
:10064000E80361E0C70146D68C0181309E4709F07E
:1006500040C0F7018581882309F4FDC2909184028E
:1006600081E0890F8770987F853020F4892B8093F3
:10067000840202C090938402809184028770FFEF0D
:100680008F9FC001112495958795959587959927FA
:10069000909389008093880090938B0080938A00C8
:1006A00090938D0080938C0040918402509185023C
:1006B00060918602709187028FE090E00E94F82698
:1006C0008091AC020E947B0CC6C20130FEE71F077E
:1006D00029F202342EE7120709F4D6C050F4003490
:1006E0004AE4140709F4EBC001345EE7150761F032
:1006F00000C103348EE7180709F4CCC004349EE728
:10070000190709F4D0C0F5C0F7018581882309F4E1
:1007100043C188EE91E09A8389833AE0632ECE014B
:1007200001960E947821882309F436C1813009F0AE
:1007300050C0CE0101960E947821813061F4CE0133
:1007400001960E947821893319F460E570E099C020
:1007500060E070E096C0823039F4CE0101960E94CC
:1007600078210E947524DBCF833039F4CE010196C5
:100770000E9478210E945024D2CF843039F5CE01D6
:1007800001960E947821C12CD12C282F30E02053D3
:1007900031092A30310568F46C9CC0016D9C900DC4
:1007A00011246901C80ED91ECE0101960E9478213C
:1007B000ECCF96012115310549F0EFE9FFE03197C3
:1007C000F1F700C0000021503109F4CF8111A7CF0B
:1007D000E3C0E82FF0E0E859FE4F7490282F2695EB
:1007E0002695269530E0F901E85AFE4FC4908770AF
:1007F000D12C082E02C0D594C7940A94E2F7F1E0F8
:10080000CF22DD24F901E85BFE4FA490B12C082E25
:1008100002C0B594A7940A94E2F741E0A422BB2455
:10082000F901E85CFE4F8490912C02C09594879466
:100830008A95E2F751E085229924C114D10419F078
:1008400081EE0E947524A114B10419F086EE0E9475
:10085000752460E070E0872D0E94DC24A114B104AF
:1008600019F086EE0E945024C114D10419F081EED3
:100870000E9450248114910409F451CF60E070E08B
:100880008CE20E94DC244BCF05E221EE41EE62E4D3
:100890007EE705C006E221EE41EE63E47EE7C70194
:1008A0000E94FA20C1C1F7018581882319F081E2F5
:1008B00092E002C080E090E00E945B20B5C1F701A9
:1008C000868182958F709581882351F0992321F03C
:1008D00081E292E047D6A8C181E292E037D5A4C177
:1008E00081E0992319F00E9467239EC10E945C2336
:1008F0009BC1C80197558F3F910511F008F045C085
:100900005801BB24FCE0AF16B1040CF08DC1C50149
:1009100024E0880F991F2A95E1F79C01225F3E4F42
:100920006901F7012581AC014D5E5E4F5A01FA0164
:10093000808120FB80F98083F7018581882309F479
:1009400016C10E94B81F9093A6028093A502F601DB
:1009500082818F5F82839091E8038091E903892BE4
:1009600083838091010384834681578166857785DF
:10097000C6010E94B420F501808181FFF5C090E09E
:1009800080E09093EA038093EB03F801E851FC4781
:10099000E730F10508F407C1F7018581882309F4E0
:1009A0005DC11092E703980130572332310508F0FA
:1009B00028C184E090E00E94E1269093F3038093A5
:1009C000F203F801E150F047E232F10520F4EA5A6F
:1009D000FF4F0C9414278091F2038160ACC080918A
:1009E000F3038860B4C08091F2038260A4C0809158
:1009F000F20320C08091F20388609DC08091F303D0
:100A00001EC08091F3038260A2C08091F2038061D6
:100A100092C08091F20380628EC08091F203806464
:100A20008AC00E94A5238091F203806884C08091CF
:100A3000F203886084607FC08091F30382608160EC
:100A400086C08091F2038E7F76C08091F303877F0A
:100A50007EC08091F2038D7F6EC08091F20320C032
:100A60008091F203877F67C08091F3031EC080915D
:100A7000F3038D7F6CC08091F2038F7E5CC0809108
:100A8000F2038F7D58C08091F2038F7B54C00E9487
:100A9000A5238091F2038F774EC08091F203877F68
:100AA0008B7F49C08091F3038D7F8E7F50C08091F2
:100AB000F20382FB222720F991E0922790FB82F932
:100AC00090FB83F938C08091F303982F9095917033
:100AD0008E7F892B90FB81F93AC08091F20386FBCF
:100AE000222720F991E0922790FB86F924C00E94EA
:100AF000A5238091F20387FB222720F991E092271A
:100B000090FB87F918C061E001C060E08EE090E0E2
:100B10000E94E6261EC08091F20384FB222720F962
:100B200091E0922790FB84F906C08091F203982F00
:100B3000909590FB80F98093F2030BC08091F303B2
:100B400083FB222720F991E0922790FB83F9809381
:100B5000F3036091F2037091F30384E090E00E944C
:100B600000270E94A52360C0902F812F0ACFF60195
:100B70004485558566857785C6010E94B420F501B8
:100B8000808181FF02CFC6010E94BA208091EA03D2
:100B90009091EB030817190709F0F7CE1092EB03B9
:100BA0001092EA03F2CEE858FF4F0C94142706E2A5
:100BB00021EE41EE6AE17CE772CE07E225EE45EEDA
:100BC0006BE17CE76CCE06E221EE40EE68E17CE76B
:100BD00066CE07E225EE44EE69E17CE760CE06E2F0
:100BE00021EE42EE6CE17CE75ACE07E225EE46EEBE
:100BF0006DE17CE754CE08E221E045EE6EE17CE752
:100C00004ECE06312CE7120771F58091E9038A7AFE
:100C100091E009F490E090935A028111AAC289E20E
:100C20000E9424200E94411680910003877009F4DD
:100C3000ACC2F7018581882309F4A7C28091F30330
:100C400082FFA3C282E00E9496169FC201303EE757
:100C5000130709F03ECD01E01EE79ECE06314CE7BA
:100C6000140709F488C29801205E3245203231050C
:100C7000A8F4811115C00F7181E090E09C0102C0C1
:100C8000220F331F0A95E2F78901622F83E090E07B
:100C90000E94E626802F0E947123C6CF8823B1F1DF
:100CA00003303CE71307E1F048F401155CE7150752
:100CB00091F001308CE71807C9F028C00B359CE78C
:100CC000190709F10C35ECE71E07A9F00A351C4796
:100CD000E9F481E019C081E02DD30E94601FA4CF08
:100CE0006FEF7FEF80E090E00E94002780E022D34A
:100CF0000E94551F99CF8091F30382FB882780F9CA
:100D000091E0892701C080E00E94AD16F70187813C
:100D100090850097B9F4F7018581008111818823BE
:100D200049F0C8010E94B122D82E682FC8010E9444
:100D3000202304C0C8010E94EC22D82EB8018D2DBA
:100D40000E9401150E941E158C01F701D580C680F6
:100D5000C2949FE0C922809100038770F9F0DD20E2
:100D6000E9F0812F807F803461F080E2800F88304D
:100D7000A8F0812F807E803221F4023078F0CC20E0
:100D800069F08091F30382FF09C082E00E94961609
:100D9000809100038770BB24B3948111B12CA12EE4
:100DA000A2948FE0A8228A2D90E08C30910508F063
:100DB000BFC1FC01E158FF4F0C941427812F807FA5
:100DC0001F70882311F01295107FDD20B9F01123D8
:100DD00009F49CC180E2800F883010F0011106C038
:100DE0009091E903192B1093E90305C09091E80352
:100DF000192B1093E8030E94411688C1802F0E948E
:100E00005024112309F494C180E2800F883060F1EE
:100E1000002351F1812F0E94331629C0812F807F3A
:100E20001F70803211F01295107F002321F00130E5
:100E300009F44CC055C08091F30382FD1BC0DD2036
:100E400069F0112339F09091E903192B1093E9030C
:100E50000E94411680E00E9475246AC180E00E94D1
:100E60005024112309F464C1812F0E943A160E9474
:100E700041165EC1DD2081F0CC20B1F1F1E0CF124E
:100E800057C190910103812F8923181709F450C18C
:100E9000192B109301034CC1C1104AC1812F0E942C
:100EA0003F2480910103912F982329F0912F909551
:100EB00089238093010320915B02812F822309F40F
:100EC00037C11095212320935B0232C1DD2029F028
:100ED00021E02C1508F42CC107C0C11029C115C090
:100EE000DD2031F0C11012C1812F0E94462420C1A3
:100EF000CC2059F0093309F018C13FEF47EE53E019
:100F0000315040405040E1F70EC1812F0E943F24F4
:100F10000FC1812F86958695837019F0813059F025
:100F200007C1DD2019F0C801937002C080E090E095
:100F30000E94802004C1DD2019F0C801937002C016
:100F400080E090E00E945B20FAC0812F8370A9F5B9
:100F5000D110F2C0402F429546954770440F440F80
:100F6000802F8F7090E09C01042E01C0220F0A9404
:100F7000EAF704FF08C08FE090E001C0880F4A95AF
:100F8000EAF7809501C080E016951695137012302F
:100F900069F088F49091A802113019F0822B89230E
:100FA00002C0922B892B0E947123C6C0822B909184
:100FB000A8028927F8CF822BF6CFDD2019F0812FE8
:100FC000817001C08695882309F4B6C0402F4295F0
:100FD00046954770440F440F802F8F7090E09C011E
:100FE000042E01C0220F0A94EAF704FF08C08FE024
:100FF00090E001C0880F4A95EAF7809501C080E033
:10100000169516951370123059F078F49091AC0241
:10101000113019F0822B892309C0922B892B06C02D
:10102000822B9091AC02892701C0822B0E9455230C
:1010300083C01F70DD2039F0812F0E946723802F2D
:101040000E94462479C0802F0E943F24812F0E9455
:101050005C2372C0023F49F128F4003F41F0013F98
:10106000F9F050C0033F41F1043FB1F04BC0DD2027
:1010700071F0C1105DC01F7181E090E0012E01C0D0
:10108000880F0A94EAF79091AC02892720C081E08A
:101090008C1508F44DC0EFCF8091F30382FD1AC088
:1010A000DD2029F0812F8F7120C0DD20D9F3812F21
:1010B0008F710E945C233CC0DD2041F01F7181E0F4
:1010C000012E01C0880F0A94EAF701C080E00E9457
:1010D00055232EC0DD2061F0812F8F7198E0899F0C
:1010E000900111242360209300030E94672320C0F5
:1010F00081E00E949616E1E0EC15D0F482E00E94B7
:10110000961616C0DD2021F0CC2061F2802FA3CEF0
:10111000CC2069F2093349F4FFEF27EE33E0F150B8
:1011200020403040E1F700C00000802F0E94502492
:1011300088EF8A0D843018F40E94A52016C0BB20C9
:10114000A1F08091000380FD10C0F7011582869503
:10115000869586950E946723C7013CDA809100033B
:101160008695869586950E945C2360E0C701B2D083
:101170000CC085E355CD80915A02811104C089E2EB
:101180000E94F61F4FCD85E3FBCF2296EEE00C9434
:10119000BD269C013A9521153F4130F5BC016627DB
:1011A0007270AC01442754709C012227387094FF60
:1011B0000FC090FF02C080E101C080E0672B09F002
:1011C0008062452B09F08064232B79F080680895B4
:1011D000892F8170672B09F08260452B09F08460AC
:1011E000232B19F08860089580E00895FC01828126
:1011F000813039F4958192FD12C090FF10C082E0D9
:101200000895823039F4858182FD06C080FD06C0D4
:1012100083E0089586E0089585E0089584E00895C8
:1012200090E0FC01EB50FE4F208121111AC0F89490
:10123000FC01E951FE4F8081E82FE295EF70F0E06C
:1012400031A1282F2F7081E090E001C0880F2A95EE
:10125000EAF7982F9095932391A392A1892B82A3CB
:10126000789408958FE39CE90197F1F700C000009E
:101270001092730208958FE39CE90197F1F700C083
:10128000000010926F020895B1DF809373028430E2
:1012900019F481E00C9455230895A8DF80936F0220
:1012A000833019F484E00C9455230895982F929577
:1012B0009F7019F0892F24E001C020E0982F9695A7
:1012C000969511F02E5F892F982F969509F02F5F34
:1012D000822F0895A6E0B0E0E0E7F9E00C94AC2698
:1012E000FC0187819085009709F5CF0126E0DE019A
:1012F000119601900D922A95E1F7FC0125818981D3
:101300009A81222359F0662349F00E94B122182FB6
:10131000682F89819A810E94202303C00E94EC22B9
:10132000182F69817A81812F0E9401152696E3E0AA
:101330000C94C8260E94A5232FEF84E39CE0215043
:1013400080409040E1F700C000000895CF93DF9304
:10135000EC010E945024CE01805E9109089710F0A4
:10136000209729F4CE0115DF0E943F2404C0CE014E
:1013700010DF0E942E24DF91CF9108958FE39CE926
:101380000197F1F700C0000080917502833029F0C9
:10139000853031F0813039F403C08EE292E002C032
:1013A0008DE292E0D3DF1092750208958FE39CE9FD
:1013B0000197F1F700C0000080917102833029F09D
:1013C000853031F0813039F403C08BEA90E002C0FF
:1013D0008EEA90E0BBDF1092710208958FE39CE9E2
:1013E0000197F1F700C0000080916D02833029F071
:1013F000853031F0813039F403C08BEA90E002C0CF
:101400008EEA90E0A3DF10926D0208958FE39CE9CD
:101410000197F1F700C0000080916B02833029F042
:10142000853031F0813039F403C08EE292E002C0A1
:101430008DE292E08BDF10926B0208958FE39CE9BE
:101440000197F1F700C0000080916902833029F014
:10145000853031F0813039F403C08DE290E002C074
:1014600084E390E073DF1092690208958FE39CE9B2
:101470000197F1F700C0000080916702833029F0E6
:10148000853031F0813039F403C085E394E102C046
:1014900084E292E05BDF1092670208958FE39CE99B
:1014A0000197F1F700C0000080916502833029F0B8
:1014B000853031F0813039F403C08EE290E002C013
:1014C0008EE192E043DF1092650208958FE39CE97C
:1014D0000197F1F700C0000080916302833029F08A
:1014E000853031F0813039F403C08FE292E002C0E0
:1014F0008FE194E12BDF1092630208958FE39CE962
:101500000197F1F700C0000080916102833029F05B
:10151000853031F0813039F403C08BEA90E002C0AD
:101520008EEA90E013DF1092610208958FE39CE948
:101530000197F1F700C0000080915F02833061F0F5
:1015400018F4813049F00BC0843019F0853021F057
:1015500006C08DE394E002C081E290E0F7DE1092D5
:101560005F020895CF93DF93EC01805E91090897A5
:1015700010F0209729F4CE010CDE0E94462404C00E
:10158000CE0107DE0E9435248C2F0E947524DF9146
:10159000CF9108950F931F93CF93DF938C01C99739
:1015A00019F0C0E0D0E002C0C0E5D0E0C801DADF49
:1015B000209741F08FE99FE00197F1F700C000000C
:1015C0002197F6CFC801C2DEDF91CF911F910F9115
:1015D0000895CF93DF93EC018A81833049F48DE243
:1015E00092E0D8DF8DE292E0D5DF8DE292E0D2DFAB
:1015F0008A81843018F08DE292E0CCDFDF91CF91C8
:101600000895E7CF0895CF93DF93EC018A8183306B
:1016100049F484E390E0BEDF84E390E0BBDF84E341
:1016200090E0B8DF8A81843018F084E390E0B2DF84
:10163000DF91CF910895CF93DF93EC018A818330BE
:1016400049F484E292E0A6DF84E292E0A3DF84E240
:1016500092E0A0DF8A81843018F084E292E09ADF81
:10166000DF91CF910895CF93DF93EC018A8183308E
:1016700049F48EE192E08EDF8EE192E08BDF8EE125
:1016800092E088DF8A81843018F08EE192E082DF78
:10169000DF91CF910895CF93DF93EC018A8183305E
:1016A00049F48FE194E176DF8FE194E173DF8FE11C
:1016B00094E170DF8A81843018F08FE194E16ADF71
:1016C000DF91CF910895CF93DF93EC018A8183302E
:1016D00049F48EEA90E05EDF8EEA90E05BDF8EEA0E
:1016E00090E058DF8A81843018F08EEA90E052DF73
:1016F000DF91CF910895E7CF0895E5CF0895CF9377
:10170000DF93EC018A81833049F481E290E042DF8B
:1017100081E290E03FDF81E290E03CDF8A8184302B
:1017200018F081E290E036DFDF91CF9108955EDD21
:1017300080937502833029F0853031F0813051F487
:1017400006C08EE292E005C08DE292E023DF8DE2DA
:1017500092E008CF08954ADD80937102833029F02A
:10176000853031F0813051F406C08BEA90E005C03D
:101770008EEA90E00FDF8EEA90E0F4CE089536DD39
:1017800080936D02833029F0853031F0813051F43F
:1017900006C08BEA90E005C08EEA90E0FBDE8EEAA0
:1017A00090E0E0CE089522DD80936B02833029F033
:1017B000853031F0813051F406C08EE292E005C0F0
:1017C0008DE292E0E7DE8DE292E0CCCE08950EDD70
:1017D00080936902833029F0853031F0813051F4F3
:1017E00006C08DE290E005C084E390E0D3DE84E3A0
:1017F00090E0B8CE0895FADC80936702833029F038
:10180000853031F0813051F406C085E394E105C0A4
:1018100084E292E0BFDE84E292E0A4CE0895E6DCAA
:1018200080936502833029F0853031F0813051F4A6
:1018300006C08EE290E005C08EE192E0ABDE8EE164
:1018400092E090CE0895D2DC80936302833029F039
:10185000853031F0813051F406C08FE292E005C04E
:101860008FE194E197DE8FE194E17CCE0895BEDCB8
:1018700080936102833029F0853031F0813051F45A
:1018800006C08BEA90E005C08EEA90E083DE8EEA27
:1018900090E068CE0895AADC80935F02833049F01F
:1018A00018F4813081F00895843039F0853041F0AA
:1018B000089581E290E056DE06C08DE394E005C015
:1018C00081E290E067DE81E290E04CCE27982F988D
:1018D0002F98089526982E982E98089525982D983B
:1018E0002D980895279A2F9A0895269A2E9A08954A
:1018F000259A2D9A0895CF93DF93D82FD7DCC82F40
:101900005E98ECDFE7DFE2DF8C2F90E0FC0131979F
:10191000E730F10570F4E557FF4F0C941427E8DF2A
:1019200008C0E6DFE2DF05C0E3DF02C0E1DFDDDFA4
:10193000D9DF8D2FDF91CF910895A0E2B0E0E3EAE7
:10194000FCE00C94AC26182F8091A9028823D9F0D2
:101950008091A802812BAADC90915D02891799F0F1
:1019600080935D028FE39CE90197F1F700C00000CE
:1019700085E0898380915D028A838EEF8B83CE011F
:1019800001960E948719812FA096E3E00C94C82647
:10199000A0E2B0E0EEECFCE00C94AD269FEF998362
:1019A0008A83CE0101960E948719A096E2E00C94EA
:1019B000C926A1E0B0E0EFEDFCE00C94AB26873047
:1019C000F8F420910C0130910D01232BD1F521E089
:1019D00030E0A90102C0440F551F8A95E2F7CA0101
:1019E000809589830AE010E0AE014F5F5F4F62E1AE
:1019F00080E40E94B72590930D0180930C0121C0D3
:101A000090E0FC01EB50FE4F208121111AC0F894A8
:101A1000FC01E951FE4F8081E82FE295EF70F0E084
:101A200031A1282F2F7081E090E001C0880F2A9506
:101A3000EAF7932F982B91A392A18095892382A3F3
:101A400078942196E4E00C94C7260F931F93CF93CC
:101A50000CEF11E0C7E0F80181918F01811102C004
:101A60008C2FDEDBCF5FCE30B1F7CF911F910F917E
:101A70000895A1E0B0E0EFE3FDE00C94AB26082F61
:101A80008730C8F480910C0190910D01892BD9F514
:101A900019820AE010E021E030E0AE014F5F5F4FB5
:101AA00063E180E40E94FD2590930D0180930C0179
:101AB0008981809529C07DDFA1EEB1E020E030E092
:101AC00010E051E04D91E42FE295EF70F0E080A13D
:101AD00090E04F7002C0959587954A95E2F780FD9A
:101AE00007C0852F022E01C0880F0A94EAF701C0B3
:101AF00080E0182B2F5F3F4F2630310519F7802FDC
:101B00008FDB812F01C080E02196E4E00C94C72692
:101B1000CF93DF93A1EEB1E047EE51E061E070E0DA
:101B2000F8948D91E82FE295EF70F0E021A18F708D
:101B3000EB0102C0CC0FDD1F8A95E2F7CE019C2F8E
:101B40009095922391A392A1892B82A378944A170E
:101B50005B0731F7DF91CF910895A2E0B0E0E3EBAE
:101B6000FDE00C94AB2680E290E090930D01809311
:101B70000C0180915C0281110EC00E94402581E021
:101B800080935C022FEF83ED90E3215080409040E2
:101B9000E1F700C0000019828FE38A830AE010E0B9
:101BA00022E030E0AE014F5F5F4F60E080E40E94D2
:101BB000B72590930D0180930C01892B69F422E0E5
:101BC00030E0AE014F5F5F4F6CE080E40E94B725CC
:101BD00090930D0180930C0180910C012296E4E01A
:101BE0000C94C726A3E3B0E0E8EFFDE00C949D263B
:101BF0004AA75BA76CA77DA78EA79FA791111092FC
:101C0000E8038E010F5D1F4F89E0F80111928A955C
:101C1000E9F786E0FE01BA96D80101900D928A9507
:101C2000E1F78DA181110CC009A11AA12BA13CA142
:101C30004DA15EA16FA178A589A50E94C423F6C11C
:101C400061E0C80147DB8091A902882389F08EA159
:101C5000882311F086E001C087E0898389A18A8307
:101C60008AA18B838EEF8C83CE0101960E94871907
:101C700061E0C8012FDB61E0C8012CDB5C0180352D
:101C8000FCE79F0739F48EA18823A9F081E08093B7
:101C9000E001CAC181359C4731F48EA1882359F0F7
:101CA0000E941222C1C182E5A8168CE7B80619F479
:101CB0008EA1811111C062EDE62E61E0F62E512C4D
:101CC000812C912C66246394712C44244394FE014E
:101CD0003196F9ABE8AB3AC08091E0018823B1F2CC
:101CE000DFCFFFEFCF16DF0609F44CC1F7014481C7
:101CF000411147C01091E001212F122F11703EA118
:101D0000F70125818681332309F4E3C0112309F407
:101D1000E0C02223C9F1930102C0220F331F9A951C
:101D2000E2F721503109F701868190E02817390741
:101D300009F441C0512AFFEF8F1A9F0A27E0E20EF3
:101D4000F11C82E08816910409F41EC1F70120817C
:101D500031816FEF8FEF90E0C92ED12CF601EE0F9D
:101D6000FF1FE20FF31F45915491A416B50611F021
:101D7000C62ED82E452B09F4B4CF9F5F6C2D8D2D28
:101D8000EBCF20E030E0B9CF93010C2C01C0220F43
:101D90000A94EAF7822B868320916D0330916E03BB
:101DA0002233310508F0B7CF22E330E030936E03E1
:101DB00020936D03B0CFC090E303D090E403C1142F
:101DC000D10451F00E94B81F8C199D09C39720F0CF
:101DD000F701448211E0AECF8091E1032091E2034C
:101DE0002AABA0E0B0E02AA9821709F460C0282F2E
:101DF00030E0F901EE0FFF1FE752FC4F40815181A7
:101E00004230510548F497E0949FD001959FB00D62
:101E10001124AE52BE4F02C0A0E0B0E03C9011963B
:101E20002C90119770E090E060E0E32DF22DE60F2A
:101E3000F11DE60FF11DC590D490C114D104C1F07D
:101E4000F701008191819BAB90E0E02FFBA9E90FA6
:101E5000F11DE90FF11D459154914115510531F0E6
:101E6000C416D50609F471E09F5FEFCF6F5FDDCF39
:101E70007723B9F0961708F4D0C01097A1F0149604
:101E80004C921497AE15BF0509F454CF9091E1031D
:101E9000891309C0C9010196837099278093E103D2
:101EA00002C0A0E0B0E0C901019683709CCFAE15DE
:101EB000BF0509F43FCF90E0FC01EE0FFF1FE75292
:101EC000FC4F918280820196837099278093E20370
:101ED00031CF211112C0930102C0220F331F9A95F6
:101EE000E2F72150310990E028173907F1F5442332
:101EF000E9F1C4010E94812138C090E09C01215089
:101F00003109282339230C2C02C0959587950A9412
:101F1000E2F7232B39F580FF25C0F70182819381F9
:101F2000892BE1F089E0E8A9F9A911928A95E9F7EE
:101F30000E94B81F282F8B839C8384E08D83F70138
:101F400082819381782F8887998709811A813C81C2
:101F500044E05E816F81892F0E94C423F7011582BE
:101F600011E004C0182F117001C010E0C3010C2C47
:101F700001C0880F0A94EAF78095F70196818923BA
:101F80008683D8CE10E0D6CE8EA1882379F1552055
:101F900069F10E94B81F9093E4038093E30380915A
:101FA00070038830A0F591E0980F9093700399E04A
:101FB000FE01B196DE01119601900D929A95E1F71E
:101FC000EDE08E9FC00111248F589C4F29E0FE0147
:101FD0003196DC0101900D922A95E1F72FEF3FEF4A
:101FE000FC0132872187B486A38611C09091E1035A
:101FF0008091E203981719F00E941E2208C00E94E7
:10200000B5211092E4031092E3030E94FD2181E0C8
:10201000511080E080FD08CE09C0E114F10409F4FC
:1020200040CFF701448286CE81E0F4CFE396E2E12F
:102030000C94B926A6E6B0E0E0E2F0E10C949E260E
:1020400085B7806885BF85B7806885BF84B7877F7F
:1020500084BF0FB6F894A895809160008861809342
:102060006000109260000FBE90E080E80FB6F89418
:1020700080936100909361000FBE81E08093D10155
:102080008EEC93E190935902809358020E94A71C12
:102090000E94C61C8091E20084608093E2007894E4
:1020A00080913B038823A1F01091E9001F7090916B
:1020B000EC00892F817090FD80E8182B1092E900C8
:1020C0008091E80083FD0E948C191F701093E90035
:1020D00082E084BD93E095BD9AEF97BD80936E003A
:1020E0003CDD90E090930D0180930C01AEDC10DD9F
:1020F000E6E7F2E0A8E8B2E011921D9222E0E438AF
:10210000F207D1F780E090E00E94E126833E9E4FE7
:10211000B9F163EE7EEF80E090E00E94002760E07E
:1021200082E090E00E94E62681E08093A80261E0D0
:1021300083E090E00E94E62660E074E184E090E0B5
:102140000E9400271092840210928502109286024B
:102150001092870284E0809384024091840250911F
:10216000850260918602709187028FE090E00E9464
:10217000F82640E050E0BA0183E190E00E94F826A2
:1021800082E090E00E94D4268093960284E090E062
:102190000E94E1269093F3038093F2030E94DB18E0
:1021A000FFEF23EF81E0F15020408040E1F700C0D5
:1021B00000000E94DB188091880280FF08C06FEF4A
:1021C0007FEF80E090E00E9400270E94601F83E084
:1021D00090E00E94D4260E9471238091AC028BDB98
:1021E00089EA8093800089E08093810024982C986C
:1021F0003F98479A54985C9A55985D9A6E98769A4B
:10220000569A8FE090E00E94DC26609384027093DF
:102210008502809386029093870267701FEF169F56
:10222000B00111247595679575956795772770931B
:1022300089006093880070938B0060938A0070938C
:102240008D0060938C005E9849DB44DB3FDB8FEFB1
:1022500090E0909389008093880090938B00809306
:102260008A0090938D0080938C0042DB9FEFE0E723
:10227000F2E09150E040F040E1F700C0000035DBB3
:102280002FEF80E792E0215080409040E1F700C0BE
:10229000000028DBEFEFF0E722E0E150F0402040C3
:1022A000E1F700C000001ADB8FEF90E7E2E0815019
:1022B0009040E040E1F700C000000CDBFFEF20E7BA
:1022C00082E0F15020408040E1F700C00000FEDADB
:1022D000809184028770189FC0011124959587957D
:1022E000959587959927909389008093880090937E
:1022F0008B0080938A0090938D0080938C005E9871
:10230000EDDAE8DAE3DA80E091E09093EF0380938E
:10231000EE0308E110E0A6E9EA2EA2E0FA2EDD24A1
:10232000D394CC24C39480913B03853009F04DC0F5
:1023300050E4B52E60E1A62E72E1972E80913B030A
:10234000853009F03EC080913B03843009F1109242
:10235000F4030FB6F894A895009360000FBEB092F6
:10236000600083B7817F846083BF83B7816083BF50
:102370007894889583B78E7F83BF0FB6F894A8951D
:1023800080916000886180936000109260000FBEB1
:10239000E4DB90E090930D0180930C0156DBB8DBF9
:1023A000E8E8F2E01192EE16FF06E1F704D7E8E85C
:1023B000F2E081918111D7C192E0E639F907C9F7BE
:1023C000BDCF0E94A5230E94A520F5D647E9A42EE3
:1023D00042E0B42E25EA32E0A8E8B2E0F50191919E
:1023E0008D9189272E173F0719F08823C1F304C068
:1023F000811102C06AD752C038E8832E32E0932E92
:10240000712CF40131904F01F50140804324A1F17A
:10241000612C55245394842D852139F1A2966FAEF9
:10242000A297A3967FAEA3970E94B81FA5969FAFD1
:102430008EAFA597A696DFAEA69791E0832D852156
:1024400009F490E0A7969FAFA797A2964FADA297E9
:10245000A3965FADA397A4966FADA497A5967FAD05
:10246000A597A6968FADA697BDDB6394550CF6E0B5
:102470006F12D1CFF50130827394FFEFAF1ABF0A0C
:102480002EE07212BECF8FB7F8944091F5035091B1
:10249000F6036091F7037091F8038FBF8091EA0310
:1024A0009091EB03892B11F1A090A502B090A602A8
:1024B0000E94B81F8A199B09893C9105B8F0809148
:1024C000EA039091EB0399278C30910540F424E0C6
:1024D000880F991F2A95E1F7825F9E4F02C080E026
:1024E00090E0FC01258122FF0E94D2208091E00132
:1024F000882359F1A090E303B090E403A114B10440
:1025000021F10E94B81F8A199B0920916D03309117
:102510006E0328173907C8F49091E1038091E20314
:10252000981759F00E941E2210926E0310926D03AC
:102530001092E4031092E30308C00E94B5211092A8
:10254000E4031092E3030E94FD210E94A5209091D4
:10255000A702891769F08093A7028FB7F89440917A
:10256000F5035091F6036091F7037091F8038FBF64
:1025700080913B03843009F0E7C083E08093E90059
:102580008091E80082FFE0C08091E80085FF24C0D0
:102590000E94031E81111EC090E2A92EB12C4E0193
:1025A000F1E48F0E911C09C08091F100F401819338
:1025B0004F01F1E0AF1AB10869F08091E80085FDA4
:1025C000F3CF8091E8008B778093E8000E94031E90
:1025D000882399F391E001C090E08091E8008B7727
:1025E0008093E800992309F4AFC022968FAD22971B
:1025F000863009F48FC028F5823009F4A5C0D8F4DC
:102600008823A1F1813009F09DC08093A90284E064
:1026100089A38EEFB82EBAA2CE01819678D690917A
:10262000AC028091A802892B0E94560995E09983FB
:102630008A83BB8283C0843031F1853009F46AC05B
:1026400081C0893009F466C030F48730C9F1883020
:1026500009F460C077C08A3009F45EC08E3F09F08B
:1026600071C0898394E09A838B8368C019828DE05E
:10267000E3E0F2E0DE01129601900D928A95E1F717
:102680008EEF8E875BC08091A902882309F45CC01D
:1026900023968FAD2397811106C024968FAD249782
:1026A0000E945C2351C081E090E024960FAC2497F7
:1026B00002C0880F991F0A94E2F70E94552344C074
:1026C000C092AB0223968FAD23978230C1F000F504
:1026D000882319F0813051F01BC024968FAD2497C8
:1026E000882311F005D930C0F9D82EC024968FADBB
:1026F0002497882311F0F9D827C0ECD825C0249658
:102700008FAD2497882311F0EDD81EC0DFD81CC0F0
:1027100085E019C084E017C023968FAD2397BB24B2
:10272000B394811101C0B12CB092AB02811103C0EE
:10273000D5D8D0D8CBD88BE08983BA82CE01019688
:10274000E6D502C08FEF24D90E94A52081FF02C0E8
:10275000C9D8E9CD8091AC020E945609833009F4B2
:10276000E2CDB4D8E0CD80913A03882309F4E6CDD8
:10277000A9BC99BC09B400FEFDCF8091D8008F7D23
:102780008093D8008091E00082608093E000809187
:10279000E00081FDFCCF0E94A523D0CD80E008950C
:1027A0009091F20392FF10C041E0282F2471243051
:1027B00009F040E031E0282F2871283009F030E09E
:1027C000431711F02CE0822793FF10C041E0282F1F
:1027D0002471243109F040E031E0282F287128319C
:1027E00009F030E0431711F02CE082273091F30319
:1027F00030FF10C051E0282F2171213009F050E046
:1028000041E0282F2871283009F040E0541711F0DA
:1028100029E0822731FF10C041E0282F21712131AA
:1028200009F040E031E0282F2871283109F030E02C
:10283000431711F029E0822794FD877E089582389E
:10284000910569F1B0F48133910509F475C048F43C
:102850008932910509F467C08A32910509F471C083
:1028600008958533910509F459C089339105B9F06C
:102870000895833E910589F138F4803E9105D1F0A9
:10288000823E910529F10895863E9105C9F1873E62
:102890009105D9F1843E910509F06CC027C02091C3
:1028A000F20320FD57C021FD55C02091F30323FD05
:1028B0005BC008958091F20380FD48C08091F303CE
:1028C00080FF48C08091F20384FD46C083EE51C072
:1028D0008091F20382FF3CC0F5CF8091F20382FD2C
:1028E00037C08091F30380FD35C0ECCF8091F303B6
:1028F00081FF36C08091F20384FD2EC087EE39C07F
:102900008091F20383FF2AC0F5CF8091F20383FD0B
:1029100025C08091F30381FD23C0ECCF8091F203A9
:1029200085FD22C01FC08091F20385FD1BC08091F0
:10293000F30383FF19C00AC08091F20386FD16C01D
:1029400017C08091F20386FD13C010C089E311C047
:1029500082EE0FC080EE0DC080E00BC086EE09C095
:1029600084EE07C085E305C089E203C08AE201C0A6
:1029700081E390E008959091E9038091E803892B29
:10298000909101039923E1F0892B9091D00191302E
:1029900041F49091F20397FF04C09EE12FE433E0ED
:1029A00003C096E027E433E0F90120E0915028F0DD
:1029B00031913323D9F32F5FF9CF21111092010305
:1029C00008952091FF029091B60259E02917A9F0CD
:1029D00030E0529FF001539FF00D1124E954FD4F58
:1029E0007181761306C07081781303C075817413EA
:1029F00006C02F5F3F4F2770E9CF80E0089581E048
:102A000008957E30B0F46630A0F48330A0F494E5ED
:102A1000899FF001112486E0789FE00DF11D1124BB
:102A2000E60FF11DEE0FFF1FEE50FE4F85919491C2
:102A3000089580E001C081E090E008951F93CF9356
:102A4000DF93FDDEEC01C11580E5D807E8F5C1157F
:102A500090E4D90708F0A6C0C03ED10530F5CD3CC2
:102A6000D10508F094C0C83AD10578F4C53AD1052B
:102A700008F083C0C130D10509F47CC008F4EBC074
:102A8000C430D10508F0EAC0E6C0C33CD10508F067
:102A9000E2C0C85AD0E0CC0FDD1FCD5EDD4F0990FB
:102AA000D881C02DCE019464DAC0C11580E2D80768
:102AB00008F0C6C0C11591E0D90708F06BC0C83E48
:102AC000D10508F4CBC0C7C0C03682E5D80728F5C9
:102AD000C03492E5D90708F076C0C03282E5D80745
:102AE00008F069C0C11592E5D90708F47EC04C2FE3
:102AF0004695469580E2489FA0011124C37021E0CD
:102B000030E0C90102C0880F991FCA95E2F7EA01B7
:102B1000C82BD92BCE019D68A2C0C03A82E5D80748
:102B2000B8F48C2F8F71C03892E5D90708F077C0C0
:102B30008695869590E2899F90011124C37081E06B
:102B400090E002C0880F991FCA95E2F79A6864C0A6
:102B5000C03C82E5D80708F469C0C03E92E5D907B9
:102B600008F079C0CF71DD27DC2FCC27CE01806F34
:102B7000906A75C081E090E072C0C55AD0E0C05F35
:102B8000DD4F8881C82FD0E0CE01906468C0CE01AF
:102B9000906565C08D2F04DE182FCE0199274FDE7A
:102BA0001F7157C0CE0199274ADECC27DF70D06A4B
:102BB0008C2B9D2B54C0CF71D0E0DC2FCC27CE01C5
:102BC000816F906A4CC08C2F8F718695869590E2AC
:102BD000899F90011124C37081E090E002C0880FAA
:102BE000991FCA95E2F79C6817C08C2F8F71D8DDAA
:102BF00095E0D695C7959A95E1F7CF70D0E0DC2F98
:102C0000CC27282F30E084FF05C084E0220F331F3B
:102C10008A95E1F7D069CE01822B932B20C090E0FA
:102C2000D82FCC27CE01846F906A19C08C2F8F715A
:102C3000B7DD8F7190E0D82FCC27CE0190620FC006
:102C40008D2F8F71ADDD182FCE019927F8DD1F7103
:102C50009062912B04C080E090E001C0CE01DF9132
:102C6000CF911F91089580959091E80389238093D7
:102C7000E803089580959091E90389238093E903FF
:102C800008958091D001813061F58091F20387FF32
:102C900028C071DE80934E0340E250E062E073E0B2
:102CA0008DE493E00E941A27892B09F43EC080E24C
:102CB000EDE4F3E0A2E0B3E001900D928A95E1F734
:102CC000E091EE03F091EF03309779F10480F58104
:102CD000E02D309751F186E080934D038DE493E031
:102CE00023C049DE8093450348E050E062E273E090
:102CF00085E493E00E941A27892BB9F088E0E5E487
:102D0000F3E0A2E2B3E001900D928A95E1F7E09141
:102D1000EE03F091EF03309741F00280F381E02D54
:102D2000309719F085E493E0099508959091000398
:102D30008095892380930003282F277069F49817C2
:102D400059F09091F30392FF07C08695869586957A
:102D50000E945C231092000308959091F30392FB6C
:102D6000222720F9281771F080FB92F99093F30342
:102D70006091F2037091F30384E090E00E940027D9
:102D800082E0D4CF08958091FF029091B602891716
:102D900019F08F5F8770FBCF0895CF93DF938091F9
:102DA000B30282958F7009F04DC08091B2028823E2
:102DB00009F448C08091FF024091B6025091AE02E2
:102DC0006091AD02C091AF02D091B00279E084175A
:102DD000C9F190E0789FF001799FF00D1124DF0197
:102DE000A954BD4F14962C911497222341F11196AA
:102DF0002C911197251323C02C91261320C01596D2
:102E00002C91159721111BC012962D913C9113976F
:102E10002C1B3D0B283C310590F48091B3028F7040
:102E200080618093B302E354FD4F80818F70806195
:102E300080838DEA92E00E94EA02A5DF03C001963A
:102E40008770C5CFDF91CF910895A8E1B0E0EBE2A4
:102E5000F7E10C94A3268C0186E0F801DE0153967D
:102E600001900D928A95E1F7F8018481E5809DEA51
:102E7000892E92E0992E9091B10291111FC0882362
:102E800009F492C1EE2009F441C0C8010E947C23DC
:102E9000F82E8823D9F189E0F801D40101900D9230
:102EA0008A95E1F78091B102813031F48091AD02D1
:102EB0009091AE020E94E02270DF78C1F801D080CC
:102EC000C180A280B380F090B2022091AF02309115
:102ED000B002FF2009F40DC1A501421B530B483C71
:102EE000510508F0B3C0882309F460C18091B30292
:102EF000282F207F9091AE02222361F09C1509F4C7
:102F000067C0C8010E947C23811174C0C8010E945F
:102F1000EA024AC19C111CC09091AD029D1118C0DB
:102F20004091B4025091B502278130854217530772
:102F300079F4E1100DC08F7080618093B3028DEA47
:102F400092E00E94EA028091B302F80186832AC1CE
:102F5000E11038C040E06C2D8D2D33DD40E06C2D4C
:102F60008D2D2FDDE82E81111DC1DB8ACC8A8B8946
:102F70009C890E94E022292F22952F70243020F472
:102F80009F70223028F009C02A50223080F014C0EF
:102F9000992349F0811107C013C0992321F0F8014A
:102FA0009681907F69F0805E883030F409C0803F60
:102FB00038F0815F833020F0C8010E94EA02EF2CD4
:102FC000FE2CF4C08091B30281608093B302EAC00A
:102FD0009091AD029D1195CF4091B4025091B502F0
:102FE000F801278130854217530709F08ACFE11095
:102FF00088CFB7C0EE2009F489CF2091B302822F89
:1030000082958F7090E00297BCF08091AD02909114
:10301000AE029B878A87BD86AC868091B1028E877F
:103020001F86288B8091B4029091B5029A8B898B70
:10303000CE010A960E94EA0289E0F801ADEAB2E008
:1030400001900D928A95E1F7A8DEAEC09091B3028F
:10305000292F207F51F48DEA92E00E94EA0289E054
:10306000F40111928A95E9F79DC0882309F49EC066
:103070008091AE028C1115C08091AD028D1111C0EE
:103080004091B4025091B502F80127813085421772
:10309000530739F4E11005C09683C8010E94EA0283
:1030A0007BC0C8010E947C23882309F42FCFEE2027
:1030B00009F42CCF2091B302822F82958F7090E07B
:1030C00002970CF4B9CF8091AD029091AE029A8331
:1030D0008983BC82AB828091B1028D831E822F8353
:1030E0008091B4029091B50299878887CE010196AC
:1030F000A1CFA21AB30AF8ECAF16B10408F04CC085
:10310000882309F451C0FE2CEE2009F4FFCE8091F3
:10311000AE028C1133C08091AD028D112FC0209171
:10312000B4023091B502F8018781908528173907DC
:1031300029F58091B30280FD18C082958F70482FC9
:1031400050E04115510589F02091B30226834F309C
:10315000510541F08F5F982F9295907F822F8F704D
:10316000892B8683C8010E94EA0289E0F801ADEA52
:10317000B2E001900D928A95E1F718C0C8010E9453
:103180007C23811159CF8091B30281608093B30277
:10319000C8010E94EA020AC089E0F40111928A95EE
:1031A000E9F704C0F12C02C0FF24F3948F2D689638
:1031B000ECE00C94BF26EF92FF920F931F93CF93F6
:1031C000DF9380910C0190910D01892BD1F08091BA
:1031D0002C038F5F80932C03811113C00E94AD0DCF
:1031E00090E090930D0180930C01892B51F42FEF07
:1031F00083EC99E0215080409040E1F700C000004E
:1032000054D606E712E0C0E0D0E087E0E82EED0EED
:103210008D2F0E94D90C8E2D0E94D90C8D2F0E94CB
:10322000390D8F73F8019081891721F08083FF2475
:10323000F39401C0F12C8E2D0E94390D8F73F8018B
:103240009781891719F0878381E001C080E0F82A0F
:10325000CF290E94250DDF5F0F5F1F4FD730A9F6E2
:10326000CC2351F081E080932F0382D690932E03DC
:1032700080932D03C0E023C080912F038823F9F0B1
:1032800000912D0310912E0373D6801B910B449750
:10329000B0F04EE050E066E772E088E892E00E940D
:1032A0001A27892B51F08EE0E6E7F2E0A8E8B2E0B9
:1032B00001900D928A95E1F7C1E010922F038C2FB7
:1032C000CDB7DEB7E6E00C94C526A6E0B0E0EBE6AD
:1032D000F9E10C94AB264CD68C0180912A03909195
:1032E0002B030817190779F019821A8241D6682F23
:1032F00049815A81792F80E090E00E94F20D10936D
:103300002B0300932A032696E4E00C94C72640E2A0
:1033100050E0BC0182E060C5AAE2B0E0E2E9F9E178
:103320000C94AC26EDE3F3E085E493E02091F1000A
:1033300021938E179F07D1F780913E03833009F4C4
:1033400062C030F4813071F0823009F49FC0B5C0A2
:103350008A3009F48CC08B3009F46DC0893009F0D3
:10336000ACC01FC080913D03813A09F0A6C0809196
:10337000E800877F8093E8008091410390914203A9
:10338000892B21F468E081E393E003C060E080E0F2
:1033900090E070E0C3D48091E8008B778093E800E0
:1033A0008CC080913D03813209F087C08091410338
:1033B00090914203009719F0029709F07EC0809126
:1033C000E800877F8093E8008091E80082FD05C0D7
:1033D00080913B038111F8CF70C02091F300809160
:1033E000F20090E0922B029731F48091F10081304D
:1033F00011F0863021F48091F1008093CF0180910B
:10340000E8008B7757C080913D03813A09F055C0A1
:103410008091410390914203892B09F04EC0809125
:10342000E800877F8093E8008091E80080FFFCCF70
:103430008091D0013AC080913D03813209F03DC0B6
:103440008091410390914203892BB9F58091E80066
:10345000877F8093E8000ED481E090913F03911123
:1034600001C080E08093D0010E94A52326C08091F6
:103470003D03813211F58091E800877F8093E80059
:10348000F9D3809140038093CE0117C080913D0312
:10349000813A99F48091E800877F8093E8008091D9
:1034A000E80080FFFCCF8091CE018093F1008091F5
:1034B000E8008E778093E800DDD38091E80083FFF9
:1034C000EBC180913D0390913E03492F50E04A307B
:1034D000510508F0E1C1FA01EE56FF4F0C94142794
:1034E000803821F0823809F0D7C108C080913903B3
:1034F00090913A03992389F082600FC08091410333
:103500008F70873008F0C8C18093E9008091EB008C
:1035100085FB882780F91092E9009091E800977F59
:103520009093E8008093F1001092F1007AC1282F67
:103530002D7F09F0B1C1882319F0823061F0ACC150
:1035400080913F03813009F0A7C1933009F080E0FA
:1035500080933A032EC080913F0381112AC080914D
:1035600041038F702FEF280F263008F095C180930C
:10357000E9002091EB0020FF1CC0933021F48091E2
:10358000EB00806214C09091EB0090619093EB008F
:1035900021E030E0A90102C0440F551F8A95E2F7EF
:1035A0004093EA001092EA008091EB0088608093DB
:1035B000EB001092E9008091E800877F8093E8009B
:1035C00059D36AC1811168C110913F031F7780915F
:1035D000E3008078812B8093E3008091E800877F6F
:1035E0008093E80047D38091E80080FFFCCF809172
:1035F000E30080688093E300111102C082E001C003
:1036000083E080933B0348C18058823008F044C176
:1036100020913F03309140032C3D53E0350771F575
:1036200083E08A838AE289834FB7F894DE01139698
:1036300020E03EE051E2E32FF0E050935700E491A8
:1036400020FF03C0E295EF703F5FEF708E2F90E098
:10365000EA3010F0C79601C0C0968D939D932F5FFE
:10366000243149F74FBF8091E800877F8093E800BD
:103670006AE270E0CE01019651D3C1C0809141034E
:1036800090914203432F552743305105B1F068F420
:103690004130510509F40FC14230510509F0FCC019
:1036A0008BE590E0EDEBF4E057C04132510589F134
:1036B0004232510509F43CC0EFC0C901992781305D
:1036C0009105B9F070F082309105D9F0039709F0B7
:1036D000E3C0EAE2F5E0E4918E2F90E0EAE2F5E063
:1036E00038C0E8E8F5E0E4918E2F90E0E8E8F5E0F6
:1036F00030C0EEE5F5E0E4918E2F90E0EEE5F5E0E8
:1037000028C0E6E4F5E0E4918E2F90E0E6E4F5E0F1
:1037100020C08330910508F0BFC0880F991FFC01BD
:10372000EE5AFD4F0190F081E02D89E090E014C049
:103730008330910508F0B0C0FC01EE0FFF1FE45B81
:10374000FD4F0190F081E02DDC01A75BBD4F8C9116
:1037500090E0009709F4A0C02091E800277F209313
:10376000E80020914303309144038217930708F443
:103770009C0140E02115310589F180913B038823AC
:1037800009F43DC08530D9F18091E80083FD37C050
:103790008091E80082FD2FC08091E80080FFEACF91
:1037A0004091F3008091F20090E0942B21153105B7
:1037B00059F08830910540F444914093F1003196DE
:1037C000215031090196F2CF41E0089709F040E01D
:1037D0008091E8008E778093E800CCCF4111CDCF67
:1037E0000AC080913B03882351F0853041F08091DD
:1037F000E80083FD04C08091E80082FFF2CF809151
:10380000E8008B778093E80047C0803809F044C017
:103810008091E800877F8093E80080913C0380934B
:10382000F1008091E8008E77C9CE811135C080917A
:103830003F03909140039927029774F58091E80027
:10384000877F8093E80010913F0310933C0312D2CE
:10385000111106C08091E30087FD02C081E001C024
:1038600084E080933B0342E061EC81E022D242E2BB
:1038700061EC84E01ED242E261EC82E01AD242E2C4
:1038800060EC83E016D280913B03843011F081E03C
:1038900001C082E08093D1018091E80083FF10C0D5
:1038A0008091E800877F8093E8008091EB00806240
:1038B0008093EB0005C082E190E0E8E1F5E04CCFB9
:1038C000AA96E3E00C94C8261F920F920FB60F92AF
:1038D00011242F933F934F935F936F937F938F9315
:1038E0009F93AF93BF93CF93DF93EF93FF93C091D9
:1038F000E900CF708091EC00D82FD17080FDD0E826
:103900001092E9008091F000877F8093F000789416
:1039100003DD1092E9008091F00088608093F00050
:10392000CD2BCF70C093E900FF91EF91DF91CF9144
:10393000BF91AF919F918F917F916F915F914F91C7
:103940003F912F910F900FBE0F901F901895E8EDAB
:10395000F0E080818E7F80831092E2001092DA0086
:103960001092E100A0EEB0E08C9181608C93808198
:103970008F77808319BCA7EDB0E08C918E7F8C93FC
:1039800080818F7E8083109230030895A0E0B0E0A4
:10399000ECECFCE10C94A726C8EDD0E088818F7E8A
:1039A0008883E7EDF0E080818160808384E082BFDE
:1039B00081E08093300388818E7F888302EE10E05F
:1039C000F80110821092DA0081EEC82ED12CF60197
:1039D000108288818F778883888180688883888136
:1039E0008F7D888319BC10923B0310923C03109288
:1039F0003A031092390390EEE92EF12CF701808101
:103A00008B7F808388818160888342E060E080E0F2
:103A100050D1F60180818E7F8083F80180818160A2
:103A20008083808188608083F70180818E7F80839E
:103A3000888180618883CDB7DEB7E8E00C94C32627
:103A40001F920F920FB60F9211242F933F934F9313
:103A50005F936F937F938F939F93AF93BF93EF93F6
:103A6000FF938091E10082FF09C08091E20082FF14
:103A700005C08091E1008B7F8093E1008091DA00A6
:103A800080FF28C08091D80080FF24C08091DA0098
:103A90008E7F8093DA008091D90080FF16C080E18C
:103AA00089BD82E189BD09B400FEFDCF81E080932C
:103AB0003B038091300381110DC049DF67DF8091A6
:103AC000E20084608093E20005C019BC10923B03C1
:103AD000109230038091E10080FF1AC08091E200D3
:103AE00080FF16C08091E2008E7F8093E20080917B
:103AF000E20080618093E2008091D8008062809330
:103B0000D80019BC85E080933B0383E08093D1010A
:103B10008091E10084FF37C08091E20084FF33C0D0
:103B200080E189BD82E189BD09B400FEFDCF8091AD
:103B3000D8008F7D8093D8008091E1008F7E8093A4
:103B4000E1008091E2008F7E8093E2008091E200AC
:103B500081608093E20080913C03882311F084E02F
:103B600007C08091E30087FD02C081E001C083E0CF
:103B700080933B0380913B03843011F081E001C0CE
:103B800082E08093D1018091E10083FF2BC080917E
:103B9000E20083FF27C08091E100877F8093E100EE
:103BA00082E080933B0310923C038091E1008E7F82
:103BB0008093E1008091E2008E7F8093E20080910B
:103BC000E20080618093E20042E060E080E071D03A
:103BD0008091F00088608093F00081E08093D101B3
:103BE0008093D001FF91EF91BF91AF919F918F9101
:103BF0007F916F915F914F913F912F910F900FBEE9
:103C00000F901F9018952091E4003091E50095E603
:103C10004091EC00842F817040FF23C08091E80028
:103C200080FD1DC080913B03882399F0853099F079
:103C30008091EB0085FD11C04091E4005091E500BA
:103C40002417350729F3915011F09A01E1CF84E050
:103C5000089582E0089583E0089581E0089580E06A
:103C600008954091E80042FFDDCF089508958091C6
:103C7000CF01089580913D0387FF11C08091E80036
:103C800082FD05C080913B038111F8CF11C0809166
:103C9000E8008B770BC080913B03882349F080912B
:103CA000E80080FFF8CF8091E8008E778093E800ED
:103CB0000895982F973068F59093E900981739F098
:103CC0007091EC002091ED005091F00003C0242F82
:103CD000762F50E021FD02C09F5FECCF3091EB00CA
:103CE0003E7F3093EB003091ED003D7F3093ED004F
:103CF0003091EB0031603093EB007093EC00209337
:103D0000ED005093F0002091EE0027FDE5CF80E01C
:103D100008958F708093E90081E008952091430316
:103D2000309144032617370748F06115710539F4BF
:103D30002091E8002E772093E80001C0B901FC0132
:103D400020E06115710579F180913B038823F1F141
:103D50008530F1F18091E80083FD3CC08091E8005E
:103D600082FD2EC08091E80080FFEBCF2091F30010
:103D70008091F20090E0922B6115710551F088302E
:103D8000910538F421912093F10061507109019659
:103D9000F3CF21E0089709F020E08091E8008E77CA
:103DA0008093E800CECF2111CFCF0AC080913B0392
:103DB000882361F0853061F08091E80083FD0AC0BE
:103DC0008091E80082FFF2CF80E0089582E00895BC
:103DD00083E0089581E008950F931F93CF93DF93BD
:103DE0008B01EA0190913B039430A1F58F70809391
:103DF000E9008FEF9091E800815095FD06C095EDA8
:103E00009A95F1F700008111F5CF8091E80085FFC8
:103E100021C0F9DE811115C0209789F08091E8005A
:103E200085FD06C08091E8008E778093E800F1CF91
:103E3000F80181918F018093F1002197EDCF90E0FF
:103E400001C0982F8091E8008E778093E80081E090
:103E5000911101C080E0DF91CF911F910F910895E2
:103E600043E050E0BC0184E0B7CF40E250E0BC0149
:103E700084E0B2CFCF93DF93EC0148E050E0BC0187
:103E800081E0AADF88E0FE01A1E3B3E001900D929A
:103E90008A95E1F7DF91CF910895603229F4BC0152
:103EA00040E250E082E098CF08959AE088E10FB6B2
:103EB000F894A895809360000FBE90936000FFCFA8
:103EC000F89481E08093E00080E28093D800E9ECF0
:103ED000F0E010828FE19EE40197F1F700C000004E
:103EE0001DBA109268001CBC10BE1FBA10927A0056
:103EF00010926E0010926F0010927100109272007A
:103F00001082ECEBF0E0108214B817B81AB81DB8A4
:103F100010BA108215B818B81BB81EB811BA0C9494
:103F2000003F089578941F920F920FB60F921124BC
:103F30008F939F93AF93BF938091F5039091F60376
:103F4000A091F703B091F8030196A11DB11D8093D4
:103F5000F5039093F603A093F703B093F803BF9192
:103F6000AF919F918F910F900FBE0F901F9018955A
:103F70002FB7F8948091F5039091F603A091F70381
:103F8000B091F8032FBF08951F920F920FB60F92B2
:103F900011248F939F93AF93BF938091F40381116A
:103FA00013C08091F5039091F603A091F703B091AF
:103FB000F8034196A11DB11D8093F5039093F6037C
:103FC000A093F703B093F803BF91AF919F918F91A6
:103FD0000F900FBE0F901F901895CF93DF93EC01B9
:103FE000C7DF8C1B9D0BDF91CF9108959091D0017D
:103FF000913021F49091F20397FD03C0E5E4F3E0E2
:104000001DC0E82FE695E695E695EE31E0F4F0E088
:10401000E35BFC4F877021E030E0A90102C0440F50
:10402000551F8A95E2F7CA01809592818923828380
:104030000895319653E0EB34F50729F09281891306
:10404000F8CF1282F6CF08959091D0019130D1F43B
:104050009091F20397FF16C0E82FE695E695E69556
:10406000EE3140F5F0E0E35BFC4F877021E030E09B
:10407000A90102C0440F551F8A95E2F7CA01928137
:10408000892B16C0A7E4B3E0EFEF90E02D918217E3
:1040900089F0EF3F19F4211101C0E92F9F5F96309D
:1040A000A9F7EF3F39F00E2E000CFF0BEB5BFC4F36
:1040B000828308950895A3E0B0E0E0E6F0E24DC603
:1040C0002091F0033091F10328173907B1F0909354
:1040D000F1038093F003E091EE03F091EF0330974A
:1040E00061F00084F185E02D309739F024E02983D8
:1040F0009B838A83CE01019609952396E2E049C607
:10410000A3E0B0E0E5E8F0E228C62091EC033091AE
:10411000ED0328173907B1F09093ED038093EC037A
:10412000E091EE03F091EF03309761F00084F185A8
:10413000E02D309739F023E029839B838A83CE01D9
:10414000019609952396E2E024C6E091EE03F091F2
:10415000EF03309739F00190F081E02D309711F0A6
:104160000995089580E008954115510511F0FA016F
:1041700009950895CF93DF93EC014A855B856E85A1
:104180007F85F2DF8B810E9433168C810E943A1664
:104190000E94411686E0FE0111928A95E9F7DF91AF
:1041A000CF910895CF93DF93EC018D8181FD16C0EF
:1041B00082608D839091E8038B81892B8093E80343
:1041C0009091E9038C81892B8093E9030E94411629
:1041D000488559856E857F85CE01C6DF1092EB0339
:1041E0001092EA038D8180FD02C0CE01C3DFDF9112
:1041F000CF910895EF92FF920F931F93CF93DF9388
:10420000C42FD22FFC0185818823A1F04093E703BE
:10421000AFDE9093E6038093E50380E28C0F883055
:1042200008F062C0C77081E001C0880FCA95EAF744
:104230002DD35AC08091E70348133BC0E090E503BB
:10424000F090E60395DE8E199F09883C910588F56C
:1042500010E21D0FCD17D9F080E28C0F883038F4B2
:10426000C77081E001C0880FCA95EAF708D31830FB
:1042700060F581E09D2F977001C0880F9A95EAF74D
:1042800005D3093341F560E570E089E327C00933C0
:1042900019F460E570E002C060E070E0802F8CD31C
:1042A000183010F5D77081E001C0880FDA95EAF771
:1042B0000AC080E28C0F8830B8F4C77081E001C07A
:1042C000880FCA95EAF7DBD20FC0093349F460E5DD
:1042D00070E089E308C060E070E0802F6DD3E2CF2A
:1042E00060E070E0802F68D3CDB7DEB7E6E04DC563
:1042F000DC01ED91FC91119784913196ED93FC9343
:104300000895AC018091E1036091E203982F961724
:1043100059F1292F30E0F901EE0FFF1FE752FC4F52
:104320000190F081E02DE417F507C9F44230510502
:1043300048F467E0649FF001659FF00D1124EE5290
:10434000FE4F02C0E0E0F0E041E0448398130CC06F
:104350002F5F3F4F237033272093E10308952F5F92
:104360003F4F922F9370D3CF0895EF92FF920F9308
:104370001F93CF93DF93809170038823D1F1C09175
:104380006F038DE0F82E80917003C81770F5EE244E
:10439000E394EC0EE0926F03D0E0FC9EF001FD9EF2
:1043A000F00D1124EF58FC4F84818823E1F08781C0
:1043B0009085892B21F481859285019651F40081A5
:1043C0001181228133814481558166817781808585
:1043D000DBD1FC9EF001FD9EF00D1124EF58FC4F47
:1043E00014821092E803CE2DCECF1092700310925B
:1043F0006F03CDB7DEB7E6E0C8C410926E0310922B
:104400006D038091D701811104C01092D6011092E2
:10441000D8018091DE01811104C01092DD0110925B
:10442000DF0108951092E4031092E3031092E0017B
:104430008091E2038093E103E0DF97CFA0E0B0E05A
:10444000E3E2F2E27AC4C091E10397E0892E01E051
:1044500010E02DE0922E34E0232E8091E203C81765
:1044600009F479C0D0E0FE01EE0FFF1FE752FC4FC8
:10447000808191818230910540F4889ED001899E8F
:10448000B00D1124AE52BE4F02C0A0E0B0E01496B1
:104490002C91149721115CC06090700341E753E0A8
:1044A00020E030E0712C261508F051C0FA01C384D9
:1044B000D4844D905C9011976FEF7FEF312CA32C3B
:1044C000B12CF501EE0FFF1FE40DF51DE590F49002
:1044D000CE14DF0409F4B501E114F10411F03394B2
:1044E000EECF6F3FFFEF7F0769F1F80102C0EE0FDB
:1044F000FF1F6A95E2F77E2AB801032C02C0660FFF
:10450000771F0A94E2F761507109E72DF0E06E170A
:104510007F07B1F412964D915C911397929EF00132
:10452000939EF00D1124EF58FC4F5087478324824F
:104530001082118292878187F1E01596FC9307C063
:10454000FA0114822F5F3F4F435F5F4FACCFD9DE3C
:104550002196C37082CF09DF50DFCDB7DEB7E2E12D
:1045600008C4CF92DF92FF920F931F93CF93DF93F4
:104570006C010091AC028091A802082BC7E0D0E04A
:1045800010E0C8010C2E02C0959587950A94E2F7B9
:1045900080FD04C02197A8F7F12C09C0FC2EB601BC
:1045A0008C2F0E9401150E941E15019799F38F2DE3
:1045B000DF91CF911F910F91FF90DF90CF900895E1
:1045C000CF93DF93EC01CDDFBE010E9401150E9465
:1045D0001E15DF91CF910895292F9E3078F58630F2
:1045E00068F590E036E0239F800D911D1124682F1F
:1045F000677023E0969587952A95E1F7FC01EE0F09
:10460000FF1FE80FF91FE750FC4F40E050E080E04B
:10461000219130E0062E02C0369527950A94E2F7E4
:1046200021703327042E01C0220F0A94EAF7822B4F
:104630004F5F5F4F4330510559F7089580E008956B
:10464000292F9E3088F5863078F590E036E0239F5C
:10465000800D911D1124282F277051E001C0550FA6
:104660002A95EAF723E0969587952A95E1F7FC01CC
:10467000EE0FFF1FE80FF91FE750FC4F20E030E07E
:1046800070E04081CB01022E02C0969587950A9476
:10469000E2F78170819584278523842781932F5F9A
:1046A0003F4F2330310569F708950E949D0C0E9409
:1046B0007B0C8093AC02089521E030E001C0220F12
:1046C0008A95EAF720958091AC028223EECF21E013
:1046D00030E001C0220F8A95EAF78091AC02822B6C
:1046E000E4CFCF93C82F8091AC028C2B0E949D0CFD
:1046F000C093A802CF910895FC012481222309F1DF
:1047000087819085009719F00E941E1503C0808153
:10471000918156DF92959F70963079F010F4925007
:1047200001C09A50923068F4803F69F018F4883ED6
:1047300040F409C0843F29F406C0883E20F0813F40
:1047400011F080E0089581E008951092E9038091CE
:10475000D001813041F48091F20387FF04C08EE1E3
:10476000EFE4F3E003C086E0E7E4F3E0DF011D924D
:104770008A95E9F780E090E0C3DC80E090E09BDC84
:104780001092E8030C944116A2E1B0E0E9ECF3E2E8
:10479000E2C20A871B872C873D874E875F87688B1D
:1047A000798B8A8BCE010A960E94251781113AC017
:1047B00089E0FE013A96DE01119601900D928A95EC
:1047C000E1F76E85662371F12091B60230E0C901F0
:1047D0000196877099274091FF0250E08417950752
:1047E000A1F06D8399E0929FD001939FB00D1124A9
:1047F000A954BD4FFE01319601900D929A95E1F7B3
:104800008093B6020E94C3160DC09FDF1092B602BD
:104810001092FF02EDEAF2E089E0DF011D928A9535
:10482000E9F719C019E08091FF029091B60289174B
:1048300091F0189FC001112489549D4F0E942517A3
:10484000882349F08091FF0290E0019687709927B4
:104850008093FF02E8CF6296E4E099C2882321F0BA
:104860000E9433160C9441160895882339F09091D4
:10487000E803892B8093E8030C944116089588235C
:1048800021F00E943A160C9441160895882339F0BD
:104890009091E903892B8093E9030C9441160895C4
:1048A000882311F19CEF980F913A10F49FDB0DC013
:1048B00090E2980F983058F4877091E001C0990FFA
:1048C0008A95EAF7892F0E943A160C9441169BE5C7
:1048D000980F933018F480E090E012CC885A8B3116
:1048E00018F480E090E0E7CB0895CF93882309F493
:1048F00061C0C82F8CEF8C0F813A90F58091D00168
:104900008130E1F48091F20387FF18C0EC2FE69527
:10491000E695E695F0E0E35BFC4F8281282F30E0DE
:104920004C2F477081E090E002C0880F991F4A9594
:10493000E2F782239323892B61F40FC0E7E4F3E0CD
:104940008DE493E02191C21721F08E179F07D1F7D4
:1049500004C08C2F4BDB0E9441168C2F75DB10C0DE
:1049600080E28C0F883078F4C77081E090E001C05D
:10497000880FCA95EAF79091E903892B8093E903A0
:104980000E94411617C0EBE5EC0FE33038F4F0E07D
:10499000E05FFD4F808190E0B3DB0CC0C85ACB31A3
:1049A00048F4EC2FF0E0EE0FFF1FED5EFD4F80812D
:1049B000918181DBCF9108951F93CF93DF93182FBF
:1049C000EB0193DF209741F08FE99FE00197F1F72A
:1049D00000C000002197F6CF812F62DFDF91CF91D9
:1049E0001F910895EF92FF920F931F93CF93DF9340
:1049F000182FEB011092BC0084EA8093BC00B8DA57
:104A00007C018091BC0087FD0CC0CF3F8FEFD807A1
:104A1000C1F3C701E2DAC817D90798F78EEF9FEF05
:104A20002BC08091B900887F883041F08091B90017
:104A3000887F803119F08FEF9FEF1EC01093BB006D
:104A400084E88093BC0094DA8C018091BC0087FDDF
:104A50000AC0CF3F8FEFD807C1F3C801BEDAC8172D
:104A6000D90798F7DBCF8091B900887F883111F0A2
:104A7000803409F780E090E0CDB7DEB7E6E085C18D
:104A80001092B9008CE08093B80008950F931F93A3
:104A9000CF93DF93EB018093BB0084E88093BC004D
:104AA00067DA8C018091BC0087FD0CC0CF3F8FEF8F
:104AB000D807C1F3C80191DAC817D90798F78EEF64
:104AC0009FEF0CC02091B900287F81E090E0283250
:104AD00011F480E090E0919581959109DF91CF915B
:104AE0001F910F9108950F931F93CF93DF93EC01C4
:104AF00084EC8093BC003CDA8C018091BC0087FD83
:104B00000CC0CF3F8FEFD807C1F3C80166DAC817D2
:104B1000D90798F78EEF9FEF03C08091BB0090E01C
:104B2000DF91CF911F910F9108950F931F93CF9312
:104B3000DF93EC0184E88093BC001ADA8C01809149
:104B4000BC0087FD0CC0CF3F8FEFD807C1F3C80171
:104B500044DAC817D90798F78EEF9FEF03C080910A
:104B6000BB0090E0DF91CF911F910F910895A0E0DD
:104B7000B0E0ECEBF5E2E5C0682E762E5A01690153
:104B8000F7D94C010431110550F00F3F8FEF180792
:104B900049F0C80164E170E0BCD0EB0105C0C1E0A0
:104BA000D0E002C0C5E0D0E0BE01862D1BDF7C0155
:104BB00097FF0AC00F3F8FEF1807B1F3C4010DDA5A
:104BC0000817190788F711C0B801872D5FDF7C012E
:104BD000E501CA0CDB1CCC15DD0539F0F7FC05C07E
:104BE000B801899153DF7C01F6CF84E98093BC0042
:104BF000C701CDB7DEB7EEE0C0C0A0E0B0E0E2E0B4
:104C0000F6E29FC0782E662E7A01E901B1D95C01E7
:104C10000431110550F00F3F8FEF180751F0C80114
:104C200064E170E076D06B0107C0CC24C394D12C32
:104C300003C025E0C22ED12CB601872DD3DE4C0156
:104C400097FF0AC00F3FEFEF1E07B1F3C501C5D9AB
:104C50000817190788F727C0B801862D17DF4C0100
:104C600097FD21C0F72DF1607F2E82D95C010431C0
:104C7000110518F10F3F8FEF180719F1C80164E112
:104C800070E047D06B01B601872DACDE4C0197FD7B
:104C90001CC067012197C6018E199F098C179D07BB
:104CA00048F597FE1CC084E98093BC00C401181627
:104CB00019065CF580E090E028C0CC24C394D12C88
:104CC000E2CF85E0C82ED12CDECF0F3FEFEF1E07DD
:104CD000D1F2C50182D908171907A8F6DACFC801A1
:104CE00002DF4C0197FD02C0F6018083FFEFCF1A6F
:104CF000DF0AD1CF97FCD7CFC80117DF4C0197FD52
:104D0000D2CFCE0DDF1D8883CECFCDB7DEB7EEE09C
:104D100034C0AA1BBB1B51E107C0AA1FBB1FA617AB
:104D2000B70710F0A61BB70B881F991F5A95A9F754
:104D300080959095BC01CD0108952F923F924F929E
:104D40005F926F927F928F929F92AF92BF92CF921B
:104D5000DF92EF92FF920F931F93CF93DF93CDB724
:104D6000DEB7CA1BDB0B0FB6F894DEBF0FBECDBF9C
:104D700009942A88398848885F846E847D848C846D
:104D80009B84AA84B984C884DF80EE80FD800C8176
:104D90001B81AA81B981CE0FD11D0FB6F894DEBF59
:104DA0000FBECDBFED010895F999FECF92BD81BD33
:104DB000F89A992780B50895A6E1B0E044E050E064
:104DC00025C0A8E1B0E042E050E020C0262FF999CC
:104DD000FECF92BD81BDF89A019700B4021639F05A
:104DE0001FBA20BD0FB6F894FA9AF99A0FBE08952B
:104DF0000396272FECDFEADF252FE9DF242FE7CF0B
:104E00000196272FE4DFE2CFDC01CB01FC01F99909
:104E1000FECF06C0F2BDE1BDF89A319600B40D9206
:104E200041505040B8F70895EE0FFF1F0590F491E0
:104E3000E02D0994FB01DC0104C08D9101908019E3
:104E400021F441505040C8F7881B990B0895F894FD
:024E5000FFCF92
:104E5200371E3A1F351F361E301F4D1F200000001F
:104E6200000000007F0B4B0C960A000000000000BF
:104E720000000000630B370C7E0A000000000000F7
:104E8200000000004B0B230C660A0000000000002B
:104E920000000000330B0F0C4E0A0000000000005F
:104EA200000000001B0BFB0B360A00000000000094
:104EB20000000000030BE70B1E0A000000000000C8
:104EC20000000000E90AD30B060A000000000000FF
:104ED200000000007D0BBF0BEE0900000000000087
:104EE2000000000000004D093B0900000000000026
:104EF200000000007B0BAB0BD60900000000000095
:104F02000000000000004409320900000000000017
:104F120000000000010B970BBE090000000000001A
:104F22000100920546000000008C054600000000CA
:104F320001F0F1F4F5F6F700000000000000303156
:104F42003233929366010101010101010000000068
:104F5200000000367076706E2F4A617A79717A009D
:104F6200818283E200E900EA00B500B600B700CD15
:104F7200008301CC008A01920194012102230224C0
:104F8200022502260227022A02B300B4006F007033
:104F9200009F01CB019F02A00244226D79045704B5
:084FA200EA03CF04E80408054E
:00000001FF
