:100000000C94C9020C94E6020C94E6020C94E602ED
:100010000C94E6020C94E6020C94E6020C94E602C0
:100020000C94E6020C94E6020C9443180C94851789
:100030000C94DA1F0C94E6020C94E6020C94E6028F
:100040000C94E6020C94E6020C94E6020C94E60290
:100050000C94E6020C94991F0C94E6020C94E602B0
:100060000C94E6020C94E6020C94E6020C94E60270
:100070000C94E6020C94E6020C94E6020C94E60260
:100080000C94E6020C94E6020C94E6020C94E60250
:100090000C94E6020C94E6020C94E6020C94E60240
:1000A0000C94E6020C94E6020C94E602D206D70603
:1000B000E106D506DA06DF06DD06550CC90C5D0C37
:1000C000270C2B0C610C2E0C640C6F0C390CBF0C24
:1000D0003D0C730C410C770CA10C450C7B0CAB0C4C
:1000E0004B0C810C8B0C320C680C350C6B0C500CCF
:1000F000860C970CB70CB90C230C590CD20C110DB3
:10010000170DAB0B0B0D1D0D230D290D0A0E0A0E3D
:100110003A0E3A0EB40EC10FC10FC10FD20E460FE8
:10012000570F570F9115B8156D17B8156D170416A1
:1001300027166D1728173817000000000000000070
:1001400000000000000000000000000000000000AF
:100150000000000000000000000000007E0F00D43E
:10016000FFFFFFC700000078000000000000000053
:100170002A2B280000000000000000000000000002
:1001800000000029000000002C1E3420212224340D
:100190002627252E362D3738271E1F2021222324DF
:1001A00025263333362E37381F0405060708090A7B
:1001B0000B0C0D0E0F101112131415161718191A17
:1001C0001B1C1D2F3130232D350405060708090A95
:1001D0000B0C0D0E0F101112131415161718191AF7
:1001E0001B1C1D2F3130354C0102E30101140103AA
:1001F000E30005010980A101850319012AB7001553
:100200000126B700950175108100C0050C0901A1F8
:1002100001850419012AA002150126A00295017585
:10022000108100C005010906A1018506050719E036
:1002300029E71500250195087501810205071900B8
:1002400029EF1500250195F07501810205081901B6
:100250002905950575019102950175039101C00667
:1002600060FF0961A1010962150026FF0095207554
:100270000881020963150026FF0095207508910288
:10028000C005010906A101050719E029E7150025A8
:10029000019508750181029501750881010507190D
:1002A0000029FF150026FF00950675088100050846
:1002B0001901290515002501950575019102950182
:1002C00075039101C009025B00030100A0FA090453
:1002D0000000010301010009211101000122440075
:1002E0000705810308000109040100020300000062
:1002F00009211101000122220007058203200001CB
:1003000007050303200001090402000103000000A7
:10031000092111010001226D00070584032000015D
:100320001201000200000008973274490001010226
:1003300003011A0336007000760070006E002F0073
:100340006C0062007A0042004C0065000000160359
:100350004500720067006F0064006F0078002000A5
:1003600045005A00000028035A00530041002000B5
:1003700054006500630068006E006F006C006F0041
:100380006700790020004C006100620073000000EB
:100390000403090439002B002900427EE00000001C
:1003A0001E00140004001D00E3004D001F001A0091
:1003B00016001B00E200394120000800070006007B
:1003C00038022C00005715000900190038004A00B7
:1003D000220017000A0005000000B3000157025771
:1003E000000003570000417E4C0061520000065798
:1003F0000000447E23001C000B0011000000B931F6
:10040000240018000D0010001E144B0025000C00E5
:100410000E00360030022800260012000F003700C0
:1004200050004C41270013003300520051004E0091
:100430002A0004570557437E4F00000029000100A1
:100440000857E100E00000003A001E0220142202DA
:100450000100037C3B001F1421022F020100010058
:100460003C00341425022F1464002C003D0032148B
:1004700026023014640201003E001E142F002114D5
:10048000000001000757E200000001000000007CAE
:100490004C000100000001000000BE003F005200BF
:1004A000510023020000BD004000240021001E0076
:1004B0000100A9004100250022001F00370047006D
:1004C00042002600230020002700010043003002E4
:1004D000300035142702AA002A0044004500E50038
:1004E0000100000029002B003900E100E0000000BD
:1004F0001E00140004001D00E30001001F001A008C
:1005000016001B0001000100200008000700060083
:1005100001002C002100150009001900E200010073
:10052000220017000A000500000001000957010021
:1005300000001000000001004C000A5700000B579B
:100540000000010023001C000B001100000001004E
:10055000240018000D0010000100010025000C000F
:100560000E00360001000100260012000F003700C7
:100570005000010027001300330052005100010019
:100580002A0001000100E5004F0000003802380099
:10059000000011241FBECFEFDAE0DEBFCDBF12E0B6
:1005A000A0E0B1E0EAEEFEE402C005900D92AC34AA
:1005B000B107D9F724E0ACE4B2E001C01D92A0314C
:1005C000B207E1F70E94F40F0C9473270C9400001B
:1005D0009C013A9521153F4130F5BC0166277270A8
:1005E000AC01442754709C012227387094FF0FC03F
:1005F00090FF02C080E101C080E0672B09F08062BB
:10060000452B09F08064232B79F080680895892FA9
:100610008170672B09F08260452B09F08460232BE1
:1006200019F08860089580E00895FC01828181308E
:1006300039F4958192FD12C090FF10C082E00895B8
:10064000823039F4858182FD06C080FD06C083E0DA
:10065000089586E0089585E0089584E0089590E087
:10066000FC01E751FE4F208121111AC0F894FC01D2
:10067000E552FE4F8081E82FE295EF70F0E031A166
:10068000282F2F7081E090E001C0880F2A95EAF7AB
:10069000982F9095932391A392A1892B82A378946C
:1006A00008958FE39CE90197F1F700C000001092D4
:1006B000650208958FE39CE90197F1F700C00000FF
:1006C000109261020895CF93DF93EC010E945924A8
:1006D000CE01805E9109089710F0209731F4CE0189
:1006E0000E94E8020E94482405C0CE010E94E80250
:1006F0000E943724DF91CF9108958FE39CE9019701
:10070000F1F700C0000080916702833029F0853046
:1007100031F0813041F403C08EE292E002C08DE2FC
:1007200092E00E9463031092670208958FE39CE9B0
:100730000197F1F700C0000080916302833029F037
:10074000853031F0813041F403C08BEA90E002C083
:100750008EEA90E00E9463031092630208958FE393
:100760009CE90197F1F700C0000080915F0283309F
:1007700029F0853031F0813041F403C08BEA90E0FC
:1007800002C08EEA90E00E94630310925F02089517
:100790008FE39CE90197F1F700C0000080915D02B2
:1007A000833029F0853031F0813041F403C08EE28E
:1007B00092E002C08DE292E00E94630310925D021B
:1007C00008958FE39CE90197F1F700C00000809144
:1007D0005B02833029F0853031F0813041F403C071
:1007E0008DE290E002C084E390E00E9463031092E7
:1007F0005B0208958FE39CE90197F1F700C00000C8
:1008000080915902833029F0853031F0813041F4F4
:1008100003C085E394E102C084E292E00E94630396
:100820001092590208958FE39CE90197F1F700C0F7
:10083000000080915702833029F0853031F08130FB
:1008400041F403C08EE290E002C08EE192E00E948B
:1008500063031092570208958FE39CE90197F1F723
:1008600000C0000080915502823021F482EE90E0B9
:100870000E9463031092550208958FE39CE901974B
:10088000F1F700C0000080915302833029F08530D9
:1008900031F0813041F403C08BEA90E002C08EEA6F
:1008A00090E00E9463031092530208958FE39CE945
:1008B0000197F1F700C0000080915102833061F090
:1008C00018F4813049F00CC0843019F0853021F0E3
:1008D00007C08DE394E002C081E290E00E946303D0
:1008E000109251020895CF93DF93EC01805E91093D
:1008F000089710F0209731F4CE010E94E8020E9480
:100900004F2405C0CE010E94E8020E943E248C2F95
:100910000E948324DF91CF9108950F931F93CF936B
:10092000DF938C01C99719F0C0E0D0E002C0C0E5A8
:10093000D0E0C8010E947304209741F08FE99FE046
:100940000197F1F700C000002197F6CFC8010E947F
:100950006303DF91CF911F910F910895CF93DF93A0
:10096000EC018A81833061F48DE292E00E948D0473
:100970008DE292E00E948D048DE292E00E948D044F
:100980008A81843020F08DE292E00E948D04DF9114
:10099000CF9108950E94AE040895CF93DF93EC01A8
:1009A0008A81833061F484E390E00E948D0484E3C3
:1009B00090E00E948D0484E390E00E948D048A817F
:1009C000843020F084E390E00E948D04DF91CF9189
:1009D0000895CF93DF93EC018A81833061F484E240
:1009E00092E00E948D0484E292E00E948D0484E2F1
:1009F00092E00E948D048A81843020F084E292E0AB
:100A00000E948D04DF91CF910895CF93DF93EC0185
:100A10008A81833061F48EE192E00E948D048EE140
:100A200092E00E948D048EE192E00E948D048A8102
:100A3000843020F08EE192E00E948D04DF91CF910E
:100A40000895CF93DF93EC018A81833061F48EEABD
:100A500090E00E948D048EEA90E00E948D048EEA60
:100A600090E00E948D048A81843020F08EEA90E02C
:100A70000E948D04DF91CF9108950E942105089571
:100A80000E9421050895CF93DF93EC018A81833082
:100A900061F481E290E00E948D0481E290E00E9486
:100AA0008D0481E290E00E948D048A81843020F0E0
:100AB00081E290E00E948D04DF91CF9108950E9421
:100AC000150380936702833029F0853031F081303F
:100AD00061F407C08EE292E006C08DE292E00E94CF
:100AE0008D048DE292E00E94730408950E94150324
:100AF00080936302833029F0853031F0813061F4D6
:100B000007C08BEA90E006C08EEA90E00E948D0458
:100B10008EEA90E00E94730408950E94150380936A
:100B20005F02833029F0853031F0813061F407C0F5
:100B30008BEA90E006C08EEA90E00E948D048EEA77
:100B400090E00E94730408950E94150380935D0253
:100B5000833029F0853031F0813061F407C08EE2B6
:100B600092E006C08DE292E00E948D048DE292E058
:100B70000E94730408950E94150380935B028330E2
:100B800029F0853031F0813061F407C08DE290E0CA
:100B900006C084E390E00E948D0484E390E00E940C
:100BA000730408950E94150380935902833029F03D
:100BB000853031F0813061F407C085E394E106C0EF
:100BC00084E292E00E948D0484E292E00E94730429
:100BD00008950E94150380935702833029F08530D1
:100BE00031F0813061F407C08EE290E006C08EE102
:100BF00092E00E948D048EE192E00E9473040895B9
:100C00000E94150380935302833029F0853031F020
:100C1000813061F407C08BEA90E006C08EEA90E074
:100C20000E948D048EEA90E00E94730408950E9451
:100C3000150380935102833049F018F4813091F00C
:100C40000895843041F0853049F0089581E290E0C4
:100C50000E94730407C08DE394E006C081E290E037
:100C60000E948D0481E290E00E94730408950E9426
:100C7000150380936502843019F481E00E945D239E
:100C800008950E94150380936102833019F484E073
:100C90000E945D2308950E941503809355028230BF
:100CA00019F0833031F0089582EE90E00E947304D1
:100CB000089582E00E945D230895982F92959F7079
:100CC00019F0892F24E001C020E0982F9695969581
:100CD00011F02E5F892F982F969509F02F5F822FA4
:100CE0000895A6E0B0E0E7E7F6E00C94E026FC010A
:100CF00087819085009709F5CF0126E0DE011196E6
:100D000001900D922A95E1F7FC01258189819A8154
:100D1000222359F0662349F00E94B822182F682F29
:100D200089819A810E94282303C00E94F422182FEF
:100D300069817A81812F0E94801A2696E3E00C94C3
:100D4000FC2627982F982F98089526982E982E984D
:100D5000089525982D982D980895279A2F9A0895EB
:100D6000269A2E9A0895259A2D9A0895A0E2B0E029
:100D7000ECEBF6E00C94DF26082F0E945D06182F9E
:100D80005E980E94A9060E94A5060E94A106812FD6
:100D900090E0FC013197E730F105A8F4EA5AFF4FE3
:100DA0000C9460270E94B3060EC00E94B3060E94F6
:100DB000B00609C00E94B30604C00E94B3060E9498
:100DC000B0060E94AD0680919D028823D9F08091E3
:100DD0004F021817B9F010934F028FE39CE9019767
:100DE000F1F700C0000085E0898380914F028A837B
:100DF0008EEF8B8340E250E0BE016F5F7F4F82E059
:100E00000E94171F802FA096E4E00C94FB26A0E21E
:100E1000B0E0EDE0F7E00C94E1269FEF99838A8340
:100E200040E250E0BE016F5F7F4F82E00E94171FDB
:100E3000A096E2E00C94FD26A1E0B0E0E2E2F7E04B
:100E40000C94DF268730F8F420910A0130910B01D1
:100E5000232BD1F521E030E0A90102C0440F551F3A
:100E60008A95E2F7CA01809589830AE010E0AE0115
:100E70004F5F5F4F62E180E40E94D62590930B01A3
:100E800080930A0121C090E0FC01E751FE4F2081D0
:100E900021111AC0F894FC01E552FE4F8081E82F21
:100EA000E295EF70F0E031A1282F2F7081E090E003
:100EB00001C0880F2A95EAF7932F982B91A392A14E
:100EC0008095892382A378942196E4E00C94FB26F4
:100ED0000F931F93CF9300EF11E0C7E0F8018191CA
:100EE0008F01811103C08C2F0E942F03CF5FCE3062
:100EF000A9F7CF911F910F910895A1E0B0E0E3E829
:100F0000F7E00C94DF26082F8730C8F480910A019F
:100F100090910B01892BE9F519820AE010E021E09C
:100F200030E0AE014F5F5F4F63E180E40E94242612
:100F300090930B0180930A01898180952BC00E94B8
:100F40001C07A5EDB1E020E030E010E051E04D914C
:100F5000E42FE295EF70F0E080A190E04F7002C0C6
:100F6000959587954A95E2F780FD07C0852F022E5B
:100F700001C0880F0A94EAF701C080E0182B2F5FA8
:100F80003F4F2630310519F7802F0E942F03812F04
:100F900001C080E02196E4E00C94FB26CF93DF9320
:100FA000A5EDB1E04BED51E061E070E0F8948D917A
:100FB000E82FE295EF70F0E021A18F70EB0102C005
:100FC000CC0FDD1F8A95E2F7CE019C2F90959223DE
:100FD00091A392A1892B82A378944A175B0731F7DA
:100FE000DF91CF910895A2E0B0E0E9EFF7E00C9433
:100FF000DF2680E290E090930B0180930A018091BC
:101000004E0281110EC00E94592581E080934E024C
:101010002FEF83ED90E3215080409040E1F700C036
:10102000000019828FE38A830AE010E022E030E0BA
:10103000AE014F5F5F4F60E080E40E94D625909341
:101040000B0180930A01892B69F422E030E0AE01A4
:101050004F5F5F4F6CE080E40E94D62590930B01B8
:1010600080930A0180910A012296E4E00C94FB2609
:10107000AFE2B0E0EEE3F8E00C94D4264AA75BA719
:101080006CA77DA78EA79FA791111092DE03CE01BA
:10109000819629E0DC011D922A95E9F726E0FE0100
:1010A000BA96DC0101900D922A95E1F72DA121114C
:1010B0000CC009A11AA12BA13CA14DA15EA16FA159
:1010C00078A589A50E94CA23DEC161E00E9471064D
:1010D0007C0180919D028823A9F08EA1811102C01C
:1010E00087E001C086E0898389A18A838AA18B83F6
:1010F0008EEF8C8340E250E0BE016F5F7F4F82E055
:101100000E94171FB0E5EB16BCE7FB0639F48EA171
:10111000882309F181E08093D40118C0E1E5EE163F
:10112000ECE7FE0631F48EA18823A9F00E9411227B
:101130000DC0F2E5EF16FCE7FF0669F48EA18823E7
:1011400051F08091D401882329F3F0CF81E090E021
:1011500080FDAFCF98C16091CD017091CE01CC24BC
:10116000CA94DC2C90E0492F50E0FA01EE0FFF1FEB
:10117000E60FF71F25913491E216F30609F46A0190
:10118000232B11F09F5FEFCF2FEFC216D20609F489
:1011900029C14091D101411104C01091D401212FE6
:1011A00002C020E030E0122F11703EA12091D20148
:1011B0008091D301332309F4B3C0112309F4B0C0E3
:1011C000211117C021E030E00C2C01C0220F0A943D
:1011D000EAF7822B8093D30120916303309164035B
:1011E0002233310530F422E330E03093640320935E
:1011F000630321E030E0A90102C0440F551F9A9516
:10120000E2F7CA0101972091D30130E082179307DA
:1012100009F0E9C08091D9039091DA03009729F091
:101220000E94BF1FC39708F027C18091D703009188
:10123000D8038090CD017090CE01982FE0E0F0E0CF
:1012400067E099249394801709F456C0482F50E022
:10125000FA01EE0FFF1FE153FC4FA081B1816A9F9D
:10126000F0016B9FF00D1124E353FE4F608051801D
:1012700070E020E030E0E62DF52DE30FF11DE30FE7
:10128000F11DC590D490C114D104A1F020E0E82D47
:10129000F72DE20FF11DE20FF11DA590B490A114FE
:1012A000B10431F0CA14DB0409F471E02F5FEFCF11
:1012B0003F5FE1CF7723C9F0231708F4DBC06A9FB3
:1012C000F0016B9FF00D1124E353FE4F309779F03E
:1012D0009482A1E0ED3CFA0709F4D2C0891307C05B
:1012E000CA010196982F937002C0E0E0F0E04F5FD2
:1012F0005F4F842F8370A7CF9093D703ED5CF140AD
:1013000009F471C090E0FC01EE0FFF1FE153FC4FA8
:10131000118210820196837099278093D80363C04D
:10132000211116C021E030E002C0220F331F9A9530
:10133000E2F72150310990E02817390709F043C03E
:10134000442309F441C080E090E00E948C213BC01E
:1013500090E09C0121503109282339230C2C02C034
:10136000959587950A94E2F7232B51F580FF28C0C5
:101370008091CF019091D001892BF1F0FE0131963F
:1013800089E0DF011D928A95E9F70E94CE1F282F80
:101390008B839C8384E08D838091CF019091D001D9
:1013A000782F8887998709811A813C8144E05E8182
:1013B0006F81892F0E94CA231092D20111E004C0CC
:1013C000182F117001C010E081E090E00C2C01C0DA
:1013D000880F0A94EAF780959091D301892380932E
:1013E000D30101C010E08EA1882379F1112369F1A6
:1013F0000E94CE1F9093DA038093D90380916603F5
:101400008830A0F591E0980F9093660399E0FE0173
:10141000B196DE01119601900D929A95E1F7BDE02B
:101420008B9FC001112489599C4F29E0FE01319600
:10143000DC0101900D922A95E1F72FEF3FEFFC01BF
:1014400032872187F486E38611C09091D70380917B
:10145000D803981719F00E94202208C00E94BA21D0
:101460001092DA031092D9030E94042281E0182717
:10147000812F6ECE9093D70381E08093D101B3CFBB
:101480009093D703B0CFAF96EFE00C94F026A0E096
:10149000B0E0EDE4FAE00C94D526FC01248122238F
:1014A00009F49DC57C0161E00E947106EC01F70121
:1014B0008581882309F4F8C28091E0039091E103CB
:1014C000009709F45EC0C817D90709F45AC09927D4
:1014D00054E0880F991F5A95E1F7FC01EF5EFE4F2B
:1014E000208124602083845F9E4FFC01D183C083D0
:1014F0000E94DE201092DE0361E0C7010E947106A7
:10150000EC0181159E4709F040C0F70185818823D1
:1015100009F4CFC29091790281E0890F8770987F9A
:10152000853020F4892B8093790202C09093790250
:10153000809179028770FFEF8F9FC00111249595EC
:101540008795959587959927909389008093880032
:1015500090938B0080938A0090938D0080938C00F1
:101560004091790250917A0260917B0270917C02E5
:101570008FE090E00E943E278091A0020E94B60674
:1015800098C2C115FEE7DF0729F2C2342EE7D20761
:1015900009F4C9C028F4C1344EE7D40761F0E4C0AF
:1015A000C3345EE7D50709F4C4C0C4348EE7D80756
:1015B00009F4C5C0D9C0F7018581882309F421C188
:1015C00008EE11E03AE0632EF8012491222309F499
:1015D00018C1213009F049C031968491813061F4FD
:1015E0000E5F1F4FF8018491893319F460E570E0B4
:1015F00093C060E070E090C0823039F40E5F1F4FFE
:10160000F80184910E9483248BC0833039F40E5FEB
:101610001F4FF80184910E94592482C0843009F040
:101620007EC00E5F1F4FF801249180E090E030E013
:10163000205331092A30310568F4689EA001699E63
:10164000500D1124C901840F951F0F5F1F4FF80122
:101650002491EDCF009709F463C0EFE9FFE03197E3
:10166000F1F700C000000197F5CFE22FF0E0E85954
:10167000FE4F7490822F86958695869590E0FC01AA
:10168000E85AFE4FA4902770B12C022E02C0B594E8
:10169000A7940A94E2F7F1E0AF22BB24FC01E85BD7
:1016A000FE4F8490912C022E02C0959487940A9448
:1016B000E2F731E083229924FC01E85CFE4FC490FC
:1016C000D12C02C0D594C7942A95E2F741E0C422F8
:1016D000DD24A114B10419F081EE0E948324811449
:1016E000910419F086EE0E94832460E070E0872D5B
:1016F0000E94EE248114910419F086EE0E94592470
:10170000A114B10419F081EE0E945924C114D1042E
:1017100039F060E070E08CE20E94EE2401C08F019D
:101720000F5F1F4F51CF05E221EE41EE62E47EE7ED
:1017300017C006E221EE41EE63E47EE711C0F70137
:101740008581882319F081E292E002C080E090E078
:101750000E94682097C106E221EE41EE6AE17CE733
:10176000C7010E9408218EC1CE0197558F3F910578
:1017700011F008F03FC06E01DD24C60124E0880F9F
:10178000991F2A95E1F78C01045F1E4FF70125810F
:10179000AC014F5E5E4F6A01FA01808120FB80F947
:1017A0008083F7018581882309F415C10E94CE1F2B
:1017B00090939B0280939A02F80182818F5F8283CB
:1017C0009091DE038091DF03892B838380910C034A
:1017D00084834681578166857785C8010E94BF2032
:1017E000F601808181FFF4C090E080E09093E003F7
:1017F0008093E103FE01E851FC47E730F10508F46E
:1018000006C1F7018581882309F4A8C11092DD0380
:10181000CE019057839708F022C184E090E00E94A7
:1018200016279093E9038093E803FE01E150F04707
:10183000E232F10520F4E35AFF4F0C9460278091C7
:10184000E8038160ACC08091E9038860B4C08091F6
:10185000E8038260A4C08091E80320C08091E8037F
:1018600088609DC08091E9031EC08091E903826079
:10187000A2C08091E803806192C08091E8038062F9
:101880008EC08091E80380648AC00E94A823809162
:10189000E803806884C08091E803886084607FC02A
:1018A0008091E9038260816086C08091E8038E7F29
:1018B00076C08091E903877F7EC08091E8038D7FA9
:1018C0006EC08091E80320C08091E803877F67C0E5
:1018D0008091E9031EC08091E9038D7F6CC08091E7
:1018E000E8038F7E5CC08091E8038F7D58C08091B3
:1018F000E8038F7B54C00E94A8238091E8038F7770
:101900004EC08091E803877F8B7F49C08091E903B7
:101910008D7F8E7F50C08091E80382FB222720F9C3
:1019200091E0922790FB82F990FB83F938C0809177
:10193000E903982F909591708E7F892B90FB81F908
:101940003AC08091E80386FB222720F991E0922794
:1019500090FB86F924C00E94A8238091E80387FBAE
:10196000222720F991E0922790FB87F918C061E0C7
:1019700001C060E08EE090E00E942C271EC08091A4
:10198000E80384FB222720F991E0922790FB84F959
:1019900006C08091E803982F909590FB80F9809382
:1019A000E8030BC08091E90383FB222720F991E033
:1019B000922790FB83F98093E9036091E80370918B
:1019C000E90384E090E00E944A270E94A8235AC0BD
:1019D0009C2F8D2F0BCFF801448555856685778523
:1019E000C8010E94BF20F601808181FF03CFC8019A
:1019F0000E94C5208091E0039091E103C817D907A8
:101A000009F0F8CE1092E1031092E003F3CEE15812
:101A1000FF4F0C94602707E225EE45EE6BE17CE773
:101A20009FCE06E221EE40EE68E17CE799CE07E228
:101A300025EE44EE69E17CE793CE06E221EE42EE2C
:101A40006CE17CE78DCE07E225EE46EE6DE17CE7AA
:101A500087CE08E221E045EE6EE17CE781CEC6311B
:101A60002CE7D20749F58091DF038A7A91E009F4E7
:101A700090E0909368028111A6C289E20E94312011
:101A80000E94C81B80910B03877009F4A8C2F7015C
:101A90008581882309F4A3C28091E90382FF9FC254
:101AA00082E00E941A1C9BC2C1153EE7D30709F0D1
:101AB0006CCDC0E0DEE7A5CEC330FCE7DF0771F1F7
:101AC00090F4C1153CE7D307D9F0C130DC4709F0E9
:101AD00049C00E94A8233FEF44E35CE031504040FE
:101AE0005040E1F72AC0CB355CE7D50799F1CC35FA
:101AF0008CE7D80739F1CA35DC47A1F581E02BC066
:101B00000E94A823EFEFF4E32CE0E150F0402040E6
:101B1000E1F700C000000E94671FB4CF6FEF7FEFB6
:101B200080E090E00E944A270E94A8238FEF94E370
:101B3000ECE081509040E040E1F700C000000E94DE
:101B40005C1FA0CF8091E90382FB882780F991E098
:101B5000892701C080E00E94311C04C0C631DC47E7
:101B600009F433C2F701878190850097B9F4F70132
:101B70008581C081D181882349F0CE010E94B8229D
:101B8000182F682FCE010E94282304C0CE010E9486
:101B9000F422182FBE01812F0E94801A0E949D1AE4
:101BA000D82FC92FF7011581068102950F708091FA
:101BB0000B038770F9F01123E9F0892F807F8034BF
:101BC00061F080E28D0F8830A8F0892F807E80320E
:101BD00021F4D23078F0002369F08091E90382FF8C
:101BE00009C082E00E941A1C80910B038770DD24DB
:101BF000D3948111D12CCC2EC2948FE0C8228C2D8D
:101C000090E08C30910508F0BCC1FC01EA57FF4F11
:101C10000C9460278C2F807FCF70882311F0C295A1
:101C2000C07F1123B9F0CC2309F499C180E28D0F54
:101C3000883010F0D11106C09091DF03C92BC093FA
:101C4000DF0305C09091DE03C92BC093DE030E9421
:101C5000C81B85C18D2F0E945924CC2309F491C142
:101C600080E28D0F883060F1DD2351F18C2F0E94CE
:101C7000BA1B29C08C2F807FCF70803211F0C295A3
:101C8000C07FDD2321F0D13009F44CC054C08091D5
:101C9000E90382FD1BC0112369F0CC2339F0909138
:101CA000DF03C92BC093DF030E94C81B80E00E94A2
:101CB000832467C180E00E945924CC2309F461C1C8
:101CC0008C2F0E94C11B0E94C81B5BC1112381F095
:101CD0000023A9F1013009F054C190910C038C2F1D
:101CE0008923C81709F44DC1C92BC0930C0349C1FE
:101CF000011147C18C2F0E94482480910C039C2F16
:101D0000982329F09C2F9095892380930C03909120
:101D100069028C2F892309F434C1C095C923C0936B
:101D200069022FC1112321F0023008F02AC107C037
:101D3000011127C115C0112331F0011110C18C2FE1
:101D40000E944F241EC1002359F0D93309F016C157
:101D5000FFEF27EE33E0F15020403040E1F70CC1B7
:101D60008C2F0E9448240DC18C2F869586958370F8
:101D700019F0813061F005C1112321F08D2F9C2FC6
:101D8000937002C080E090E00E948D2000C111237A
:101D900021F08D2F9C2F937002C080E090E00E9474
:101DA0006820F5C08C2F8370A9F51111EEC04D2F5E
:101DB000429546954770440F440F8D2F8F7090E0E9
:101DC0009C01042E01C0220F0A94EAF7D4FF08C038
:101DD0008FE090E001C0880F4A95EAF7809501C036
:101DE00080E0C695C695C370C23069F088F49091C2
:101DF0007802C13019F0822B892302C0922B892BE3
:101E00000E947B23C2C0822B909178028927F8CF51
:101E1000822BF6CF112319F08C2F817001C086958B
:101E2000882309F4B2C04D2F429546954770440F60
:101E3000440F8D2F8F7090E09C01042E01C0220F63
:101E40000A94EAF7D4FF08C08FE090E001C0880F41
:101E50004A95EAF7809501C080E0C695C695C370A3
:101E6000C23059F078F49091A002C13019F0822B61
:101E7000892309C0922B892B06C0822B9091A00246
:101E8000892701C0822B0E945D237FC0CF70112360
:101E900039F08C2F0E946F238D2F0E944F2475C024
:101EA0008D2F0E9448248C2F0E9462236EC0D23F47
:101EB00039F128F4D03F41F0D13FE9F04CC0D33F95
:101EC00031F1D43FA1F047C0112369F0011159C08D
:101ED000CF7181E090E001C0880FCA95EAF7909138
:101EE000A00289271EC0023008F04BC0F1CF8091BC
:101EF000E90382FD19C0112329F08C2F8F711FC0B7
:101F00001123D9F38C2F8F710E9462233AC01123C1
:101F100039F0CF7181E001C0880FCA95EAF701C09E
:101F200080E00E945D232DC0112361F08C2F8F7102
:101F300048E0849F90011124236020930B030E94AA
:101F40006F231FC081E00E941A1C0230D0F082E093
:101F50000E941A1C16C0112321F0002371F28D2F4C
:101F6000A6CE002379F2D93349F45FEF87EE93E0F0
:101F7000515080409040E1F700C000008D2F0E943A
:101F8000592488EF8C0D843010F40E94B220DD209B
:101F9000A9F080910B0380FD11C0F7011582869591
:101FA000869586950E946F23C7010E94470A8091FB
:101FB0000B038695869586950E94622360E0C70193
:101FC0000E9471060CC085E359CD80916802811191
:101FD00004C089E20E94032053CD85E3FBCFCDB737
:101FE000DEB7EEE00C94F126A6E4B0E0EAEFFFE005
:101FF0000C94D52685B7806885BF85B7806885BF76
:1020000084B7877F84BF0FB6F894A895809160004D
:10201000886180936000109260000FBE90E080E8BD
:102020000FB6F89480936100909361000FBE8DE429
:1020300099E190934D0280934C020E94C9170E942F
:10204000E8178091E20084608093E20078948091A8
:10205000AE028823A1F01091E9001F709091EC006E
:10206000892F817090FD80E8182B1092E9008091F3
:10207000E80083FD0E94AE141F701093E90082E017
:1020800084BD93E095BD9AEF97BD80936E000E944A
:10209000F30790E090930B0180930A010E94680778
:1020A0000E94CE07EAE6F2E0ADE7B2E011921D929F
:1020B00022E0E837F207D1F780E090E00E9416278F
:1020C000853E9E4F09F46EC065EE7EEF80E090E0A5
:1020D0000E944A2760E082E090E00E942C2781E085
:1020E0008093780261E083E090E00E942C2760E01A
:1020F00074E184E090E00E944A2760E086E090E08E
:102100000E942C2760E087E090E00E942C2740E0AE
:1021100050E0BA0188E090E00E943E2760E083E250
:1021200090E00E942C2760E08CE090E00E942C2739
:1021300060E08DE090E00E942C2719821A821B82B9
:102140001C821D821E821F82188648E050E067E1D3
:1021500070E0CE0101960E941C2740E050E0BA01D9
:102160008FE190E00E943E271092790210927A024D
:1021700010927B0210927C0284E08093790240915D
:10218000790250917A0260917B0270917C028FE01B
:1021900090E00E943E2740E050E0BA0183E190E0E9
:1021A0000E943E2782E090E00E94082780938B02E5
:1021B00084E090E00E9416279093E9038093E8035F
:1021C0000E94891EFFEF23EF81E0F1502040804004
:1021D000E1F700C000000E94891E80917D0280FF0F
:1021E00008C06FEF7FEF80E090E00E944A270E94D6
:1021F000671F83E090E00E9408270E947B23809164
:10220000A0020E94B60689EA8093800089E080934C
:10221000810024982C983F98479A54985C9A559836
:102220005D9A6E98769A569A8FE090E00E941027F9
:102230006093790270937A0280937B0290937C0280
:1022400067701FEF169FB0011124759567957595FE
:1022500067957727709389006093880070938B004F
:1022600060938A0070938D0060938C005E980E944A
:10227000A9060E94A5060E94A1068FEF90E0909308
:1022800089008093880090938B0080938A009093BC
:102290008D0080938C000E94B3069FEFE0E7F2E090
:1022A0009150E040F040E1F700C000000E94B0060D
:1022B0002FEF80E792E0215080409040E1F700C08E
:1022C00000000E94AD06EFEFF0E722E0E150F040A1
:1022D0002040E1F700C000000E94A9068FEF90E7C0
:1022E000E2E081509040E040E1F700C000000E9431
:1022F000A506FFEF20E782E0F15020408040E1F7A3
:1023000000C000000E94A106809179028770189F8A
:10231000C001112495958795959587959927909358
:1023200089008093880090938B0080938A0090931B
:102330008D0080938C005E980E94A9060E94A506DD
:102340000E94A10680E091E09093E5038093E4036E
:1023500008E110E08091AE02853009F058C050E4E9
:10236000B52E6BE8E62E62E0F62E70E1C72EE2E1B4
:10237000DE2E8091AE02853009F045C08091AE021C
:10238000843009F11092EA030FB6F894A8950093EF
:1023900060000FBEB092600083B7817F846083BF0E
:1023A00083B7816083BF7894889583B78E7F83BF1E
:1023B0000FB6F894A89580916000886180936000C2
:1023C000109260000FBE8091AD02882391F20E94AE
:1023D000F30790E090930B0180930A010E94680735
:1023E0000E94CE07EDE7F2E01192EE16FF06E1F74C
:1023F0000E94891EEDE7F2E081918111C4C1EE16C1
:10240000FF06D1F7B6CF0E94A8230E94B2200E94F7
:10241000891E4CE8C42E42E0D42E2AE932E0ADE712
:10242000B2E0F60191918D9189272E173F0719F09F
:102430008823C1F305C0811103C00E94651E55C0E9
:102440003DE7832E32E0932EF12CF40171904F0181
:10245000F601A080A724B9F1E12CBB24B394662433
:1024600063948A2D8B2141F12296EFAE2297239619
:10247000FFAE23970E94CE1F25969FAF8EAF259764
:1024800026966FAE269791E0872D8B2109F490E078
:1024900027969FAF279722964FAD229723965FAD41
:1024A000239724966FAD249725967FAD2597269682
:1024B0008FAD26970E943808E394BB0CF6E0EF122C
:1024C000D0CFF6017082F394FFEFCF1ADF0A2EE02F
:1024D000F212BBCF8FB7F8944091EB035091EC030D
:1024E0006091ED037091EE038FBF8091E0039091B6
:1024F000E103892BE9F080919A0290919B020E945E
:10250000BF1F893C9105A0F08091E0039091E10309
:10251000992724E0880F991F2A95E1F7FC01EF5EC7
:10252000FE4F208122FD04C0845F9E4F0E94DE206A
:102530008091D401882341F18091D9039091DA03ED
:10254000009711F10E94BF1F209163033091640333
:1025500028173907C8F49091D7038091D8039817AA
:1025600059F00E942022109264031092630310928B
:10257000DA031092D90308C00E94BA211092DA033C
:102580001092D9030E9404220E94B22090919C02D2
:10259000891769F080939C028FB7F8944091EB0300
:1025A0005091EC036091ED037091EE038FBF809129
:1025B000AE02843009F0D6C083E08093E9008091B8
:1025C000E80082FFCFC08091E80085FF24C00E9410
:1025D0001A1981111EC080E2E82EF12C6E0181E2F1
:1025E000C80ED11C09C08091F100F60181936F01E2
:1025F000F1E0EF1AF10869F08091E80085FDF3CF72
:102600008091E8008B778093E8000E941A19882354
:1026100099F391E001C090E08091E8008B7780937E
:10262000E800992309F49EC089A1863009F479C095
:10263000B0F4823009F496C060F4882329F1813027
:1026400009F08DC080939D0284E089838EEF8A8398
:102650007DC0843031F1853009F463C080C0893099
:1026600009F45FC030F4873099F1883009F459C01B
:1026700076C08A3009F457C08E3F09F070C0898354
:1026800094E09A838B8362C019828DE0E7EFF1E0DA
:10269000DE01129601900D928A95E1F78EEF8E87FA
:1026A00055C080919D02882309F45CC08AA18111E4
:1026B00004C08BA10E94622355C081E090E00BA072
:1026C00002C0880F991F0A94E2F70E945D234AC056
:1026D00081E080939F028AA18230C1F000F58823B7
:1026E00019F0813051F01BC08BA1882319F00E9492
:1026F000B30638C00E94A90635C08BA1882319F003
:102700000E94B0062FC00E94A5062CC08BA1882372
:1027100019F00E94AD0626C00E94A10623C085E0E4
:102720001FC084E01DC08AA1FF24F394811101C061
:10273000F12CF0929F02811106C00E94A9060E940E
:10274000A5060E94A1068BE08983FA8240E250E050
:10275000BE016F5F7F4F82E00E94171F03C08FEFA3
:102760000E9407070E94B22081FF03C00E94AD06AD
:10277000F1CD8091A0020E945D06833009F4EACD7C
:102780000E94A106E7CDC9BCD9BC09B400FEFDCFAB
:102790008091D8008F7D8093D8008091E000826086
:1027A0008093E0008091E00081FDFCCF0E94A8238F
:1027B000E0CD8091B00287FF11C08091E80082FDDA
:1027C00005C08091AE028111F8CF11C08091E80060
:1027D0008B770BC08091AE02882349F08091E8008E
:1027E00080FFF8CF8091E8008E778093E80008950D
:1027F000982F973068F59093E900981739F0709109
:10280000EC002091ED005091F00003C0242F762FB2
:1028100050E021FD02C09F5FECCF3091EB003E7F86
:102820003093EB003091ED003D7F3093ED0030911F
:10283000EB0031603093EB007093EC002093ED00DF
:102840005093F0002091EE0027FDE5CF80E0089541
:102850008F708093E90081E008952091B602309155
:10286000B7022617370748F06115710539F4209132
:10287000E8002E772093E80001C0B901FC0120E0B8
:102880006115710579F18091AE028823F1F18530EF
:10289000F1F18091E80083FD3CC08091E80082FD69
:1028A0002EC08091E80080FFEBCF2091F300809153
:1028B000F20090E0922B6115710551F0883091057E
:1028C00038F421912093F100615071090196F3CF02
:1028D00021E0089709F020E08091E8008E7780934E
:1028E000E800CECF2111CFCF0AC08091AE0288235D
:1028F00061F0853061F08091E80083FD0AC080912D
:10290000E80082FFF2CF80E0089582E0089583E03E
:10291000089581E00895089543E050E0BC0184E00B
:102920000E94171F089540E250E0BC0184E00E941D
:10293000171F0895CF93DF93EC0148E050E0BC01EE
:1029400081E00E94171F88E0FE01A4EAB2E0019036
:102950000D928A95E1F7DF91CF910895AAE2B0E058
:10296000E4EBF4E10C94E026E0EBF2E088EB92E09B
:102970002091F10021938E179F07D1F78091B1022A
:10298000833009F463C030F4813071F0823009F48F
:102990009DC0B4C08A3009F489C08B3009F46EC080
:1029A000893009F0ABC020C08091B002813A09F0B3
:1029B000A5C08091E800877F8093E8008091B402F1
:1029C0009091B502892B21F468E084EA92E003C07B
:1029D00060E080E090E070E00E942D148091E800BB
:1029E0008B778093E8008AC08091B002813209F031
:1029F00085C08091B4029091B502009719F00297BA
:102A000009F07CC08091E800877F8093E800809186
:102A1000E80082FD05C08091AE028111F8CF6EC042
:102A20002091F3008091F20090E0922B029731F414
:102A30008091F100813011F0863021F48091F10015
:102A40008093A3028091E8008B7754C08091B002FC
:102A5000813A09F053C08091B4029091B502892B5C
:102A600009F04CC08091E800877F8093E800809156
:102A7000E80080FFFCCF8091CC0137C08091B0028C
:102A80008132E1F58091B4029091B502892BB1F5C4
:102A90008091E800877F8093E8000E94D91380919D
:102AA000B2028093CC010E94A82328C08091B0027A
:102AB000813221F58091E800877F8093E8000E94B1
:102AC000D9138091B3028093A20218C08091B00202
:102AD000813AA1F48091E800877F8093E80080919B
:102AE000E80080FFFCCF8091A2028093F1008091EA
:102AF000E8008E778093E8000E94D9138091E80067
:102B000083FFEBC18091B0029091B102492F50E058
:102B10004A30510508F0E1C1FA01EE56FF4F0C941E
:102B20006027803821F0823809F0D7C108C0809131
:102B3000AC029091AD02992389F082600FC0809120
:102B4000B4028F70873008F0C8C18093E90080918B
:102B5000EB0085FB882780F91092E9009091E8004E
:102B6000977F9093E8008093F1001092F1007CC170
:102B7000282F2D7F09F0B1C1882319F0823061F030
:102B8000ACC18091B202813009F0A7C1933009F045
:102B900080E08093AD022EC08091B20281112AC0E4
:102BA0008091B4028F702FEF280F263008F095C166
:102BB0008093E9002091EB0020FF1CC0933021F4AA
:102BC0008091EB00806214C09091EB009061909333
:102BD000EB0021E030E0A90102C0440F551F8A95A7
:102BE000E2F74093EA001092EA008091EB008860DF
:102BF0008093EB001092E9008091E800877F80933A
:102C0000E8000E94D91369C1811167C11091B20215
:102C10001F778091E3008078812B8093E30080917F
:102C2000E800877F8093E8000E94D9138091E80034
:102C300080FFFCCF8091E30080688093E300111156
:102C400002C082E001C083E08093AE0246C180589A
:102C5000823008F042C12091B2023091B3022C3D83
:102C600053E0350779F583E08A838AE289834FB799
:102C7000F894DE01139620E03EE051E2E32FF0E00D
:102C800050935700E49120FF03C0E295EF703F5F3F
:102C9000EF708E2F90E0EA3010F0C79601C0C0961A
:102CA0008D939D932F5F243149F74FBF8091E800AA
:102CB000877F8093E8006AE270E0CE0101960E946F
:102CC0002D14C0C08091B4029091B502432F5527B6
:102CD00043305105B1F068F44130510509F40CC19D
:102CE0004230510509F0F9C08BE590E0E5ECF2E0E7
:102CF00057C04132510589F14232510509F43CC0B7
:102D0000ECC0C901992781309105B9F070F082308B
:102D10009105D9F0039709F0E0C0E2E3F3E0E49114
:102D20008E2F90E0E2E3F3E038C0E0E9F3E0E491D5
:102D30008E2F90E0E0E9F3E030C0E6E6F3E0E491C6
:102D40008E2F90E0E6E6F3E028C0EEE4F3E0E491B5
:102D50008E2F90E0EEE4F3E020C08330910508F080
:102D6000BCC0880F991FFC01E35FFD4F0190F0810B
:102D7000E02D89E090E014C08330910508F0ADC0EB
:102D8000FC01EE0FFF1FE95FFD4F0190F081E02D88
:102D9000DC01AC5FBD4F8C9190E0009709F49DC0C1
:102DA0002091E800277F2093E8002091B60230911F
:102DB000B7022817390708F4C90140E0009789F1E4
:102DC0002091AE02222309F43DC02530D9F1209193
:102DD000E80023FD37C02091E80022FD2FC020919C
:102DE000E80020FFEBCF4091F3002091F20030E0AB
:102DF000342B009759F02830310540F4449140932A
:102E0000F100319601972F5F3F4FF3CF41E028301B
:102E1000310509F040E02091E8002E772093E8008A
:102E2000CDCF4111CDCF0AC08091AE02882351F0A1
:102E3000853041F08091E80083FD04C08091E80076
:102E400082FFF2CF8091E8008B778093E80045C045
:102E5000803809F042C08091E800877F8093E800C5
:102E60008091AF028093F1008091E8008E77C7CE09
:102E7000811133C08091B2029091B30299270297D9
:102E800064F58091E800877F8093E8001091B2029A
:102E90001093AF020E94D913111106C08091E30074
:102EA00087FD02C081E001C084E08093AE0242E071
:102EB00061EC81E00E94F81342E261EC84E00E9440
:102EC000F81342E261EC82E00E94F81342E260EC07
:102ED00083E00E94F8138091AE028091E80083FFA6
:102EE00010C08091E800877F8093E8008091EB001C
:102EF00080628093EB0005C082E190E0E0E2F3E0C5
:102F00004FCFAA96E3E00C94FC261F920F920FB6C7
:102F10000F9211242F933F934F935F936F937F935F
:102F20008F939F93AF93BF93CF93DF93EF93FF93D1
:102F3000C091E900CF708091EC00D82FD17080FD56
:102F4000D0E81092E9008091F000877F8093F00034
:102F500078940E94AE141092E9008091F00088608D
:102F60008093F000CD2BCF70C093E900FF91EF91DB
:102F7000DF91CF91BF91AF919F918F917F916F9191
:102F80005F914F913F912F910F900FBE0F901F9027
:102F90001895E8EDF0E080818E7F80831092E2004A
:102FA0001092DA001092E100A0EEB0E08C91816006
:102FB0008C9380818F77808319BCA7EDB0E08C91D2
:102FC0008E7F8C9380818F7E80831092A1020895E2
:102FD000A0E0B0E0EEEEF7E10C94DB26C8EDD0E027
:102FE00088818F7E8883E7EDF0E080818160808337
:102FF00084E082BF81E08093A10288818E7F8883F4
:1030000002EE10E0F80110821092DA0081EEC82E74
:10301000D12CF601108288818F778883888180681F
:10302000888388818F7D888319BC1092AE021092AC
:10303000AF021092AD021092AC0290EEE92EF12C8C
:10304000F70180818B7F808388818160888342E063
:1030500060E080E00E94F813F60180818E7F80831B
:10306000F801808181608083808188608083F7019E
:1030700080818E7F8083888180618883CDB7DEB731
:10308000E8E00C94F7261F920F920FB60F921124CE
:103090002F933F934F935F936F937F938F939F9360
:1030A000AF93BF93EF93FF938091E10082FF09C03C
:1030B0008091E20082FF05C08091E1008B7F8093C8
:1030C000E1008091DA0080FF2AC08091D80080FF63
:1030D00026C08091DA008E7F8093DA008091D9003B
:1030E00080FF18C080E189BD82E189BD09B400FE7E
:1030F000FDCF81E08093AE028091A10281110FC0CB
:103100000E94C9170E94E8178091E20084608093B2
:10311000E20005C019BC1092AE021092A10280918B
:10312000E10080FF17C08091E20080FF13C0809112
:10313000E2008E7F8093E2008091E20080618093C4
:10314000E2008091D80080628093D80019BC85E0AD
:103150008093AE028091E10084FF30C08091E20054
:1031600084FF2CC080E189BD82E189BD09B400FEE5
:10317000FDCF8091D8008F7D8093D8008091E100B1
:103180008F7E8093E1008091E2008F7E8093E20049
:103190008091E20081608093E2008091AF028823F9
:1031A00011F084E007C08091E30087FD02C081E058
:1031B00001C083E08093AE028091AE028091E10075
:1031C00083FF27C08091E20083FF23C08091E1004C
:1031D000877F8093E10082E08093AE021092AF027D
:1031E0008091E1008E7F8093E1008091E2008E7FEC
:1031F0008093E2008091E20080618093E20042E0EF
:1032000060E080E00E94F8138091F0008860809375
:10321000F000FF91EF91BF91AF919F918F917F91BE
:103220006F915F914F913F912F910F900FBE0F9033
:103230001F9018952091E4003091E50095E64091AB
:10324000EC00842F817040FF23C08091E80080FD56
:103250001DC08091AE02882399F0853099F080914D
:10326000EB0085FD11C04091E4005091E50024176A
:10327000350729F3915011F09A01E1CF84E00895C8
:1032800082E0089583E0089581E0089580E0089544
:103290004091E80042FFDDCF089580E008959091CD
:1032A000E80392FF10C041E0282F2471243009F078
:1032B00040E031E0282F2871283009F030E0431732
:1032C00011F02CE0822793FF10C041E0282F2471D9
:1032D000243109F040E031E0282F2871283109F02D
:1032E00030E0431711F02CE082273091E90330FFE2
:1032F00010C051E0282F2171213009F050E041E049
:10330000282F2871283009F040E0541711F029E0E7
:10331000822731FF10C041E0282F2171213109F0AF
:1033200040E031E0282F2871283109F030E04317C0
:1033300011F029E0822794FD877E08958238910557
:1033400069F1B0F48133910509F475C048F489320C
:10335000910509F467C08A32910509F471C0089596
:103360008533910509F459C089339105B9F0089561
:10337000833E910589F138F4803E9105D1F0823E7B
:10338000910529F10895863E9105C9F1873E910581
:10339000D9F1843E910509F06CC027C02091E80363
:1033A00020FD57C021FD55C02091E90323FD5BC0DE
:1033B00008958091E80380FD48C08091E90380FF73
:1033C00048C08091E80384FD46C083EE51C08091DF
:1033D000E80382FF3CC0F5CF8091E80382FD37C04F
:1033E0008091E90380FD35C0ECCF8091E90381FF36
:1033F00036C08091E80384FD2EC087EE39C08091ED
:10340000E80383FF2AC0F5CF8091E80383FD25C040
:103410008091E90381FD23C0ECCF8091E80385FD15
:1034200022C01FC08091E80385FD1BC08091E90385
:1034300083FF19C00AC08091E80386FD16C017C03B
:103440008091E80386FD13C010C089E311C082EEAD
:103450000FC080EE0DC080E00BC086EE09C084EE88
:1034600007C085E305C089E203C08AE201C081E3A9
:1034700090E008959091DF038091DE03892B909175
:103480000C039923E1F0892B9091CC01992341F011
:103490009091E80397FF04C09EE125E433E003C068
:1034A00096E02DE333E0F90120E0915028F03191CE
:1034B0003323D9F32F5FF9CF211110920C03089514
:1034C00020910A039091C10259E02917A9F030E038
:1034D000529FF001539FF00D1124EE53FD4F718167
:1034E000761306C07081781303C07581741306C00B
:1034F0002F5F3F4F2770E9CF80E0089581E0089566
:103500007E30B0F46630A0F48330A0F494E5899F57
:10351000F001112486E0789FE00DF11D1124E60FE3
:10352000F11DEE0FFF1FEC56FC4F8591949108950D
:1035300080E001C081E090E008951F93CF93DF9376
:103540000E949E19EC01C11580E5D807E8F5C11568
:1035500090E4D90708F0A8C0C03ED10530F5CD3CB5
:10356000D10508F094C0C83AD10578F4C53AD10520
:1035700008F083C0C130D10509F47CC008F4F2C062
:10358000C430D10508F0F1C0EDC0C33CD10508F04E
:10359000E9C0C85AD0E0CC0FDD1FCA5EDD4F0990EC
:1035A000D881C02DCE019464E1C0C11580E2D80756
:1035B00008F0CBC0C11591E0D90708F06BC0C83E38
:1035C000D10508F4D2C0CEC0C03682E5D80728F5B0
:1035D000C03492E5D90708F079C0C03282E5D80737
:1035E00008F06CC0C11592E5D90708F481C04C2FD2
:1035F0004695469580E2489FA0011124C37021E0C2
:1036000030E0C90102C0880F991FCA95E2F7EA01AC
:10361000C82BD92BCE019D68A9C0C03A82E5D80736
:10362000B8F48C2F8F71C03892E5D90708F07BC0B1
:103630008695869590E2899F90011124C37081E060
:1036400090E002C0880F991FCA95E2F79A6868C097
:10365000C03C82E5D80708F46DC0C03E92E5D907AA
:1036600008F080C0CF71DD27DC2FCC27CE01806F22
:10367000906A7CC081E090E079C0C55AD0E0CD5E10
:10368000DD4F8881C82FD0E0CE0190646FC0CE019D
:1036900090656CC08D2F0E944F19182FCE0199276D
:1036A0000E949E191F715CC0CE0199270E949E192D
:1036B000CC27DF70D06A8C2B9D2B58C0CF71D0E007
:1036C000DC2FCC27CE01816F906A50C08C2F8F7178
:1036D0008695869590E2899F90011124C37081E0C0
:1036E00090E002C0880F991FCA95E2F79C6818C045
:1036F0008C2F8F710E944F1995E0D695C7959A959A
:10370000E1F7CF70D0E0DC2FCC27282F30E084FF0A
:1037100005C084E0220F331F8A95E1F7D069CE01FE
:10372000822B932B23C090E0D82FCC27CE01846F1F
:10373000906A1CC08C2F8F710E944F198F7190E07E
:10374000D82FCC27CE01906211C08D2F8F710E948F
:103750004F19182FCE0199270E949E191F71906250
:10376000912B04C080E090E001C0CE01DF91CF91A9
:103770001F91089580959091DE0389238093DE0345
:10378000089580959091DF0389238093DF03089546
:103790008091CC01882351F18091E80387FF26C0F6
:1037A0000E943A1A8093440340E250E06DE073E0D7
:1037B00083E493E00E946627892BD9F180E2E3E459
:1037C000F3E0ADE0B3E001900D928A95E1F7E0916E
:1037D000E403F091E503309761F186E080934303C1
:1037E0000480F581E02D83E493E022C00E943A1A20
:1037F00080933B0348E050E06DE273E08BE393E09D
:103800000E946627892BA9F088E0EBE3F3E0ADE2A4
:10381000B3E001900D928A95E1F7E091E403F09115
:10382000E503309731F00280F381E02D8BE393E0E4
:103830000995089590910B038095892380930B033C
:10384000282F277069F4981759F09091E90392FF97
:1038500007C08695869586950E94622310920B0379
:1038600008959091E90392FB222720F9281779F017
:1038700080FB92F99093E9036091E8037091E9036A
:1038800084E090E00E944A2782E00E941A1C08957A
:1038900080910A039091C102891719F08F5F877098
:1038A000FBCF0895CF93DF938091BE0282958F70F6
:1038B00009F04EC08091BD02882309F449C080916F
:1038C0000A034091C1025091B9026091B802C091BF
:1038D000BA02D091BB0279E08417D1F190E0789FD1
:1038E000F001799FF00D1124DF01AE53BD4F149606
:1038F0002C911497222349F111962C91119725139D
:1039000024C02C91261321C015962C9115972111B6
:103910001CC012962D913C9113972C1B3D0B283CFB
:10392000310598F48091BE028F7080618093BE0251
:10393000E853FD4F80818F708061808388EB92E037
:103940000E94470A0E94481C03C001968770C4CF9A
:10395000DF91CF910895A8E1B0E0E1EBFCE10C9498
:10396000D7268C0186E0F801DE01539601900D9276
:103970008A95E1F7F8018481E58098EB892E92E041
:10398000992E9091BC02911120C0882309F496C110
:10399000EE2009F442C0C8010E947E23F82E88233D
:1039A000E1F189E0F801D40101900D928A95E1F7E7
:1039B0008091BC02813031F48091B8029091B902BB
:1039C0000E94E7220E94521C7BC1F801D080C18076
:1039D000A280B380F090BD022091BA023091BB0268
:1039E000FF2009F410C1A501421B530B483C5105AF
:1039F00008F0B6C0882309F463C18091BE02282F65
:103A0000207F9091B902222361F09C1509F469C0CE
:103A1000C8010E947E23811176C0C8010E94470A16
:103A20004DC19C111CC09091B8029D1118C04091CD
:103A3000BF025091C002278130854217530779F4A5
:103A4000E1100DC08F7080618093BE0288EB92E020
:103A50000E94470A8091BE02F80186832DC1E110C1
:103A60003AC040E06C2D8D2D0E94601A40E06C2D14
:103A70008D2D0E94601AE82E81111EC1DB8ACC8A2E
:103A80008B899C890E94E722292F22952F70243050
:103A900020F49F70223028F009C02A50223080F094
:103AA00014C0992349F0811107C013C0992321F054
:103AB000F8019681907F69F0805E883030F409C00B
:103AC000803F38F0815F833020F0C8010E94470AB0
:103AD000EF2CFE2CF5C08091BE0281608093BE0267
:103AE000EBC09091B8029D1193CF4091BF025091CD
:103AF000C002F801278130854217530709F088CFAB
:103B0000E11086CFB8C0EE2009F487CF2091BE0225
:103B1000822F82958F7090E00297BCF08091B8025E
:103B20009091B9029B878A87BD86AC868091BC0242
:103B30008E871F86288B8091BF029091C0029A8B3E
:103B4000898BCE010A960E94470A89E0F801A8EB0A
:103B5000B2E001900D928A95E1F70E94521CAEC02E
:103B60009091BE02292F207F51F488EB92E00E94B1
:103B7000470A89E0F40111928A95E9F79DC08823EC
:103B800009F49EC08091B9028C1115C08091B802D1
:103B90008D1111C04091BF025091C002F8012781E0
:103BA00030854217530739F4E11005C09683C801E8
:103BB0000E94470A7BC0C8010E947E23882309F423
:103BC0002CCFEE2009F429CF2091BE02822F8295BE
:103BD0008F7090E002970CF4B8CF8091B80290916A
:103BE000B9029A838983BC82AB828091BC028D83A7
:103BF0001E822F838091BF029091C002998788878F
:103C0000CE010196A0CFA21AB30AF8ECAF16B10408
:103C100008F04CC0882309F451C0FE2CEE2009F4B2
:103C2000FCCE8091B9028C1133C08091B8028D1105
:103C30002FC02091BF023091C002F801878190858A
:103C40002817390729F58091BE0280FD18C082959A
:103C50008F70482F50E04115510589F02091BE0228
:103C600026834F30510541F08F5F982F9295907FBA
:103C7000822F8F70892B8683C8010E94470A89E0B2
:103C8000F801A8EBB2E001900D928A95E1F718C017
:103C9000C8010E947E23811158CF8091BE028160AD
:103CA0008093BE02C8010E94470A0AC089E0F4015D
:103CB00011928A95E9F704C0F12C02C0FF24F39415
:103CC0008F2D6896ECE00C94F326A6E0B0E0EBE6CE
:103CD000FEE10C94DF260E94CE1F8C0180913503FB
:103CE000909136030817190781F019821A820E94F1
:103CF000CE1F682F49815A81792F80E090E00E9481
:103D0000380810933603009335032696E4E00C94AC
:103D1000FB26EF92FF920F931F93CF93DF93809137
:103D20000A0190910B01892BD9F0809137038F5FA5
:103D300080933703811114C00E94F30790E09093A1
:103D40000B0180930A01892B59F42FEF83EC99E042
:103D5000215080409040E1F700C000000E945C1FAD
:103D60000AE612E0C0E0D0E087E0E82EED0E8D2FED
:103D70000E941C078E2D0E941C078D2F0E947D071C
:103D80008F73F8019081891721F08083FF24F394C9
:103D900001C0F12C8E2D0E947D078F73F801978151
:103DA000891719F0878381E001C080E0F82ACF29C4
:103DB0000E946807DF5F0F5F1F4FD730A9F6CC2343
:103DC00059F081E080933A030E94CE1F909339030B
:103DD00080933803C0E022C080913A038823F1F039
:103DE00080913803909139030E94BF1F4497B0F02F
:103DF0004EE050E06AE672E08DE792E00E946627AE
:103E0000892B51F08EE0EAE6F2E0ADE7B2E00190F6
:103E10000D928A95E1F7C1E010923A038C2FCDB74D
:103E2000DEB7E6E00C94F9268091A30208950F9383
:103E30001F93CF93DF938B01EA019091AE029430F0
:103E4000A9F58F708093E9008FEF9091E800815081
:103E500095FD06C095ED9A95F1F700008111F5CF1B
:103E60008091E80085FF22C00E941A19811115C0B7
:103E7000209789F08091E80085FD06C08091E800D8
:103E80008E778093E800F0CFF80181918F018093C5
:103E9000F1002197EDCF90E001C0982F8091E800CC
:103EA0008E778093E80081E0911101C080E0DF917E
:103EB000CF911F910F9108959AE088E10FB6F89481
:103EC000A895809360000FBE90936000FFCFF89498
:103ED00081E08093E00080E28093D800E9ECF0E09C
:103EE00010828FE19EE40197F1F700C000001DBA37
:103EF000109268001CBC10BE1FBA10927A0010927B
:103F00006E0010926F001092710010927200108279
:103F1000ECEBF0E0108214B817B81AB81DB810BA5C
:103F2000108215B818B81BB81EB811BA0C94003F0F
:103F3000089578941F920F920FB60F9211248F93C9
:103F40009F93AF93BF938091EB039091EC03A0916B
:103F5000ED03B091EE030196A11DB11D8093EB031B
:103F60009093EC03A093ED03B093EE03BF91AF9158
:103F70009F918F910F900FBE0F901F9018959C01ED
:103F80004FB7F8948091EB039091EC03A091ED036F
:103F9000B091EE034FBF821B930B08952FB7F89497
:103FA0008091EB039091EC03A091ED03B091EE03AF
:103FB0002FBF08951F920F920FB60F9211248F9367
:103FC0009F93AF93BF938091EA03811113C08091B7
:103FD000EB039091EC03A091ED03B091EE034196B9
:103FE000A11DB11D8093EB039093EC03A093ED030F
:103FF000B093EE03BF91AF919F918F910F900FBE41
:104000000F901F9018959091CC01992321F09091D9
:10401000E80397FD03C0EBE3F3E01DC0E82FE6954E
:10402000E695E695EE31E0F4F0E0ED5BFC4F87704D
:1040300021E030E0A90102C0440F551F8A95E2F744
:10404000CA0180959281892382830895319653E035
:10405000E134F50729F092818913F8CF1282F6CF67
:1040600008959091CC019923D1F09091E80397FFA6
:1040700016C0E82FE695E695E695EE3140F5F0E0BE
:10408000ED5BFC4F877021E030E0A90102C0440FD6
:10409000551F8A95E2F7CA019281892B16C0ADE3BC
:1040A000B3E0EFEF90E02D91821789F0EF3F19F424
:1040B000211101C0E92F9F5F9630A9F7EF3F39F03A
:1040C0000E2E000CFF0BE55CFC4F828308950895D3
:1040D000A3E0B0E0EEE6F0E20C94E1262091E603E6
:1040E0003091E70328173907A1F09093E7038093F5
:1040F000E603E091E403F091E503309751F024E00A
:1041000029839B838A830084F185E02DCE0101966B
:1041100009952396E2E00C94FD26A3E0B0E0E3E9E4
:10412000F0E20C94E1262091E2033091E30328179A
:104130003907A1F09093E3038093E203E091E40355
:10414000F091E503309751F023E029839B838A8324
:104150000084F185E02DCE01019609952396E2E0D9
:104160000C94FD26E091E403F091E503309729F0EB
:104170000190F081E02D0995089580E008954115A2
:10418000510511F0FA0109950895CF93DF93EC01E1
:104190004A855B856E857F850E94BF208B810E944A
:1041A000BA1B8C810E94C11B0E94C81B86E0FE01C5
:1041B00011928A95E9F7DF91CF910895CF93DF931C
:1041C000EC018D8181FD17C082608D839091DE03AB
:1041D0008B81892B8093DE039091DF038C81892B67
:1041E0008093DF030E94C81B488559856E857F85B3
:1041F000CE010E94BF201092E1031092E0038D8156
:1042000080FD03C0CE010E94C520DF91CF910895AB
:104210000F931F93CF93DF93C42FD22FFC0185817F
:104220008823B1F04093DD030E94CE1F9093DC03FE
:104230008093DB0380E28C0F883008F068C0C77081
:1042400081E001C0880FCA95EAF70E944F245FC041
:104250008091DD0348133DC08091DB039091DC0326
:104260000E94BF1F883C9105A0F510E21D0FCD17DD
:10427000E9F080E28C0F883040F4C77081E001C023
:10428000880FCA95EAF70E944824183078F581E033
:104290009D2F977001C0880F9A95EAF70E944F24CE
:1042A000093351F560E570E089E329C0093319F459
:1042B00060E570E002C060E070E0802F0E94EE24B4
:1042C000183028F5D77081E001C0880FDA95EAF739
:1042D0000AC080E28C0F8830D0F4C77081E001C042
:1042E000880FCA95EAF70E94482411C0093351F497
:1042F00060E570E089E309C060E070E0802F0E9413
:10430000EE24E0CF60E070E0802F0E94EE24DF9189
:10431000CF911F910F910895BC014091D7038091D7
:10432000D803942F981729F1292F30E0F901EE0FC7
:10433000FF1FE153FC4F0190F081E02DE617F707D6
:1043400099F487E0869FF001879FF00D1124E353D5
:10435000FE4F81E0848394130CC02F5F3F4F237086
:1043600033272093D70308952F5F3F4F922F9370E9
:10437000D9CF0895EF92FF920F931F93CF93DF93BE
:10438000809166038823D9F1C09165038DE0F82EF2
:1043900080916603C81778F5EE24E394EC0EE09262
:1043A0006503D0E0FC9EF001FD9EF00D1124E9595B
:1043B000FC4F84818823E9F087819085892B21F443
:1043C00081859285019659F4008111812281338182
:1043D000448155816681778180850E94CA23FC9E35
:1043E000F001FD9EF00D1124E959FC4F148210924A
:1043F000DE03CE2DCDCF1092660310926503CDB7AC
:10440000DEB7E6E00C94F926109264031092630381
:104410008091D201811104C01092D1011092D30178
:1044200008951092DA031092D9031092D40180916A
:10443000D8038093D7030E9404220E94BA210895D2
:10444000A0E0B0E0E6E2F2E20C94D126C091D703FE
:10445000E7E0FE2E01E010E0FDE02F2EEE24E394D5
:104460008091D803C81709F47AC0D0E0FE01EE0F9E
:10447000FF1FE153FC4F80819181F89EF001F99E6E
:10448000F00D1124E353FE4F2481211165C060908B
:104490006603A7E6B3E020E030E0712C5F0126154B
:1044A00008F058C01B964D905C901C97F5018080D9
:1044B00091804FEF5FEF312CC32CD12CF601EE0F22
:1044C000FF1FE80DF91D659174914616570609F412
:1044D000A601672B11F03394EFCF4F3FFFEF5F073B
:1044E000A9F1B80102C0660F771F4A95E2F7762A54
:1044F000A801032C02C0440F551F0A94E2F7415053
:104500005109672D70E046175707E9F4229EF00124
:10451000239EF00D1124E959FC4FF89ED001F99E1D
:10452000B00D1124A353BE4F12962D913C911397B9
:104530003087278374E07483108211829287818789
:104540001596EC9207C014961C9214972F5F3F4F5C
:104550001D96A5CF0E948C212196C37081CF0E9409
:10456000BA210E940422CDB7DEB7E2E10C94ED2619
:10457000CF92DF92FF920F931F93CF93DF936C0143
:104580000091A00280917802082BC7E0D0E010E0F3
:10459000C8010C2E02C0959587950A94E2F780FD1C
:1045A00004C02197A8F7F12C09C0FC2EB6018C2F6E
:1045B0000E94801A0E949D1A019799F38F2DDF9116
:1045C000CF911F910F91FF90DF90CF900895CF93DF
:1045D000DF93EC010E94B822BE010E94801A0E9463
:1045E0009D1ADF91CF910895292F9E3078F586305E
:1045F00068F590E036E0239F800D911D1124682F0F
:10460000677023E0969587952A95E1F7FC01EE0FF8
:10461000FF1FE80FF91FE151FC4F40E050E080E040
:10462000219130E0062E02C0369527950A94E2F7D4
:1046300021703327042E01C0220F0A94EAF7822B3F
:104640004F5F5F4F4330510559F7089580E008955B
:10465000292F9E3088F5863078F590E036E0239F4C
:10466000800D911D1124282F277051E001C0550F96
:104670002A95EAF723E0969587952A95E1F7FC01BC
:10468000EE0FFF1FE80FF91FE151FC4F20E030E073
:1046900070E04081CB01022E02C0969587950A9466
:1046A000E2F78170819584278523842781932F5F8A
:1046B0003F4F2330310569F708950E94B606809375
:1046C000A002089521E030E001C0220F8A95EAF7A8
:1046D00020958091A00282230E945D23089521E00D
:1046E00030E001C0220F8A95EAF78091A002822B68
:1046F0000E945D230895809378020895FC0124812F
:10470000222311F187819085009719F00E949D1A4C
:1047100004C0808191810E94E72292959F7096301B
:1047200079F010F4925001C09A50923068F4803FB2
:1047300069F018F4883E40F409C0843F29F406C0AB
:10474000883E20F0813F11F080E0089581E00895D7
:104750001092DF038091CC01882341F08091E8031F
:1047600087FF04C08EE1E5E4F3E003C086E0EDE3FB
:10477000F3E0DF011D928A95E9F780E090E00E9466
:104780008D2080E090E00E9468201092DE030E945D
:10479000C81B0895A2E1B0E0E0EDF3E20C94DF263F
:1047A0000A871B872C873D874E875F87688B798BAD
:1047B0008A8BCE010A960E94AB1C81113BC089E016
:1047C000FE013A96DE01119601900D928A95E1F76D
:1047D0006E85662379F12091C10230E0C90101960E
:1047E0008770992740910A0350E084179507A1F03C
:1047F0006D8399E0929FD001939FB00D1124AE5329
:10480000BD4FFE01319601900D929A95E1F780938C
:10481000C1020E94481C0EC00E94A8231092C1022F
:1048200010920A03E8EBF2E089E0DF011D928A951D
:10483000E9F719C019E080910A039091C102891724
:1048400091F0189FC00111248E539D4F0E94AB1C04
:10485000882349F080910A0390E001968770992798
:1048600080930A03E8CF6296E4E00C94FB26882349
:1048700021F00E94BA1B0E94C81B0895882339F0BA
:104880009091DE03892B8093DE030E94C81B08955C
:10489000882321F00E94C11B0E94C81B0895882311
:1048A00039F09091DF03892B8093DF030E94C81BAE
:1048B0000895882339F19CEF980F913A18F40E94DB
:1048C00003200DC090E2980F983060F4877091E05B
:1048D00001C0990F8A95EAF7892F0E94C11B0E9497
:1048E000C81B08959BE5980F933028F480E090E072
:1048F0000E948D200895885A8B3120F480E090E04A
:104900000E9468200895CF93882309F465C0C82FBA
:104910008CEF8C0F813AA0F58091CC018823E1F0D7
:104920008091E80387FF18C0EC2FE695E695E695A1
:10493000F0E0ED5BFC4F8281282F30E04C2F477078
:1049400081E090E002C0880F991F4A95E2F7822328
:104950009323892B61F410C0EDE3F3E083E493E04B
:104960002191C21721F08E179F07D1F705C08C2F18
:104970000E9403200E94C81B8C2F0E94312010C06F
:1049800080E28C0F883078F4C77081E090E001C03D
:10499000880FCA95EAF79091DF03892B8093DF0394
:1049A0000E94C81B19C0EBE5EC0FE33040F4F0E0C7
:1049B000ED5EFD4F808190E00E948D200DC0C85AB1
:1049C000CB3150F4EC2FF0E0EE0FFF1FEA5EFD4F0D
:1049D000808191810E946820CF9108951F93CF9389
:1049E000DF93182FEB010E948324209741F08FE979
:1049F0009FE00197F1F700C000002197F6CF812FCB
:104A00000E945924DF91CF911F910895EF92FF9258
:104A10000F931F93CF93DF93182FEB011092BC00DD
:104A200084EA8093BC000E94CE1F7C018091BC0070
:104A300087FD0DC0CF3F8FEFD807C1F3C7010E949C
:104A4000BF1FC817D90790F78EEF9FEF2DC0809139
:104A5000B900887F883041F08091B900887F80312B
:104A600019F08FEF9FEF20C01093BB0084E8809374
:104A7000BC000E94CE1F8C018091BC0087FD0BC042
:104A8000CF3F8FEFD807C1F3C8010E94BF1FC817DF
:104A9000D90790F7D9CF8091B900887F883111F07C
:104AA0008034F9F680E090E0CDB7DEB7E6E00C9414
:104AB000F9261092B9008CE08093B80008950F9306
:104AC0001F93CF93DF93EB018093BB0084E8809327
:104AD000BC000E94CE1F8C018091BC0087FD0DC0E0
:104AE000CF3F8FEFD807C1F3C8010E94BF1FC8177F
:104AF000D90790F78EEF9FEF0CC02091B900287F67
:104B000081E090E0283211F480E090E09195819569
:104B10009109DF91CF911F910F9108950F931F93EA
:104B2000CF93DF93EC0184EC8093BC000E94CE1FF6
:104B30008C018091BC0087FD0DC0CF3F8FEFD8075F
:104B4000C1F3C8010E94BF1FC817D90790F78EEFA5
:104B50009FEF03C08091BB0090E0DF91CF911F9148
:104B60000F9108950F931F93CF93DF93EC0184E887
:104B70008093BC000E94CE1F8C018091BC0087FDF9
:104B80000DC0CF3F8FEFD807C1F3C8010E94BF1FF0
:104B9000C817D90790F78EEF9FEF03C08091BB0035
:104BA00090E0DF91CF911F910F910895A0E0B0E0C8
:104BB000ECEDF5E20C94D526682E762E5A016901AB
:104BC0000E94CE1F4C010431110558F00F3F8FEFAA
:104BD000180751F0C80164E170E00E94BD26EB01A6
:104BE00005C0C1E0D0E002C0C5E0D0E0BE01862D26
:104BF0000E9406257C0197FF0BC00F3F8FEF18071F
:104C0000A9F3C4010E94BF1F0817190778F713C042
:104C1000B801872D0E945F257C01E501CA0CDB1CD1
:104C2000CC15DD0541F0F7FC06C0B80189910E9462
:104C30005F257C01F5CF84E98093BC00C701CDB727
:104C4000DEB7EEE00C94F126A0E0B0E0EAE2F6E296
:104C50000C94D526782E662E7A01E9010E94CE1F8B
:104C60005C010431110558F00F3F8FEF180759F020
:104C7000C80164E170E00E94BD266B0107C0CC242E
:104C8000C394D12C03C025E0C22ED12CB601872DB0
:104C90000E9406254C0197FF0BC00F3FEFEF1E0748
:104CA000A9F3C5010E94BF1F0817190778F72BC089
:104CB000B801862D0E945F254C0197FD24C0F72D79
:104CC000F1607F2E0E94CE1F5C010431110528F196
:104CD0000F3F8FEF180729F1C80164E170E00E94CF
:104CE000BD266B01B601872D0E9406254C0197FD5C
:104CF0001CC067012197C6018E199F098C179D075B
:104D000058F597FE1DC084E98093BC00C4011816B5
:104D1000190674F580E090E02BC0CC24C394D12C0C
:104D2000E1CF85E0C82ED12CDDCF0F3FEFEF1E077E
:104D3000C9F2C5010E94BF1F0817190798F6D9CFFD
:104D4000C8010E948E254C0197FD02C0F6018083A8
:104D5000FFEFCF1ADF0ACFCF97FCD5CFC8010E9453
:104D6000B2254C0197FDCFCFCE0DDF1D8883CBCF71
:104D7000CDB7DEB7EEE00C94F126AA1BBB1B51E1C8
:104D800007C0AA1FBB1FA617B70710F0A61BB70BBB
:104D9000881F991F5A95A9F780959095BC01CD0160
:104DA00008952F923F924F925F926F927F928F92CF
:104DB0009F92AF92BF92CF92DF92EF92FF920F93AA
:104DC0001F93CF93DF93CDB7DEB7CA1BDB0B0FB6B4
:104DD000F894DEBF0FBECDBF09942A883988488871
:104DE0005F846E847D848C849B84AA84B984C88407
:104DF000DF80EE80FD800C811B81AA81B981CE0FFE
:104E0000D11D0FB6F894DEBF0FBECDBFED010895E2
:104E1000F999FECF92BD81BDF89A992780B5089582
:104E2000A6E1B0E044E050E00C945227A8E1B0E0E5
:104E300042E050E00C945227DC01A40FB51F415012
:104E4000504048F0CB01840F951F2E910E942D27D2
:104E500041505040D0F70895262FF999FECF92BDCA
:104E600081BDF89A019700B4021639F01FBA20BD2F
:104E70000FB6F894FA9AF99A0FBE08950396272F61
:104E80000E942D270E942C27252F0E942D27242F9A
:104E90000C942D270196272F0E942D270C942C2748
:104EA000DC01CB01FC01F999FECF06C0F2BDE1BDEA
:104EB000F89A319600B40D9241505040B8F70895D9
:104EC000EE0FFF1F0590F491E02D0994FB01DC012A
:104ED00004C08D910190801921F441505040C8F7D1
:0A4EE000881B990B0895F894FFCF8A
:104EEA00141F9A1493148B148C14200000000000D1
:104EFA0000004305170656040000000000000000E9
:104F0A000000210500063D0400000000000000002A
:104F1A00000000004B062C04000000000000000006
:104F2A0000000505E9051304000000000000000068
:104F3A000000E904D205FA030000000000000000A6
:104F4A000000CD04BB05E1030000000000000000E2
:104F5A000000AE04A405C803000000000000000021
:104F6A00000040058D05AF030000000000000000AE
:104F7A000000000041065A03000000000000000083
:104F8A0000003D05760596030000000000000000C1
:104F9A000000000037065103000000000000000076
:104FAA000000CA045F057D0300000000018C05466D
:104FBA000000000001F0F1F4F5F6F700000000002F
:104FCA00000030313233929366010101010101017F
:104FDA0000000000000000367076706E2F6C627A56
:104FEA00424C650044226D81025F02F201D702F051
:104FFA00021003818283E200E900EA00B500B600EC
:10500A00B700CD008301CC008A01920194012102EC
:10501A00230224022502260227022A02B300B40030
:0C502A006F0070009F01CB019F02A002EC
:00000001FF
