:10000000CCC20000E7C20000E5C20000E3C200006D
:10001000E1C20000DFC20000DDC20000DBC2000060
:10002000D9C20000D7C200000C949E1C0C94E21BA5
:100030000C94421FCFC20000CDC20000CBC2000012
:10004000C9C20000C7C20000C5C20000C3C2000090
:10005000C1C200000C94101FBDC20000BBC2000052
:10006000B9C20000B7C20000B5C20000B3C20000B0
:10007000B1C20000AFC20000ADC20000ABC20000C0
:10008000A9C20000A7C20000A5C20000A3C20000D0
:10009000A1C200009FC200009DC200009BC20000E0
:1000A00099C2000097C2000095C200002205960583
:1000B0002A05F404F8042E05FB0431053C05060569
:1000C0008C050A0540050E0544056E051205480518
:1000D000780518054E055805FF0435050205380555
:1000E0001D055305640584058605F00426059F0556
:1000F000E405EA05D805DE05F005F605FC05DF0692
:10010000DF060F070F078A07990899089908A607BD
:100110001A082B082B08080C0B0C110C0A0C0D0CE0
:10012000100C0F0CEE19151ACA1B151ACA1B601AEF
:10013000821ACA1B831B931B0000000000000000F2
:1001400000000000000000000000000000000000AF
:100150000000000000000000000000007E0F00D43E
:10016000FFFFFFC700000078000000000000000053
:100170002A2B280000000000000000000000000002
:1001800000000029000000002C1E3420212224340D
:100190002627252E362D3738271E1F2021222324DF
:1001A00025263333362E37381F0405060708090A7B
:1001B0000B0C0D0E0F101112131415161718191A17
:1001C0001B1C1D2F3130232D350405060708090A95
:1001D0000B0C0D0E0F101112131415161718191AF7
:1001E0001B1C1D2F3130354C0102E30101140103AA
:1001F000E30039002B002900427EE00000001E00D1
:10020000140004001D00E3004D001F001A0016003A
:100210001B00215222472000080007000600E200D0
:100220002C00005715000900190038004A00220070
:1002300017000A0005000000B30001570257000034
:1002400003570000417E4C0061520000045700003B
:10025000447E23001C000B0011000000B931240073
:1002600018000D0010001E144B0025000C000E009D
:10027000360030022800260012000F003700500020
:100280004C41270013003300520051004E002A0059
:1002900024023400437E4F0000002900010006576D
:1002A000E100E00000003A001E02201422020100DA
:1002B000037C3B001F1421022F02010001003C00BF
:1002C000341425022F1464002C003D003214260241
:1002D0003014640201003E001E142F00211400009F
:1002E00001000557E200000001000000007C4C0006
:1002F0000100000030000000BE003F00520051002D
:1003000023020000BD004000240021001E00010067
:10031000A9004100250022001F00370047004200CD
:100320002600230020002700010043004400450070
:1003300035142702AA002A0035142D00E50001001B
:10034000000029002B003900E100E00000001E0041
:10035000140004001D00E30001001F001A00160035
:100360001B0001000100200008000700060001003A
:100370002C002100150009001900E20001002200F4
:1003800017000A00050000000100075701000000E7
:100390001000000001004C00085700000957000041
:1003A000010023001C000B001100000001002400CC
:1003B00018000D0010000100010025000C000E00C7
:1003C000360001000100260012000F003700500027
:1003D00001002700130033005200510001002A00E1
:1003E00001000100E5004F00000005010980A101A6
:1003F00085031A81002A8F00168100268F0095013F
:1004000075108100C0050C0901A101850419012A9C
:10041000A002150126A002950175108100C00501FA
:100420000906A1018506050719E029E71500250140
:100430009508750181020507190029EF15002501AE
:1004400095F07501810205081901290595057501C9
:100450009102950175039101C00660FF0961A10138
:100460000962150026FF00952075088102096315B1
:100470000026FF00952075089102C005010906A11C
:1004800001050719E029E715002501950875018187
:10049000029501750881010507190029FF1500263D
:1004A000FF0095067508810005081901290515004A
:1004B0002501950575019102950175039101C0090A
:1004C000025B00030100A0FA09040000010301011E
:1004D00000092111010001224400070581030800E1
:1004E00001090401000203000000092111010001BB
:1004F00022220007058203200001070503032000D4
:10050000010904020001030000000921110100019A
:10051000226F000705840320000112010002000081
:100520000008973274490001010203011A033600E2
:100530007000760070006E002F00670061003000D0
:100540006F0061007700000016034500720067002D
:100550006F0064006F007800200045005A00000022
:1005600028035A0053004100200054006500630036
:1005700068006E006F006C006F006700790020005B
:100580004C0061006200730000000403090438009D
:10059000E2000000E2003800000011241FBECFEF8F
:1005A000DAE0DEBFCDBF12E0A0E0B1E0EEE4FDE4B2
:1005B00002C005900D92A833B107D9F723E0A8E354
:1005C000B2E001C01D92A63FB207E1F70E94930F6F
:1005D0000C94A52615CDA2E0B0E0E1EFF2E00C947A
:1005E0001F26FC012481222309F4D0C57C0161E08F
:1005F00072D68C01F7018581882309F428C3E09124
:10060000C603F091C703309709F460C00E171F07A7
:1006100009F45CC0FF27EA30F10540F454E0EE0F26
:10062000FF1F5A95E1F7E25FFE4F02C0E0E0F0E005
:1006300085818460858311830083CF010E945020CF
:100640001092C40361E0C70146D68C0181309E47F9
:1006500009F040C0F7018581882309F4FDC290911B
:10066000600281E0890F8770987F853020F4892BA4
:100670008093600202C09093600280916002877054
:10068000FFEF8F9FC00111249595879595958795CC
:100690009927909389008093880090938B00809392
:1006A0008A0090938D0080938C004091600250915D
:1006B000610260916202709163028FE090E00E949B
:1006C0007626809188020E94F40BC6C20130FEE7B4
:1006D0001F0729F202342EE7120709F4D6C050F49E
:1006E000023247E4140709F4EBC001345EE7150752
:1006F00061F000C103348EE7180709F4CCC004345C
:100700009EE7190709F4D0C0F5C0F7018581882359
:1007100009F443C188EE91E09A8389833AE0632E1D
:10072000CE0101960E94F620882309F436C181305B
:1007300009F050C0CE0101960E94F620813061F48C
:10074000CE0101960E94F620893319F460E570E02D
:1007500099C060E070E096C0823039F4CE01019615
:100760000E94F6200E94F323DBCF833039F4CE01C0
:1007700001960E94F6200E94CE23D2CF843039F514
:10078000CE0101960E94F620C12CD12C282F30E0FA
:10079000205331092A30310568F46C9CC0016D9CEE
:1007A000900D11246901C80ED91ECE0101960E9438
:1007B000F620ECCF96012115310549F0EFE9FFE075
:1007C0003197F1F700C0000021503109F4CF8111B9
:1007D000A7CFE3C0E82FF0E0E859FE4F7490282F30
:1007E00026952695269530E0F901E85AFE4FC490EB
:1007F0008770D12C082E02C0D594C7940A94E2F7D2
:10080000F1E0CF22DD24F901E85BFE4FA490B12C8A
:10081000082E02C0B594A7940A94E2F741E0A422FE
:10082000BB24F901E85CFE4F8490912C02C09594A2
:1008300087948A95E2F751E085229924C114D10466
:1008400019F081EE0E94F323A114B10419F086EE91
:100850000E94F32360E070E0872D0E945A24A114C7
:10086000B10419F086EE0E94CE23C114D10419F010
:1008700081EE0E94CE238114910409F451CF60E0EF
:1008800070E08CE20E945A244BCF05E221EE41EE4B
:1008900062E47EE705C006E221EE41EE63E47EE716
:1008A000C7010E947820C1C1F7018581882319F012
:1008B00081E292E002C080E090E00E94D91FB5C1C1
:1008C000F701868182958F709581882351F0992355
:1008D00021F081E292E017D6A8C181E292E037D5FB
:1008E000A4C181E0992319F00E94E5229EC10E94D3
:1008F000DA229BC1C80197558F3F910511F008F08E
:1009000045C05801BB24FAE0AF16B1040CF08DC10C
:10091000C50124E0880F991F2A95E1F79C01225F09
:100920003E4F6901F7012581AC014D5E5E4F5A01D2
:10093000FA01808120FB80F98083F701858188237B
:1009400009F416C10E94361F90938202809381029F
:10095000F60182818F5F82839091C4038091C503E9
:10096000892B83838091DD0284834681578166854C
:100970007785C6010E943220F501808181FFF5C094
:1009800090E080E09093C6038093C703F801E8519C
:10099000FC47E730F10508F407C1F701858188239A
:1009A00009F45DC11092C303980130572332310519
:1009B00008F028C184E090E00E945F269093CF0366
:1009C0008093CE03F801E150F047E232F10520F4C4
:1009D000EA5AFF4F0C9492268091CE038160ACC0FE
:1009E0008091CF038860B4C08091CE038260A4C0A0
:1009F0008091CE0320C08091CE0388609DC08091FD
:100A0000CF031EC08091CF038260A2C08091CE032D
:100A1000806192C08091CE0380628EC08091CE03AF
:100A200080648AC00E9423238091CE03806884C0A2
:100A30008091CE03886084607FC08091CF03826004
:100A4000816086C08091CE038E7F76C08091CF0377
:100A5000877F7EC08091CE038D7F6EC08091CE0354
:100A600020C08091CE03877F67C08091CF031EC0D6
:100A70008091CF038D7F6CC08091CE038F7E5CC050
:100A80008091CE038F7D58C08091CE038F7B54C060
:100A90000E9423238091CE038F774EC08091CE0396
:100AA000877F8B7F49C08091CF038D7F8E7F50C021
:100AB0008091CE0382FB222720F991E0922790FBC0
:100AC00082F990FB83F938C08091CF03982F9095DD
:100AD00091708E7F892B90FB81F93AC08091CE0373
:100AE00086FB222720F991E0922790FB86F924C00B
:100AF0000E9423238091CE0387FB222720F991E0D7
:100B0000922790FB87F918C061E001C060E08EE099
:100B100090E00E9464261EC08091CE0384FB2227B1
:100B200020F991E0922790FB84F906C08091CE03D2
:100B3000982F909590FB80F98093CE030BC0809105
:100B4000CF0383FB222720F991E0922790FB83F9C2
:100B50008093CF036091CE037091CF0384E090E047
:100B60000E947E260E94232360C0902F812F0ACFEF
:100B7000F6014485558566857785C6010E94322039
:100B8000F501808181FF02CFC6010E94382080914B
:100B9000C6039091C7030817190709F0F7CE109202
:100BA000C7031092C603F2CEE858FF4F0C9492266A
:100BB00006E221EE41EE6AE17CE772CE07E225EE25
:100BC00045EE6BE17CE76CCE06E221EE40EE68E19B
:100BD0007CE766CE07E225EE44EE69E17CE760CE75
:100BE00006E221EE42EE6CE17CE75ACE07E225EE0A
:100BF00046EE6DE17CE754CE08E221E045EE6EE181
:100C00007CE74ECE06312CE7120771F58091C503C3
:100C10008A7A91E009F490E090933A028111AAC295
:100C200089E20E94A21F0E94BF158091DC0287709A
:100C300009F4ACC2F7018581882309F4A7C2809129
:100C4000CF0382FFA3C282E00E9414169FC201302C
:100C50003EE7130709F03ECD01E01EE79ECE0631C8
:100C60004CE7140709F488C29801205E324520320F
:100C70003105A8F4811115C00F7181E090E09C014D
:100C800002C0220F331F0A95E2F78901622F83E029
:100C900090E00E946426802F0E94EF22C6CF882316
:100CA000B1F103303CE71307E1F048F401155CE7CC
:100CB000150791F001308CE71807C9F028C00B35F3
:100CC0009CE7190709F10C35ECE71E07A9F00A3576
:100CD0001C47E9F481E019C081E02DD30E94DE1E9B
:100CE000A4CF6FEF7FEF80E090E00E947E2680E04F
:100CF00022D30E94D31E99CF8091CF0382FB8827F5
:100D000080F991E0892701C080E00E942B16F7014D
:100D1000878190850097B9F4F70185810081118161
:100D2000882349F0C8010E942F22D82E682FC801BD
:100D30000E949E2204C0C8010E946A22D82EB801D7
:100D40008D2D0E947F140E949C148C01F701D58088
:100D5000C680C2949FE0C9228091DC028770F9F0BE
:100D6000DD20E9F0812F807F803461F080E2800F08
:100D70008830A8F0812F807E803221F4023078F014
:100D8000CC2069F08091CF0382FF09C082E00E94ED
:100D900014168091DC028770BB24B3948111B12CAE
:100DA000A12EA2948FE0A8228A2D90E08C3091058C
:100DB00008F0BFC1FC01E158FF4F0C949226812F2F
:100DC000807F1F70882311F01295107FDD20B9F00D
:100DD000112309F49CC180E2800F883010F00111CA
:100DE00006C09091C503192B1093C50305C09091BF
:100DF000C403192B1093C4030E94BF1588C1802F10
:100E00000E94CE23112309F494C180E2800F883020
:100E100060F1002351F1812F0E94B11529C0812F6B
:100E2000807F1F70803211F01295107F002321F017
:100E3000013009F44CC055C08091CF0382FD1BC026
:100E4000DD2069F0112339F09091C503192B10931F
:100E5000C5030E94BF1580E00E94F3236AC180E0B1
:100E60000E94CE23112309F464C1812F0E94B8157A
:100E70000E94BF155EC1DD2081F0CC20B1F1F1E010
:100E8000CF1257C19091DD02812F8923181709F4E1
:100E900050C1192B1093DD024CC1C1104AC1812FE2
:100EA0000E94BD238091DD02912F982329F0912F7C
:100EB000909589238093DD0220913B02812F82232C
:100EC00009F437C11095212320933B0232C1DD2064
:100ED00029F021E02C1508F42CC107C0C11029C14C
:100EE00015C0DD2031F0C11012C1812F0E94C42332
:100EF00020C1CC2059F0093309F018C13FEF47EE6B
:100F000053E0315040405040E1F70EC1812F0E9424
:100F1000BD230FC1812F86958695837019F081308E
:100F200059F007C1DD2019F0C801937002C080E0BC
:100F300090E00E94FE1F04C1DD2019F0C8019370EB
:100F400002C080E090E00E94D91FFAC0812F837018
:100F5000A9F5D110F2C0402F429546954770440F35
:100F6000440F802F8F7090E09C01042E01C0220F4F
:100F70000A94EAF704FF08C08FE090E001C0880FF0
:100F80004A95EAF7809501C080E016951695137092
:100F9000123069F088F490918402113019F0822B9C
:100FA000892302C0922B892B0E94EF22C6C0822B7C
:100FB000909184028927F8CF822BF6CFDD2019F09B
:100FC000812F817001C08695882309F4B6C0402F17
:100FD000429546954770440F440F802F8F7090E0E4
:100FE0009C01042E01C0220F0A94EAF704FF08C0F6
:100FF0008FE090E001C0880F4A95EAF7809501C024
:1010000080E0169516951370123059F078F490918F
:101010008802113019F0822B892309C0922B892B69
:1010200006C0822B90918802892701C0822B0E94E2
:10103000D32283C01F70DD2039F0812F0E94E5226A
:10104000802F0E94C42379C0802F0E94BD23812F4E
:101050000E94DA2272C0023F49F128F4003F41F0B9
:10106000013FF9F050C0033F41F1043FB1F04BC0E4
:10107000DD2071F0C1105DC01F7181E090E0012E94
:1010800001C0880F0A94EAF790918802892720C04E
:1010900081E08C1508F44DC0EFCF8091CF0382FD25
:1010A0001AC0DD2029F0812F8F7120C0DD20D9F3F7
:1010B000812F8F710E94DA223CC0DD2041F01F7128
:1010C00081E0012E01C0880F0A94EAF701C080E098
:1010D0000E94D3222EC0DD2061F0812F8F7198E015
:1010E000899F9001112423602093DC020E94E52255
:1010F00020C081E00E941416E1E0EC15D0F482E0FB
:101100000E94141616C0DD2021F0CC2061F2802F41
:10111000A3CECC2069F2093349F4FFEF27EE33E088
:10112000F15020403040E1F700C00000802F0E94C5
:10113000CE2388EF8A0D843018F40E94232016C035
:10114000BB20A1F08091DC0280FD10C0F701158268
:101150008695869586950E94E522C7013CDA8091A6
:10116000DC028695869586950E94DA2260E0C701AA
:10117000B2D00CC085E355CD80913A02811104C0F4
:1011800089E20E94741F4FCD85E3FBCF2296EEE0EB
:101190000C943B269C013A9521153F4130F5BC014A
:1011A00066277270AC01442754709C012227387066
:1011B00094FF0FC090FF02C080E101C080E0672B68
:1011C00009F08062452B09F08064232B79F0806858
:1011D0000895892F8170672B09F08260452B09F0F3
:1011E0008460232B19F08860089580E00895FC0145
:1011F0008281813039F4958192FD12C090FF10C038
:1012000082E00895823039F4858182FD06C080FD38
:1012100006C083E0089586E0089585E0089584E09F
:10122000089590E0FC01EB52FE4F208121111AC07D
:10123000F894FC01E953FE4F8081E82FE295EF70AE
:10124000F0E031A1282F2F7081E090E001C0880FDD
:101250002A95EAF7982F9095932391A392A1892B31
:1012600082A3789408958FE39CE90197F1F700C079
:10127000000010924F0208958FE39CE90197F1F767
:1012800000C0000010924B020895B1DF80934F021E
:10129000843019F481E00C94D3220895A8DF809360
:1012A0004B02833019F484E00C94D3220895982FD4
:1012B00092959F7019F0892F24E001C020E0982FAB
:1012C0009695969511F02E5F892F982F969509F097
:1012D0002F5F822F0895A6E0B0E0E1E7F9E00C94DB
:1012E0002A26FC0187819085009709F5CF0126E029
:1012F000DE01119601900D922A95E1F7FC012581FE
:1013000089819A81222359F0662349F00E942F2275
:10131000182F682F89819A810E949E2203C00E9403
:101320006A22182F69817A81812F0E947F14269664
:10133000E3E00C9446260E9423232FEF84E39CE0F5
:10134000215080409040E1F700C000000895CF9305
:10135000DF93EC010E94CE23CE01805E91090897B5
:1013600010F0209729F4CE0115DF0E94BD2304C0A0
:10137000CE0110DF0E94AC23DF91CF9108958FE35F
:101380009CE90197F1F700C0000080915102833081
:1013900029F0853031F0813039F403C08EE292E0DB
:1013A00002C08DE292E0D3DF1092510208958FE3E4
:1013B0009CE90197F1F700C0000080914D02833055
:1013C00029F0853031F0813039F403C08BEA90E0A8
:1013D00002C08EEA90E0BBDF10924D0208958FE3C9
:1013E0009CE90197F1F700C0000080914902833029
:1013F00029F0853031F0813039F403C08BEA90E078
:1014000002C08EEA90E0A3DF1092490208958FE3B4
:101410009CE90197F1F700C00000809147028330FA
:1014200029F0853031F0813039F403C08EE292E04A
:1014300002C08DE292E08BDF1092470208958FE3A5
:101440009CE90197F1F700C00000809145028330CC
:1014500029F0853031F0813039F403C08EE290E01C
:1014600002C08EE192E073DF1092450208958FE38F
:101470009CE90197F1F700C000008091430283309E
:1014800029F0853031F0813039F403C08FE292E0E9
:1014900002C08FE194E15BDF1092430208958FE375
:1014A0009CE90197F1F700C0000080914102833070
:1014B00029F0853031F0813039F403C08BEA90E0B7
:1014C00002C08EEA90E043DF1092410208958FE35C
:1014D0009CE90197F1F700C0000080913F02833042
:1014E00061F018F4813049F00BC0843019F0853078
:1014F00021F006C08DE394E002C081E290E027DF96
:1015000010923F020895CF93DF93EC01805E910922
:10151000089710F0209729F4CE013CDE0E94C423E6
:1015200004C0CE0137DE0E94B3238C2F0E94F32328
:10153000DF91CF9108950F931F93CF93DF938C0189
:10154000C99719F0C0E0D0E002C0C0E5D0E0C80102
:10155000DADF209741F08FE99FE00197F1F700C0B3
:1015600000002197F6CFC801F2DEDF91CF911F91E5
:101570000F910895CF93DF93EC018A81833049F472
:101580008DE292E0D8DF8DE292E0D5DF8DE292E04D
:10159000D2DF8A81843018F08DE292E0CCDFDF91D7
:1015A000CF910895E7CF0895CF93DF93EC018A811F
:1015B000833049F48EE192E0BEDF8EE192E0BBDF42
:1015C0008EE192E0B8DF8A81843018F08EE192E0FB
:1015D000B2DFDF91CF910895CF93DF93EC018A8141
:1015E000833049F48FE194E1A6DF8FE194E1A3DF3A
:1015F0008FE194E1A0DF8A81843018F08FE194E1DB
:101600009ADFDF91CF910895CF93DF93EC018A8128
:10161000833049F48EEA90E08EDF8EEA90E08BDF33
:101620008EEA90E088DF8A81843018F08EEA90E0BC
:1016300082DFDF91CF910895E7CF0895E5CF089538
:10164000CF93DF93EC018A81833049F481E290E00B
:1016500072DF81E290E06FDF81E290E06CDF8A81EF
:10166000843018F081E290E066DFDF91CF91089539
:10167000BEDD80935102833029F0853031F0813016
:1016800051F406C08EE292E005C08DE292E053DF95
:101690008DE292E038CF0895AADD80934D02833029
:1016A00029F0853031F0813051F406C08BEA90E0AA
:1016B00005C08EEA90E03FDF8EEA90E024CF0895E7
:1016C00096DD80934902833029F0853031F08130F6
:1016D00051F406C08BEA90E005C08EEA90E02BDF63
:1016E0008EEA90E010CF089582DD80934702833028
:1016F00029F0853031F0813051F406C08EE292E05D
:1017000005C08DE292E017DF8DE292E0FCCE0895F5
:101710006EDD80934502833029F0853031F08130D1
:1017200051F406C08EE290E005C08EE192E003DF46
:101730008EE192E0E8CE08955ADD80934302833033
:1017400029F0853031F0813051F406C08FE292E00B
:1017500005C08FE194E1EFDE8FE194E1D4CE0895EE
:1017600046DD80934102833029F0853031F08130AD
:1017700051F406C08BEA90E005C08EEA90E0DBDE13
:101780008EEA90E0C0CE089532DD80933F02833030
:1017900049F018F4813081F00895843039F08530B3
:1017A00041F0089581E290E0AEDE06C08DE394E062
:1017B00005C081E290E0BFDE81E290E0A4CE2798F0
:1017C0002F982F98089526982E982E98089525984A
:1017D0002D982D980895279A2F9A0895269A2E9A33
:1017E0000895259A2D9A0895CF93DF93D82F5FDD22
:1017F000C82F5E98ECDFE7DFE2DF8C2F90E0FC0182
:101800003197E730F10570F4E557FF4F0C949226BD
:10181000E8DF08C0E6DFE2DF05C0E3DF02C0E1DFAA
:10182000DDDFD9DF8D2FDF91CF910895A0E2B0E009
:10183000ECE1FCE00C942A26182F80918502882385
:10184000D9F080918402812B32DD90913D0289177D
:1018500099F080933D028FE39CE90197F1F700C076
:10186000000085E0898380913D028A838EEF8B831F
:10187000CE0101960E940519812FA096E3E00C94F9
:101880004626A0E2B0E0E7E4FCE00C942B269FEFB4
:1018900099838A83CE0101960E940519A096E2E001
:1018A0000C944726A1E0B0E0E8E5FCE00C94292682
:1018B0008730F8F420910C0130910D01232BD1F5E4
:1018C00021E030E0A90102C0440F551F8A95E2F7DC
:1018D000CA01809589830AE010E0AE014F5F5F4F37
:1018E00062E180E40E94352590930D0180930C0104
:1018F00021C090E0FC01EB52FE4F208121111AC063
:10190000F894FC01E953FE4F8081E82FE295EF70D7
:10191000F0E031A1282F2F7081E090E001C0880F06
:101920002A95EAF7932F982B91A392A1809589236A
:1019300082A378942196E4E00C9445260F931F939C
:10194000CF930CED11E0C7E0F80181918F01811177
:1019500002C08C2F66DCCF5FCE30B1F7CF911F91E4
:101960000F910895A1E0B0E0E8EBFCE00C9429268B
:10197000082F8730C8F480910C0190910D01892BBC
:10198000D9F519820AE010E021E030E0AE014F5FA6
:101990005F4F63E180E40E947B2590930D0180936B
:1019A0000C018981809529C07DDFA1ECB1E020E0A8
:1019B00030E010E051E04D91E42FE295EF70F0E05F
:1019C00080A190E04F7002C0959587954A95E2F707
:1019D00080FD07C0852F022E01C0880F0A94EAF708
:1019E00001C080E0182B2F5F3F4F2630310519F7DB
:1019F000802F17DC812F01C080E02196E4E00C9459
:101A00004526CF93DF93A1ECB1E047EC51E061E0D4
:101A100070E0F8948D91E82FE295EF70F0E021A14D
:101A20008F70EB0102C0CC0FDD1F8A95E2F7CE016B
:101A30009C2F9095922391A392A1892B82A37894B5
:101A40004A175B0731F7DF91CF910895A2E0B0E02C
:101A5000ECE2FDE00C94292680E290E090930D01E9
:101A600080930C0180913C0281110EC00E94BE2423
:101A700081E080933C022FEF83ED90E32150804082
:101A80009040E1F700C0000019828FE38A830AE0EA
:101A900010E022E030E0AE014F5F5F4F60E080E495
:101AA0000E94352590930D0180930C01892B69F4D8
:101AB00022E030E0AE014F5F5F4F6CE080E40E94B7
:101AC000352590930D0180930C0180910C01229695
:101AD000E4E00C944526A3E3B0E0E1E7FDE00C94DC
:101AE0001B264AA75BA76CA77DA78EA79FA791116E
:101AF0001092C4038E010F5D1F4F89E0F80111920F
:101B00008A95E9F786E0FE01BA96D80101900D9218
:101B10008A95E1F78DA181110CC009A11AA12BA111
:101B20003CA14DA15EA16FA178A589A50E94422389
:101B3000F6C161E0C801CFDB80918502882389F07E
:101B40008EA1882311F086E001C087E0898389A1F6
:101B50008A838AA18B838EEF8C83CE0101960E94AB
:101B6000051961E0C801B7DB61E0C801B4DB5C01C5
:101B70008035FCE79F0739F48EA18823A9F081E026
:101B80008093C001CAC181359C4731F48EA188235E
:101B900059F00E949021C1C182E5A8168CE7B806D1
:101BA00019F48EA1811111C062EBE62E61E0F62ED0
:101BB000512C812C912C66246394712C44244394E1
:101BC000FE013196F9ABE8AB3AC08091C0018823A1
:101BD000B1F2DFCFFFEFCF16DF0609F44CC1F701FA
:101BE0004481411147C01091C001212F122F117063
:101BF0003EA1F70125818681332309F4E3C0112337
:101C000009F4E0C02223C9F1930102C0220F331F5F
:101C10009A95E2F721503109F701868190E0281763
:101C2000390709F441C0512AFFEF8F1A9F0A27E0B4
:101C3000E20EF11C82E08816910409F41EC1F7013E
:101C4000208131816FEF8FEF90E0C92ED12CF6010A
:101C5000EE0FFF1FE20FF31F45915491A416B50636
:101C600011F0C62ED82E452B09F4B4CF9F5F6C2DF2
:101C70008D2DEBCF20E030E0B9CF93010C2C01C0CB
:101C8000220F0A94EAF7822B868320914903309130
:101C90004A032233310508F0B7CF22E330E0309316
:101CA0004A0320934903B0CFC090BF03D090C00334
:101CB000C114D10451F00E94361F8C199D09C3979D
:101CC00020F0F701448211E0AECF8091BD03209156
:101CD000BE032AABA0E0B0E02AA9821709F460C0D5
:101CE000282F30E0F901EE0FFF1FEB54FC4F40812D
:101CF00051814230510548F497E0949FD001959F5F
:101D0000B00D1124AE54BE4F02C0A0E0B0E03C9034
:101D100011962C90119770E090E060E0E32DF22D89
:101D2000E60FF11DE60FF11DC590D490C114D1044A
:101D3000C1F0F701008191819BAB90E0E02FFBA9FE
:101D4000E90FF11DE90FF11D459154914115510520
:101D500031F0C416D50609F471E09F5FEFCF6F5FD5
:101D6000DDCF7723B9F0961708F4D0C01097A1F013
:101D700014964C921497AE15BF0509F454CF909168
:101D8000BD03891309C0C901019683709927809307
:101D9000BD0302C0A0E0B0E0C901019683709CCFF2
:101DA000AE15BF0509F43FCF90E0FC01EE0FFF1F19
:101DB000EB54FC4F91828082019683709927809327
:101DC000BE0331CF211112C0930102C0220F331F75
:101DD0009A95E2F72150310990E028173907F1F57B
:101DE0004423E9F1C4010E94FF2038C090E09C0127
:101DF00021503109282339230C2C02C09595879551
:101E00000A94E2F7232B39F580FF25C0F701828180
:101E10009381892BE1F089E0E8A9F9A911928A95CB
:101E2000E9F70E94361F282F8B839C8384E08D83E3
:101E3000F70182819381782F8887998709811A8198
:101E40003C8144E05E816F81892F0E944223F7012B
:101E5000158211E004C0182F117001C010E0C301F9
:101E60000C2C01C0880F0A94EAF78095F70196813F
:101E700089238683D8CE10E0D6CE8EA1882379F12F
:101E8000552069F10E94361F9093C0038093BF03D1
:101E900080914C038830A0F591E0980F90934C030B
:101EA00099E0FE01B196DE01119601900D929A958E
:101EB000E1F7EDE08E9FC0011124835B9C4F29E088
:101EC000FE013196DC0101900D922A95E1F72FEF8A
:101ED0003FEFFC0132872187B486A38611C0909121
:101EE000BD038091BE03981719F00E949C2108C081
:101EF0000E9433211092C0031092BF030E947B21E5
:101F000081E0511080E080FD08CE09C0E114F104A9
:101F100009F440CFF701448286CE81E0F4CFE39606
:101F2000E2E10C943726A6E6B0E0E9E9FFE00C9484
:101F30001C2685B7806885BF85B7806885BF84B754
:101F4000877F84BF0FB6F894A89580916000886160
:101F500080936000109260000FBE90E080E80FB6A2
:101F6000F89480936100909361000FBE81E08093AC
:101F7000B1018CE493E190933902809338020E947E
:101F8000251C0E94441C8091E20084608093E20042
:101F90007894809117038823A1F01091E9001F70B5
:101FA0009091EC00892F817090FD80E8182B1092A1
:101FB000E9008091E80083FD0E940A191F701093C8
:101FC000E90082E084BD93E095BD9AEF97BD8093D0
:101FD0006E003CDD90E090930D0180930C01AEDC2F
:101FE00010DDE2E5F2E0A4E6B2E011921D9222E0FB
:101FF000E036F207D1F780E090E00E945F26833E52
:102000009E4FB9F163EE7EEF80E090E00E947E2665
:1020100060E082E090E00E94642681E08093840288
:1020200061E083E090E00E94642660E074E184E077
:1020300090E00E947E26109260021092610210923F
:1020400062021092630284E0809360024091600219
:102050005091610260916202709163028FE090E0A2
:102060000E94762640E050E0BA0183E190E00E94B1
:10207000762682E090E00E9452268093720284E0ED
:1020800090E00E945F269093CF038093CE030E943E
:102090005918FFEF23EF81E0F15020408040E1F735
:1020A00000C000000E9459188091640280FF08C09F
:1020B0006FEF7FEF80E090E00E947E260E94DE1EA0
:1020C00083E090E00E9452260E94EF2280918802D5
:1020D0008BDB89EA8093800089E0809381002498DB
:1020E0002C983F98479A54985C9A55985D9A6E98A8
:1020F000769A569A8FE090E00E945A26609360028A
:1021000070936102809362029093630267701FEF85
:10211000169FB0011124759567957595679577277A
:10212000709389006093880070938B0060938A009D
:1021300070938D0060938C005E9849DB44DB3FDB3D
:102140008FEF90E0909389008093880090938B00AC
:1021500080938A0090938D0080938C0042DB9FEFE8
:10216000E0E7F2E09150E040F040E1F700C000000D
:1021700035DB2FEF80E792E0215080409040E1F77F
:1021800000C0000028DBEFEFF0E722E0E150F04074
:102190002040E1F700C000001ADB8FEF90E7E2E09B
:1021A00081509040E040E1F700C000000CDBFFEF01
:1021B00020E782E0F15020408040E1F700C00000BD
:1021C000FEDA809160028770189FC00111249595F6
:1021D0008795959587959927909389008093880096
:1021E00090938B0080938A0090938D0080938C0055
:1021F0005E98EDDAE8DAE3DA80E091E09093CB03E1
:102200008093CA0308E110E0A2E7EA2EA2E0FA2ECA
:10221000DD24D394CC24C39480911703853009F036
:102220004DC050E4B52E60E1A62E72E1972E80914C
:102230001703853009F03EC080911703843009F1FF
:102240001092D0030FB6F894A895009360000FBECB
:10225000B092600083B7817F846083BF83B7816061
:1022600083BF7894889583B78E7F83BF0FB6F89429
:10227000A895809160008861809360001092600052
:102280000FBEE4DB90E090930D0180930C0156DBD0
:10229000B8DBE4E6F2E01192EE16FF06E1F709D7AB
:1022A000E4E6F2E081918111DCC192E0E237F907C6
:1022B000C9F7BDCF0E9423230E942320FAD643E70B
:1022C000A42E42E0B42E21E832E0A4E6B2E0F5010B
:1022D00091918D9189272E173F0719F08823C1F31B
:1022E00004C0811102C06FD752C034E6832E32E0A1
:1022F000932E712CF40131904F01F501408043245D
:10230000A1F1612C55245394842D852139F1A29695
:102310006FAEA297A3967FAEA3970E94361FA59695
:102320009FAF8EAFA597A696DFAEA69791E0832DBF
:10233000852109F490E0A7969FAFA797A2964FAD8D
:10234000A297A3965FADA397A4966FADA497A59609
:102350007FADA597A6968FADA697BDDB6394550C70
:10236000F6E06F12D1CFF50130827394FFEFAF1A10
:10237000BF0A2EE07212BECF8FB7F8944091D103FE
:102380005091D2036091D3037091D4038FBF809199
:10239000C6039091C703892B11F1A0908102B090E0
:1023A00082020E94361F8A199B09893C9105B8F068
:1023B0008091C6039091C70399278A30910540F414
:1023C00024E0880F991F2A95E1F7825F9E4F02C093
:1023D00080E090E0FC01258122FF0E945020809146
:1023E000C001882359F1A090BF03B090C003A1148D
:1023F000B10421F10E94361F8A199B0920914903DB
:1024000030914A0328173907C8F49091BD03809191
:10241000BE03981759F00E949C2110924A03109213
:1024200049031092C0031092BF0308C00E943321D9
:102430001092C0031092BF030E947B210E942320B0
:1024400090918302891769F0809383028FB7F89483
:102450004091D1035091D2036091D3037091D40382
:102460008FBF80911703843009F0ECC083E0809324
:10247000E9008091E80082FFE5C08091E80085FFD7
:1024800024C00E94811D81111EC090E2A92EB12C92
:102490004E01F1E48F0E911C09C08091F100F4010E
:1024A00081934F01F1E0AF1AB10869F08091E80023
:1024B00085FDF3CF8091E8008B778093E8000E9440
:1024C000811D882399F391E001C090E08091E8009C
:1024D0008B778093E800992309F4B4C022968FADDE
:1024E0002297873009F46AC038F5823009F4AAC00F
:1024F000D8F48823C9F1813009F0A2C08093850205
:1025000084E089A38EEFB82EBAA2CE0181967DD643
:102510009091880280918402892B0E94570995E04E
:1025200099838A83BB8288C0853009F471C008F022
:102530006FC0843031F184C08A3009F46BC038F444
:10254000883009F465C0893009F462C079C08C30E4
:1025500009F476C008F474C08E3F09F071C0898315
:1025600095E09A838B8368C019828DE0E3EEF1E0F9
:10257000DE01129601900D928A95E1F78EEF8E871B
:102580005BC080918502882309F45CC023968FADDF
:102590002397811106C024968FAD24970E94DA22DA
:1025A00051C081E090E024960FAC249702C0880FC0
:1025B000991F0A94E2F70E94D32244C0C092870276
:1025C00023968FAD23978230C1F000F5882319F050
:1025D000813051F01BC024968FAD2497882311F0D1
:1025E00000D930C0F4D82EC024968FAD249788230C
:1025F00011F0F4D827C0E7D825C024968FAD2497D2
:10260000882311F0E8D81EC0DAD81CC085E019C0B4
:1026100084E017C023968FAD2397BB24B394811118
:1026200001C0B12CB0928702811103C0D0D8CBD8A1
:10263000C6D88BE08983BA82CE010196E6D502C066
:102640008FEF1FD90E94232081FF02C0C4D8E4CDA0
:10265000809188020E945709833009F4DDCDAFD8FC
:10266000DBCD80911603882309F4E1CDA9BC99BC88
:1026700009B400FEFDCF8091D8008F7D8093D800F3
:102680008091E00082608093E0008091E00081FD15
:10269000FCCF0E942323CBCD80E008959091CE0300
:1026A00092FF10C041E0282F2471243009F040E04F
:1026B00031E0282F2871283009F030E0431711F05D
:1026C0002CE0822793FF10C041E0282F2471243191
:1026D00009F040E031E0282F2871283109F030E07E
:1026E000431711F02CE082273091CF0330FF10C048
:1026F00051E0282F2171213009F050E041E0282FCE
:102700002871283009F040E0541711F029E08227A1
:1027100031FF10C041E0282F2171213109F040E044
:1027200031E0282F2871283109F030E0431711F0EB
:1027300029E0822794FD877E08958238910569F10A
:10274000B0F48133910509F475C048F489329105DC
:1027500009F467C08A32910509F471C00895853380
:10276000910509F459C089339105B9F00895833E64
:10277000910589F138F4803E9105D1F0823E9105B2
:1027800029F10895863E9105C9F1873E9105D9F159
:10279000843E910509F06CC027C02091CE0320FD36
:1027A00057C021FD55C02091CF0323FD5BC0089584
:1027B0008091CE0380FD48C08091CF0380FF48C048
:1027C0008091CE0384FD46C083EE51C08091CE033C
:1027D00082FF3CC0F5CF8091CE0382FD37C080914F
:1027E000CF0380FD35C0ECCF8091CF0381FF36C091
:1027F0008091CE0384FD2EC087EE39C08091CE0338
:1028000083FF2AC0F5CF8091CE0383FD25C0809140
:10281000CF0381FD23C0ECCF8091CE0385FD22C084
:102820001FC08091CE0385FD1BC08091CF0383FF25
:1028300019C00AC08091CE0386FD16C017C08091D2
:10284000CE0386FD13C010C089E311C082EE0FC015
:1028500080EE0DC080E00BC086EE09C084EE07C09C
:1028600085E305C089E203C08AE201C081E390E00C
:1028700008959091C5038091C403892B9091DD0246
:102880009923E1F0892B9091B001913041F490911E
:10289000CE0397FF04C09EE12BE233E003C096E035
:1028A00023E233E0F90120E0915028F03191332305
:1028B000D9F32F5FF9CF21111092DD0208952091F5
:1028C000DB029091920259E02917A9F030E0529F63
:1028D000F001539FF00D1124ED56FD4F71817613D9
:1028E00006C07081781303C07581741306C02F5F12
:1028F0003F4F2770E9CF80E0089581E008957E3052
:10290000B0F46630A0F48330A0F494E5899FF00120
:10291000112486E0789FE00DF11D1124E60FF11DD2
:10292000EE0FFF1FEE50FE4F85919491089580E0C9
:1029300001C081E090E008951F93CF93DF93FDDE07
:10294000EC01C11580E5D807E8F5C11590E4D90779
:1029500008F0A6C0C03ED10530F5CD3CD10508F049
:1029600094C0C83AD10578F4C53AD10508F083C0BF
:10297000C130D10509F47CC008F4EBC0C430D105E6
:1029800008F0EAC0E6C0C33CD10508F0E2C0C85A6E
:10299000D0E0CC0FDD1FCD50DE4F0990D881C02D87
:1029A000CE019464DAC0C11580E2D80708F0C6C031
:1029B000C11591E0D90708F06BC0C83ED10508F4F5
:1029C000CBC0C7C0C03682E5D80728F5C03492E531
:1029D000D90708F076C0C03282E5D80708F069C090
:1029E000C11592E5D90708F47EC04C2F469546954F
:1029F00080E2489FA0011124C37021E030E0C901AA
:102A000002C0880F991FCA95E2F7EA01C82BD92B9B
:102A1000CE019D68A2C0C03A82E5D807B8F48C2FD9
:102A20008F71C03892E5D90708F077C086958695F2
:102A300090E2899F90011124C37081E090E002C070
:102A4000880F991FCA95E2F79A6864C0C03C82E576
:102A5000D80708F469C0C03E92E5D90708F079C0EC
:102A6000CF71DD27DC2FCC27CE01806F906A75C037
:102A700081E090E072C0C55AD0E0C051DE4F88813D
:102A8000C82FD0E0CE01906468C0CE01906565C0CB
:102A90008D2F04DE182FCE0199274FDE1F7157C0EE
:102AA000CE0199274ADECC27DF70D06A8C2B9D2B74
:102AB00054C0CF71D0E0DC2FCC27CE01816F906A5B
:102AC0004CC08C2F8F718695869590E2899F9001DE
:102AD0001124C37081E090E002C0880F991FCA954D
:102AE000E2F79C6817C08C2F8F71D8DD95E0D695E2
:102AF000C7959A95E1F7CF70D0E0DC2FCC27282F2F
:102B000030E084FF05C084E0220F331F8A95E1F78F
:102B1000D069CE01822B932B20C090E0D82FCC27F8
:102B2000CE01846F906A19C08C2F8F71B7DD8F71C1
:102B300090E0D82FCC27CE0190620FC08D2F8F71DF
:102B4000ADDD182FCE019927F8DD1F719062912B12
:102B500004C080E090E001C0CE01DF91CF911F91D1
:102B6000089580959091C40389238093C4030895A8
:102B700080959091C50389238093C5030895809122
:102B8000B001813061F58091CE0387FF28C071DEEE
:102B900080932A0340E250E06EED72E089E293E018
:102BA0000E949826892B09F43EC080E2E9E2F3E016
:102BB000AEEDB2E001900D928A95E1F7E091CA0383
:102BC000F091CB03309779F10480F581E02D3097B7
:102BD00051F186E08093290389E293E023C049DE26
:102BE0008093210348E050E06EEF72E081E293E0D1
:102BF0000E949826892BB9F088E0E1E2F3E0AEEF7D
:102C0000B2E001900D928A95E1F7E091CA03F0914C
:102C1000CB03309741F00280F381E02D309719F01B
:102C200081E293E0099508959091DC0280958923D3
:102C30008093DC02282F277069F4981759F090913F
:102C4000CF0392FF07C08695869586950E94DA226B
:102C50001092DC0208959091CF0392FB222720F975
:102C6000281771F080FB92F99093CF036091CE0307
:102C70007091CF0384E090E00E947E2682E0D4CF62
:102C800008958091DB0290919202891719F08F5F6D
:102C90008770FBCF0895CF93DF9380918F02829549
:102CA0008F7009F04DC080918E02882309F448C0CE
:102CB0008091DB024091920250918A0260918902D8
:102CC000C0918B02D0918C0279E08417C9F190E019
:102CD000789FF001799FF00D1124DF01AD56BD4FB3
:102CE00014962C911497222341F111962C9111974F
:102CF000251323C02C91261320C015962C911597CF
:102D000021111BC012962D913C9113972C1B3D0B4A
:102D1000283C310590F480918F028F708061809300
:102D20008F02E756FD4F80818F708061808389E834
:102D300092E00E94EB02A5DF03C001968770C5CF29
:102D4000DF91CF910895A8E1B0E0E9EAF6E10C94B3
:102D500021268C0186E0F801DE01539601900D9248
:102D60008A95E1F7F8018481E58099E8892E92E05F
:102D7000992E90918D0291111FC0882309F492C160
:102D8000EE2009F441C0C8010E94FA22F82E8823DF
:102D9000D9F189E0F801D40101900D928A95E1F70B
:102DA00080918D02813031F48091890290918A0264
:102DB0000E945E2270DF78C1F801D080C180A280BD
:102DC000B380F0908E0220918B0230918C02FF2014
:102DD00009F40DC1A501421B530B483C510508F0F5
:102DE000B3C0882309F460C180918F02282F207F0F
:102DF00090918A02222361F09C1509F467C0C801F2
:102E00000E94FA22811174C0C8010E94EB024AC1DB
:102E10009C111CC0909189029D1118C04091900294
:102E200050919102278130854217530779F4E110C0
:102E30000DC08F70806180938F0289E892E00E94BC
:102E4000EB0280918F02F80186832AC1E11038C01D
:102E500040E06C2D8D2D33DD40E06C2D8D2D2FDD70
:102E6000E82E81111DC1DB8ACC8A8B899C890E9446
:102E70005E22292F22952F70243020F49F7022305B
:102E800028F009C02A50223080F014C0992349F05C
:102E9000811107C013C0992321F0F8019681907F1A
:102EA00069F0805E883030F409C0803F38F0815F7F
:102EB000833020F0C8010E94EB02EF2CFE2CF4C0FE
:102EC00080918F02816080938F02EAC09091890285
:102ED0009D1195CF4091900250919102F801278168
:102EE00030854217530709F08ACFE11088CFB7C069
:102EF000EE2009F489CF20918F02822F82958F7066
:102F000090E00297BCF08091890290918A029B87A1
:102F10008A87BD86AC8680918D028E871F86288B1E
:102F200080919002909191029A8B898BCE010A96A2
:102F30000E94EB0289E0F801A9E8B2E001900D924D
:102F40008A95E1F7A8DEAEC090918F02292F207FED
:102F500051F489E892E00E94EB0289E0F4011192B9
:102F60008A95E9F79DC0882309F49EC080918A0262
:102F70008C1115C0809189028D1111C04091900271
:102F800050919102F801278130854217530739F497
:102F9000E11005C09683C8010E94EB027BC0C80106
:102FA0000E94FA22882309F42FCFEE2009F42CCFB7
:102FB00020918F02822F82958F7090E002970CF4FF
:102FC000B9CF8091890290918A029A838983BC82C9
:102FD000AB8280918D028D831E822F83809190021F
:102FE0009091910299878887CE010196A1CFA21A6C
:102FF000B30AF8ECAF16B10408F04CC0882309F40A
:1030000051C0FE2CEE2009F4FFCE80918A028C1173
:1030100033C0809189028D112FC020919002309190
:103020009102F801878190852817390729F5809149
:103030008F0280FD18C082958F70482F50E0411597
:10304000510589F020918F0226834F30510541F0C0
:103050008F5F982F9295907F822F8F70892B868318
:10306000C8010E94EB0289E0F801A9E8B2E00190F2
:103070000D928A95E1F718C0C8010E94FA228111C9
:1030800059CF80918F02816080938F02C8010E9486
:10309000EB020AC089E0F40111928A95E9F704C0B5
:1030A000F12C02C0FF24F3948F2D6896ECE00C9471
:1030B0003D26EF92FF920F931F93CF93DF93809162
:1030C0000C0190910D01892BD1F0809108038F5F45
:1030D00080930803811113C00E94260D90E0909305
:1030E0000D0180930C01892B51F42FEF83EC99E0B3
:1030F000215080409040E1F700C0000054D602E526
:1031000012E0C0E0D0E087E0E82EED0E8D2F0E94A7
:10311000520C8E2D0E94520C8D2F0E94B20C8F7378
:10312000F8019081891721F08083FF24F39401C076
:10313000F12C8E2D0E94B20C8F73F80197818917A4
:1031400019F0878381E001C080E0F82ACF290E942E
:103150009E0CDF5F0F5F1F4FD730A9F6CC2351F0D5
:1031600081E080930B0382D690930A038093090336
:10317000C0E023C080910B038823F9F0009109037C
:1031800010910A0373D6801B910B4497B0F04EE068
:1031900050E062E572E084E692E00E949826892B76
:1031A00051F08EE0E2E5F2E0A4E6B2E001900D928B
:1031B0008A95E1F7C1E010920B038C2FCDB7DEB7F3
:1031C000E6E00C944326A6E0B0E0E9EEF8E10C94CA
:1031D00029264CD68C01809106039091070308178D
:1031E000190779F019821A8241D6682F49815A81CC
:1031F000792F80E090E00E946B0D109307030093FD
:1032000006032696E4E00C94452640E250E0BC011B
:1032100082E060C5AAE2B0E0E0E1F9E10C942A2680
:10322000E9E1F3E081E293E02091F10021938E1730
:103230009F07D1F780911A03833009F462C030F4FC
:10324000813071F0823009F49FC0B5C08A3009F432
:103250008CC08B3009F46DC0893009F0ACC01FC040
:1032600080911903813A09F0A6C08091E800877F18
:103270008093E80080911D0390911E03892B21F417
:1032800068E08DE093E003C060E080E090E070E0F3
:10329000C3D48091E8008B778093E8008CC0809144
:1032A0001903813209F087C080911D0390911E039C
:1032B000009719F0029709F07EC08091E800877F9F
:1032C0008093E8008091E80082FD05C0809117039B
:1032D0008111F8CF70C02091F3008091F20090E04E
:1032E000922B029731F48091F100813011F08630F9
:1032F00021F48091F1008093AF018091E8008B77F9
:1033000057C080911903813A09F055C080911D037F
:1033100090911E03892B09F04EC08091E800877FB1
:103320008093E8008091E80080FFFCCF8091B0019D
:103330003AC080911903813209F03DC080911D038C
:1033400090911E03892BB9F58091E800877F8093C7
:10335000E8000ED481E090911B03911101C080E040
:103360008093B0010E94232326C0809119038132EB
:1033700011F58091E800877F8093E800F9D3809170
:103380001C038093AE0117C080911903813A99F410
:103390008091E800877F8093E8008091E80080FFBB
:1033A000FCCF8091AE018093F1008091E8008E7790
:1033B0008093E800DDD38091E80083FFEBC180912A
:1033C000190390911A03492F50E04A30510508F033
:1033D000E1C1FA01EE56FF4F0C949226803821F09D
:1033E000823809F0D7C108C0809115039091160367
:1033F000992389F082600FC080911D038F70873000
:1034000008F0C8C18093E9008091EB0085FB882714
:1034100080F91092E9009091E800977F9093E8007E
:103420008093F1001092F1007AC1282F2D7F09F0CE
:10343000B1C1882319F0823061F0ACC180911B03C7
:10344000813009F0A7C1933009F080E08093160322
:103450002EC080911B0381112AC080911D038F70A3
:103460002FEF280F263008F095C18093E9002091B6
:10347000EB0020FF1CC0933021F48091EB008062B0
:1034800014C09091EB0090619093EB0021E030E04C
:10349000A90102C0440F551F8A95E2F74093EA0044
:1034A0001092EA008091EB0088608093EB0010920C
:1034B000E9008091E800877F8093E80059D36AC1D2
:1034C000811168C110911B031F778091E300807800
:1034D000812B8093E3008091E800877F8093E80050
:1034E00047D38091E80080FFFCCF8091E3008068A3
:1034F0008093E300111102C082E001C083E0809359
:10350000170348C18058823008F044C120911B0342
:1035100030911C032C3D53E0350771F583E08A831D
:103520008AE289834FB7F894DE01139620E03EE0EB
:1035300051E2E32FF0E050935700E49120FF03C0E5
:10354000E295EF703F5FEF708E2F90E0EA3010F061
:10355000C79601C0C0968D939D932F5F243149F784
:103560004FBF8091E800877F8093E8006AE270E0B7
:10357000CE01019651D3C1C080911D0390911E03CD
:10358000432F552743305105B1F068F441305105C0
:1035900009F40FC14230510509F0FCC08BE590E001
:1035A000EFEBF4E057C04132510589F14232510549
:1035B00009F43CC0EFC0C901992781309105B9F0E9
:1035C00070F082309105D9F0039709F0E3C0ECE286
:1035D000F5E0E4918E2F90E0ECE2F5E038C0EAE807
:1035E000F5E0E4918E2F90E0EAE8F5E030C0E0E607
:1035F000F5E0E4918E2F90E0E0E6F5E028C0E8E405
:10360000F5E0E4918E2F90E0E8E4F5E020C083300F
:10361000910508F0BFC0880F991FFC01EE5CFD4FBB
:103620000190F081E02D89E090E014C08330910595
:1036300008F0B0C0FC01EE0FFF1FE45DFD4F0190EC
:10364000F081E02DDC01A75DBD4F8C9190E00097EB
:1036500009F4A0C02091E800277F2093E800209182
:103660001F03309120038217930708F49C0140E068
:103670002115310589F180911703882309F43DC094
:103680008530D9F18091E80083FD37C08091E80052
:1036900082FD2FC08091E80080FFEACF4091F300C7
:1036A0008091F20090E0942B2115310559F088307B
:1036B000910540F444914093F10031962150310935
:1036C0000196F2CF41E0089709F040E08091E800D0
:1036D0008E778093E800CCCF4111CDCF0AC0809186
:1036E0001703882351F0853041F08091E80083FD75
:1036F00004C08091E80082FFF2CF8091E8008B77D0
:103700008093E80047C0803809F044C08091E80009
:10371000877F8093E800809118038093F100809167
:10372000E8008E77C9CE811135C080911B0390913E
:103730001C039927029774F58091E800877F809396
:10374000E80010911B031093180312D2111106C048
:103750008091E30087FD02C081E001C084E0809396
:10376000170342E061EC81E022D242E261EC84E0A6
:103770001ED242E261EC82E01AD242E260EC83E0C7
:1037800016D280911703843011F081E001C082E0ED
:103790008093B1018091E80083FF10C08091E80020
:1037A000877F8093E8008091EB0080628093EB003C
:1037B00005C082E190E0EAE1F5E04CCFAA96E3E0B3
:1037C0000C9446261F920F920FB60F9211242F933E
:1037D0003F934F935F936F937F938F939F93AF9399
:1037E000BF93CF93DF93EF93FF93C091E900CF7026
:1037F0008091EC00D82FD17080FDD0E81092E900C4
:103800008091F000877F8093F000789403DD109220
:10381000E9008091F00088608093F000CD2BCF709C
:10382000C093E900FF91EF91DF91CF91BF91AF91EC
:103830009F918F917F916F915F914F913F912F91C8
:103840000F900FBE0F901F901895E8EDF0E080816B
:103850008E7F80831092E2001092DA001092E100D5
:10386000A0EEB0E08C9181608C9380818F77808313
:1038700019BCA7EDB0E08C918E7F8C9380818F7EF8
:10388000808310920C030895A0E0B0E0EAE4FCE12C
:103890000C942526C8EDD0E088818F7E8883E7EDE3
:1038A000F0E080818160808384E082BF81E080934A
:1038B0000C0388818E7F888302EE10E0F80110826D
:1038C0001092DA0081EEC82ED12CF6011082888188
:1038D0008F77888388818068888388818F7D8883BB
:1038E00019BC10921703109218031092160310922D
:1038F000150390EEE92EF12CF70180818B7F8083F8
:1039000088818160888342E060E080E050D1F601E8
:1039100080818E7F8083F8018081816080838081B7
:1039200088608083F70180818E7F808388818061B9
:103930008883CDB7DEB7E8E00C9441261F920F9242
:103940000FB60F9211242F933F934F935F936F9372
:103950007F938F939F93AF93BF93EF93FF93809148
:10396000E10082FF09C08091E20082FF05C08091E2
:10397000E1008B7F8093E1008091DA0080FF28C016
:103980008091D80080FF24C08091DA008E7F8093E0
:10399000DA008091D90080FF16C080E189BD82E104
:1039A00089BD09B400FEFDCF81E0809317038091AB
:1039B0000C0381110DC049DF67DF8091E200846054
:1039C0008093E20005C019BC1092170310920C03FB
:1039D0008091E10080FF1AC08091E20080FF16C054
:1039E0008091E2008E7F8093E2008091E20080610E
:1039F0008093E2008091D80080628093D80019BC47
:103A000085E08093170383E08093B1018091E1000A
:103A100084FF37C08091E20084FF33C080E189BD1C
:103A200082E189BD09B400FEFDCF8091D8008F7D71
:103A30008093D8008091E1008F7E8093E100809197
:103A4000E2008F7E8093E2008091E20081608093AB
:103A5000E20080911803882311F084E007C0809170
:103A6000E30087FD02C081E001C083E0809317037B
:103A700080911703843011F081E001C082E08093CF
:103A8000B1018091E10083FF2BC08091E20083FFB0
:103A900027C08091E100877F8093E10082E08093DE
:103AA0001703109218038091E1008E7F8093E1004C
:103AB0008091E2008E7F8093E2008091E20080613D
:103AC0008093E20042E060E080E071D08091F000FD
:103AD00088608093F00081E08093B1018093B00111
:103AE000FF91EF91BF91AF919F918F917F916F91D6
:103AF0005F914F913F912F910F900FBE0F901F90AC
:103B000018952091E4003091E50095E64091EC0095
:103B1000842F817040FF23C08091E80080FD1DC08C
:103B200080911703882399F0853099F08091EB00FC
:103B300085FD11C04091E4005091E5002417350740
:103B400029F3915011F09A01E1CF84E0089582E0C9
:103B5000089583E0089581E0089580E008954091FC
:103B6000E80042FFDDCF089508958091AF010895E8
:103B70008091190387FF11C08091E80082FD05C084
:103B8000809117038111F8CF11C08091E8008B77E5
:103B90000BC080911703882349F08091E80080FFD3
:103BA000F8CF8091E8008E778093E8000895982FF1
:103BB000973068F59093E900981739F07091EC0010
:103BC0002091ED005091F00003C0242F762F50E09B
:103BD00021FD02C09F5FECCF3091EB003E7F309320
:103BE000EB003091ED003D7F3093ED003091EB0024
:103BF00031603093EB007093EC002093ED00509314
:103C0000F0002091EE0027FDE5CF80E008958F7051
:103C10008093E90081E0089520911F0330912003F3
:103C20002617370748F06115710539F42091E8002F
:103C30002E772093E80001C0B901FC0120E0611556
:103C4000710579F1809117038823F1F18530F1F145
:103C50008091E80083FD3CC08091E80082FD2EC089
:103C60008091E80080FFEBCF2091F3008091F2007B
:103C700090E0922B6115710551F08830910538F470
:103C800021912093F100615071090196F3CF21E059
:103C9000089709F020E08091E8008E778093E80093
:103CA000CECF2111CFCF0AC080911703882361F0B6
:103CB000853061F08091E80083FD0AC08091E800C2
:103CC00082FFF2CF80E0089582E0089583E00895B6
:103CD00081E008950F931F93CF93DF938B01EA0147
:103CE000909117039430A1F58F708093E9008FEFC6
:103CF0009091E800815095FD06C095ED9A95F1F7F9
:103D000000008111F5CF8091E80085FF21C0F9DE28
:103D1000811115C0209789F08091E80085FD06C0CB
:103D20008091E8008E778093E800F1CFF8018191CF
:103D30008F018093F1002197EDCF90E001C0982F83
:103D40008091E8008E778093E80081E0911101C0B6
:103D500080E0DF91CF911F910F91089543E050E0F3
:103D6000BC0184E0B7CF40E250E0BC0184E0B2CFB8
:103D7000CF93DF93EC0148E050E0BC0181E0AADF83
:103D800088E0FE01ADE0B3E001900D928A95E1F785
:103D9000DF91CF910895603229F4BC0140E250E0F8
:103DA00082E098CF08959AE088E10FB6F894A8953C
:103DB000809360000FBE90936000FFCFF89481E085
:103DC0008093E00080E28093D800E9ECF0E010827C
:103DD0008FE19EE40197F1F700C000001DBA109238
:103DE00068001CBC10BE1FBA10927A0010926E00C0
:103DF00010926F0010927100109272001082ECEB22
:103E0000F0E0108214B817B81AB81DB810BA1082B2
:103E100015B818B81BB81EB811BA0C94003F089515
:103E200078941F920F920FB60F9211248F939F9345
:103E3000AF93BF938091D1039091D203A091D3030C
:103E4000B091D4030196A11DB11D8093D10390932D
:103E5000D203A093D303B093D403BF91AF919F91AA
:103E60008F910F900FBE0F901F9018952FB7F89459
:103E70008091D1039091D203A091D303B091D40348
:103E80002FBF08951F920F920FB60F9211248F9398
:103E90009F93AF93BF938091D003811113C0809102
:103EA000D1039091D203A091D303B091D403419652
:103EB000A11DB11D8093D1039093D203A093D3038E
:103EC000B093D403BF91AF919F918F910F900FBE8C
:103ED0000F901F901895CF93DF93EC01C7DF8C1BD9
:103EE0009D0BDF91CF9108959091B001913021F415
:103EF0009091CE0397FD03C0E1E2F3E01DC0E82FEF
:103F0000E695E695E695EE31E0F4F0E0E75DFC4FEE
:103F1000877021E030E0A90102C0440F551F8A9547
:103F2000E2F7CA01809592818923828308953196B0
:103F300053E0E732F50729F092818913F8CF128216
:103F4000F6CF08959091B0019130D1F49091CE03C5
:103F500097FF16C0E82FE695E695E695EE3140F519
:103F6000F0E0E75DFC4F877021E030E0A90102C07E
:103F7000440F551F8A95E2F7CA019281892B16C01A
:103F8000A3E2B3E0EFEF90E02D91821789F0EF3FCD
:103F900019F4211101C0E92F9F5F9630A9F7EF3F77
:103FA00039F00E2E000CFF0BEF5DFC4F828308955D
:103FB0000895A3E0B0E0EEEDFFE14DC62091CC0303
:103FC0003091CD0328173907B1F09093CD0380933A
:103FD000CC03E091CA03F091CB03309761F00084E9
:103FE000F185E02D309739F024E029839B838A8383
:103FF000CE01019609952396E2E049C6A3E0B0E020
:10400000E3E0F0E228C62091C8033091C9032817E5
:104010003907B1F09093C9038093C803E091CA03B4
:10402000F091CB03309761F00084F185E02D30975B
:1040300039F023E029839B838A83CE010196099579
:104040002396E2E024C6E091CA03F091CB033097B7
:1040500039F00190F081E02D309711F00995089525
:1040600080E008954115510511F0FA010995089570
:10407000CF93DF93EC014A855B856E857F85F2DF08
:104080008B810E94B1158C810E94B8150E94BF15CA
:1040900086E0FE0111928A95E9F7DF91CF910895AC
:1040A000CF93DF93EC018D8181FD16C082608D83FB
:1040B0009091C4038B81892B8093C4039091C50395
:1040C0008C81892B8093C5030E94BF154885598533
:1040D0006E857F85CE01C6DF1092C7031092C6039E
:1040E0008D8180FD02C0CE01C3DFDF91CF910895A5
:1040F000EF92FF920F931F93CF93DF93C42FD22F92
:10410000FC0185818823A1F04093C303AFDE909327
:10411000C2038093C10380E28C0F883008F062C034
:10412000C77081E001C0880FCA95EAF72DD35AC045
:104130008091C30348133BC0E090C103F090C203D9
:1041400095DE8E199F09883C910588F510E21D0FB8
:10415000CD17D9F080E28C0F883038F4C77081E039
:1041600001C0880FCA95EAF708D3183060F581E0DE
:104170009D2F977001C0880F9A95EAF705D30933F0
:1041800041F560E570E089E327C0093319F460E583
:1041900070E002C060E070E0802F8CD3183010F522
:1041A000D77081E001C0880FDA95EAF70AC080E293
:1041B0008C0F8830B8F4C77081E001C0880FCA95B1
:1041C000EAF7DBD20FC0093349F460E570E089E318
:1041D00008C060E070E0802F6DD3E2CF60E070E057
:1041E000802F68D3CDB7DEB7E6E04DC5DC01ED9199
:1041F000FC91119784913196ED93FC930895AC0155
:104200008091BD036091BE03982F961759F1292F15
:1042100030E0F901EE0FFF1FEB54FC4F0190F081ED
:10422000E02DE417F507C9F44230510548F467E082
:10423000649FF001659FF00D1124EE54FE4F02C003
:10424000E0E0F0E041E0448398130CC02F5F3F4F63
:10425000237033272093BD0308952F5F3F4F922F84
:104260009370D3CF0895EF92FF920F931F93CF9344
:10427000DF9380914C038823D1F1C0914B038DE0F3
:10428000F82E80914C03C81770F5EE24E394EC0EE1
:10429000E0924B03D0E0FC9EF001FD9EF00D112456
:1042A000E35BFC4F84818823E1F087819085892B33
:1042B00021F481859285019651F40081118122813A
:1042C000338144815581668177818085DBD1FC9E75
:1042D000F001FD9EF00D1124E35BFC4F148210925F
:1042E000C403CE2DCECF10924C0310924B03CDB70A
:1042F000DEB7E6E0C8C410924A03109249038091E9
:10430000B701811104C01092B6011092B8018091DA
:10431000BE01811104C01092BD011092BF01089529
:104320001092C0031092BF031092C0018091BE038F
:104330008093BD03E0DF97CFA0E0B0E0E1EAF1E2D7
:104340007AC4C091BD0397E0892E01E010E02DE012
:10435000922E34E0232E8091BE03C81709F479C051
:10436000D0E0FE01EE0FFF1FEB54FC4F80819181E6
:104370008230910540F4889ED001899EB00D1124B1
:10438000AE54BE4F02C0A0E0B0E014962C9114973A
:1043900021115CC060904C034DE453E020E030E01C
:1043A000712C261508F051C0FA01C384D4844D90B5
:1043B0005C9011976FEF7FEF312CA32CB12CF5019E
:1043C000EE0FFF1FE40DF51DE590F490CE14DF0411
:1043D00009F4B501E114F10411F03394EECF6F3F0D
:1043E000FFEF7F0769F1F80102C0EE0FFF1F6A952A
:1043F000E2F77E2AB801032C02C0660F771F0A94E9
:10440000E2F761507109E72DF0E06E177F07B1F414
:1044100012964D915C911397929EF001939EF00D30
:104420001124E35BFC4F5087478324821082118262
:1044300092878187F1E01596FC9307C0FA011482F8
:104440002F5F3F4F435F5F4FACCFD9DE2196C370E4
:1044500082CF09DF50DFCDB7DEB7E2E108C4CF92EB
:10446000DF92FF920F931F93CF93DF936C01009124
:10447000880280918402082BC7E0D0E010E0C801D8
:104480000C2E02C0959587950A94E2F780FD04C032
:104490002197A8F7F12C09C0FC2EB6018C2F0E94A1
:1044A0007F140E949C14019799F38F2DDF91CF9177
:1044B0001F910F91FF90DF90CF900895CF93DF93DE
:1044C000EC01CDDFBE010E947F140E949C14DF919D
:1044D000CF910895292F9E3078F5863068F590E0C9
:1044E00036E0239F800D911D1124682F677023E013
:1044F000969587952A95E1F7FC01EE0FFF1FE80FCF
:10450000F91FEB52FC4F40E050E080E0219130E099
:10451000062E02C0369527950A94E2F721703327BC
:10452000042E01C0220F0A94EAF7822B4F5F5F4FDF
:104530004330510559F7089580E00895292F9E30A2
:1045400088F5863078F590E036E0239F800D911D48
:104550001124282F277051E001C0550F2A95EAF742
:1045600023E0969587952A95E1F7FC01EE0FFF1F52
:10457000E80FF91FEB52FC4F20E030E070E0408183
:10458000CB01022E02C0969587950A94E2F78170BE
:10459000819584278523842781932F5F3F4F233084
:1045A000310569F708950E94160C0E94F40B809360
:1045B0008802089521E030E001C0220F8A95EAF7D1
:1045C0002095809188028223EECF21E030E001C067
:1045D000220F8A95EAF780918802822BE4CFCF934D
:1045E000C82F809188028C2B0E94160CC0938402E5
:1045F000CF910895FC012481222309F187819085C0
:10460000009719F00E949C1403C08081918156DFAD
:1046100092959F70963079F010F4925001C09A50A4
:10462000923068F4803F69F018F4883E40F409C085
:10463000843F29F406C0883E20F0813F11F080E0DD
:10464000089581E008951092C5038091B0018130F2
:1046500041F48091CE0387FF04C08EE1EBE2F3E0EA
:1046600003C086E0E3E2F3E0DF011D928A95E9F7FB
:1046700080E090E0C3DC80E090E09BDC1092C4031B
:104680000C94BF15A2E1B0E0E7E4F3E2E2C20A87CE
:104690001B872C873D874E875F87688B798B8A8B3A
:1046A000CE010A960E94A31681113AC089E0FE014C
:1046B0003A96DE01119601900D928A95E1F76E858A
:1046C000662371F12091920230E0C9010196877052
:1046D00099274091DB0250E084179507A1F06D8384
:1046E00099E0929FD001939FB00D1124AD56BD4F1C
:1046F000FE01319601900D929A95E1F78093920216
:104700000E9441160DC09FDF109292021092DB02B0
:10471000E9E8F2E089E0DF011D928A95E9F719C026
:1047200019E08091DB0290919202891791F0189F15
:10473000C00111248D569D4F0E94A316882349F075
:104740008091DB0290E00196877099278093DB02CD
:10475000E8CF6296E4E099C2882321F00E94B11567
:104760000C94BF150895882339F09091C403892BC8
:104770008093C4030C94BF150895882321F00E94F0
:10478000B8150C94BF150895882339F09091C5038E
:10479000892B8093C5030C94BF150895882311F1CC
:1047A0009CEF980F913A10F49FDB0DC090E2980FA8
:1047B000983058F4877091E001C0990F8A95EAF714
:1047C000892F0E94B8150C94BF159BE5980F933064
:1047D00018F480E090E012CC885A8B3118F480E015
:1047E00090E0E7CB0895CF93882309F461C0C82FE8
:1047F0008CEF8C0F813A90F58091B0018130E1F41B
:104800008091CE0387FF18C0EC2FE695E695E695DC
:10481000F0E0E75DFC4F8281282F30E04C2F47709D
:1048200081E090E002C0880F991F4A95E2F7822349
:104830009323892B61F40FC0E3E2F3E089E293E074
:104840002191C21721F08E179F07D1F704C08C2F3A
:104850004BDB0E94BF158C2F75DB10C080E28C0FE4
:10486000883078F4C77081E090E001C0880FCA9565
:10487000EAF79091C503892B8093C5030E94BF1569
:1048800017C0EBE5EC0FE33038F4F0E0E051FE4FF9
:10489000808190E0B3DB0CC0C85ACB3148F4EC2FD8
:1048A000F0E0EE0FFF1FED50FE4F8081918181DB24
:1048B000CF9108951F93CF93DF93182FEB0193DFD0
:1048C000209741F08FE99FE00197F1F700C00000C9
:1048D0002197F6CF812F62DFDF91CF911F9108954D
:1048E000EF92FF920F931F93CF93DF93182FEB015B
:1048F0001092BC0084EA8093BC00B8DA7C018091FD
:10490000BC0087FD0CC0CF3F8FEFD807C1F3C701B4
:10491000E2DAC817D90798F78EEF9FEF2BC0809186
:10492000B900887F883041F08091B900887F80315C
:1049300019F08FEF9FEF1EC01093BB0084E88093A7
:10494000BC0094DA8C018091BC0087FD0AC0CF3F87
:104950008FEFD807C1F3C801BEDAC817D90798F797
:10496000DBCF8091B900887F883111F0803409F75E
:1049700080E090E0CDB7DEB7E6E085C11092B900E7
:104980008CE08093B80008950F931F93CF93DF932B
:10499000EB018093BB0084E88093BC0067DA8C0154
:1049A0008091BC0087FD0CC0CF3F8FEFD807C1F3CB
:1049B000C80191DAC817D90798F78EEF9FEF0CC09E
:1049C0002091B900287F81E090E0283211F480E046
:1049D00090E0919581959109DF91CF911F910F9171
:1049E00008950F931F93CF93DF93EC0184EC809392
:1049F000BC003CDA8C018091BC0087FD0CC0CF3F2D
:104A00008FEFD807C1F3C80166DAC817D90798F73E
:104A10008EEF9FEF03C08091BB0090E0DF91CF91BC
:104A20001F910F9108950F931F93CF93DF93EC0184
:104A300084E88093BC001ADA8C018091BC0087FD69
:104A40000CC0CF3F8FEFD807C1F3C80144DAC817B5
:104A5000D90798F78EEF9FEF03C08091BB0090E0DD
:104A6000DF91CF911F910F910895A0E0B0E0EAE3AC
:104A7000F5E2E5C0682E762E5A016901F7D94C019E
:104A80000431110550F00F3F8FEF180749F0C801AE
:104A900064E170E0BCD0EB0105C0C1E0D0E002C031
:104AA000C5E0D0E0BE01862D1BDF7C0197FF0AC068
:104AB0000F3F8FEF1807B1F3C4010DDA081719077C
:104AC00088F711C0B801872D5FDF7C01E501CA0CB2
:104AD000DB1CCC15DD0539F0F7FC05C0B801899168
:104AE00053DF7C01F6CF84E98093BC00C701CDB7CA
:104AF000DEB7EEE0C0C0A0E0B0E0E0E8F5E29FC0C5
:104B0000782E662E7A01E901B1D95C0104311105D4
:104B100050F00F3F8FEF180751F0C80164E170E0CB
:104B200076D06B0107C0CC24C394D12C03C025E000
:104B3000C22ED12CB601872DD3DE4C0197FF0AC0BF
:104B40000F3FEFEF1E07B1F3C501C5D908171907CD
:104B500088F727C0B801862D17DF4C0197FD21C0CB
:104B6000F72DF1607F2E82D95C010431110518F117
:104B70000F3F8FEF180719F1C80164E170E047D0CB
:104B80006B01B601872DACDE4C0197FD1CC067019F
:104B90002197C6018E199F098C179D0748F597FE2E
:104BA0001CC084E98093BC00C401181619065CF58A
:104BB00080E090E028C0CC24C394D12CE2CF85E0E3
:104BC000C82ED12CDECF0F3FEFEF1E07D1F2C5016B
:104BD00082D908171907A8F6DACFC80102DF4C01FD
:104BE00097FD02C0F6018083FFEFCF1ADF0AD1CF15
:104BF00097FCD7CFC80117DF4C0197FDD2CFCE0D60
:104C0000DF1D8883CECFCDB7DEB7EEE034C0AA1B60
:104C1000BB1B51E107C0AA1FBB1FA617B70710F0A7
:104C2000A61BB70B881F991F5A95A9F780959095D9
:104C3000BC01CD0108952F923F924F925F926F92E7
:104C40007F928F929F92AF92BF92CF92DF92EF921C
:104C5000FF920F931F93CF93DF93CDB7DEB7CA1B9D
:104C6000DB0B0FB6F894DEBF0FBECDBF09942A88C8
:104C7000398848885F846E847D848C849B84AA8470
:104C8000B984C884DF80EE80FD800C811B81AA81FD
:104C9000B981CE0FD11D0FB6F894DEBF0FBECDBFC8
:104CA000ED010895F999FECF92BD81BDF89A99273B
:104CB00080B50895A6E1B0E044E050E025C0A8E149
:104CC000B0E042E050E020C0262FF999FECF92BD1F
:104CD00081BDF89A019700B4021639F01FBA20BDC1
:104CE0000FB6F894FA9AF99A0FBE08950396272FF3
:104CF000ECDFEADF252FE9DF242FE7CF0196272F0E
:104D0000E4DFE2CFDC01CB01FC01F999FECF06C064
:104D1000F2BDE1BDF89A319600B40D924150504079
:104D2000B8F70895EE0FFF1F0590F491E02D099458
:104D3000FB01DC0104C08D910190801921F44150E8
:0E4D40005040C8F7881B990B0895F894FFCFD8
:104D4E00B51DB81EB31EB41DAE1ECB1E2000000036
:104D5E0000000000200BC40B670A000000000000DA
:104D6E0000000000040BB00B4F0A00000000000012
:104D7E0000000000EC0A9C0B370A00000000000047
:104D8E0000000000D40A880B1F0A0000000000007B
:104D9E0000000000BA0A740B070A000000000000B1
:104DAE00000000001E0B600BEF0900000000000069
:104DBE000000000000004E093C0900000000000049
:104DCE00000000001C0B4C0BD70900000000000077
:104DDE00000000000000450933090000000000003B
:104DEE0000000000D20A380BBF09000000000000CE
:104DFE000100940546000000008E054600000000EC
:104E0E0001F0F1F4F5F6F70000000000000030317B
:104E1E00323392936601010101010101000000008D
:104E2E00000000367076706E2F6761306F6177000C
:104E3E00818283E200E900EA00B500B600B700CD3A
:104E4E00008301CC008A01920194012102230224E5
:104E5E00022502260227022A02B300B4006F007058
:104E6E00009F01CB019F02A00244226F7B045904D4
:084E7E00EA03D104EA040A056D
:00000001FF
